:100000000C94AF1E0C94E01E0C94E01E0C94E01EA9
:100010000C94E01E0C94E01E0C94E01E0C94E01E68
:100020000C94E01E0C94E01E0C94E01E0C94E01E58
:100030000C94E01E0C94E01E0C94E01E0C94E01E48
:100040000C94E01E0C94FD970C94E01E0C94E01EA2
:100050000C94E01E0C94E01E0C94A3AF0D94490781
:100060000C94E01E0C94A7620C94E01E0C94E01E0D
:100070000C94E01E0C94E01E0C94E01E0C94E01E08
:100080000C94E01E0C94E01E0C94E01E0C94E01EF8
:100090000C94E01E0C94E01E0C94E01E0C9436BEF2
:1000A0000C94E01E0C94E01E0C94E01E0C94E01ED8
:1000B0000C94E01E0C94E01E0C94E01E0C94E01EC8
:1000C0000C94E01E0C94E01E0C94E01E0C94E01EB8
:1000D0000C94E01E0C94E01E0C94E01E0C94E01EA8
:1000E0000C94E01EE6AFF5AF11B020B03AB03EB0D0
:1000F00040B044B04CB07ED6DDD69ED6DDD6DDD63F
:10010000DDD639D629D6DDD6C0D6CBD6DDD6DDD6DE
:10011000DDD621D6DDD6DDD61BD683D792D795D7AF
:1001200098D78CD7A1D78FD786D79BD79ED7A8D75C
:10013000BAD7ABD7CDD7D0D7D3D7D9D7D6D7BDD7C6
:1001400089D7C0D7AED7B1D7B7D7B4D7BADD08DE15
:1001500012DE0DDED6DD27DEEDDDCADD17DE1CDEAC
:1001600045DE8CDE4ADED6DE37DFB4DDAEDDB2DD65
:1001700063DED1DDCCDE4FDE54DE5EDE59DED6F04E
:10018000D9F009F150F1FAF0F1F0FDF0F4F043F19B
:1001900013F116F1F7F019F100F12EF103F15AF114
:1001A00006F1CEF185F1E2F18EF165F265F265F2CC
:1001B000ACF165F21AF265F20CF265F2EBF103FDB7
:1001C00014FD27FD32FD6EFD42FDA2FD62FDA8FE7D
:1001D000F6FDFDFD69FD05FECEFD28FE4BFEFEFC95
:1001E000D3FDD101B102BB0253023F026B02FF01FA
:1001F000EB017D01DD024302A9024B011D026B02EE
:1002000029039F02FB018F01A5029D0179020303CF
:10021000E7011703AD014503E1016F027F0291027F
:10022000D502E701ED02D501D902084AD73B3BCE02
:10023000016E84BCBFFDC12F3D6C74319ABD5683E5
:100240003DDA3D00C77F11BED9E4BB4C3E916BAA9D
:10025000AABE000000803F05A84CCDB2D44EB938EC
:1002600036A9020C50B9918688083CA6AAAA2ABED3
:10027000000000803F000C9436CD0C94C6A40C9472
:10028000B7FC0C943EB00C946CE20C943FE80C94D8
:100290009ADF0C9442FD0D9406090C941CDE0C941C
:1002A00025DB0C94F6FD0C94D9F00C9434CE0C9410
:1002B000A8E90C94DDD60C9408DE0C94E8CD0C94DF
:1002C000E5E30C9462FD0C94EDDD0C94ACCA0C9447
:1002D000F6DB0C94A8FE0C9428E50C9414E80C941E
:1002E00026CA0C94CEF10C9469FD0C9485D10C9423
:1002F00032E70C9406DA0C94D4CE0D94D9080C9401
:1003000091D20C947FCB0C94B7D70C945ED00C9404
:1003100009F10C94FEFC0C94BAD70C94C0D60D9441
:100320005A090C94FDF00C94B4DD0C9412DE0C947C
:10033000EDDC0C942AEE0C94F4F00D944C090C9422
:1003400052F70C9463DE0D949D060C947ED60C94AB
:100350009ED70C943DF00D94B0060D9465090C9455
:10036000D6D70C9432FD0C9418E30C9475390C9488
:1003700005FE0C945EDE0C9492F00C945AF10C94F1
:10038000E3D70C948EF10C94ABD70C941BD20C9445
:10039000E3E60C94BDD70C9435D90C94D3D70C94C8
:1003A000BADD0D94A1080C949BD70D948B090C9485
:1003B00027DE0C944BFE0C949ED60C9419F10C94F1
:1003C0001AF20D946F090C944FDE0C94F0B00D945A
:1003D00094090C947CB20D94D1080C94D1E00D9446
:1003E0002F010C94C0D50C9485F10C94D0D70C94AB
:1003F00056EA0D94BF060D942E090C94A8D70D94BF
:10040000C9080C949F620C9416F00C9496F40C940A
:100410001AF00C94FAD50C941BD60C9427FD0C946E
:10042000EBF10C94BBD40C9492D70C949CCD0C940F
:1004300028CB0C9499CF0C9465E30D9410090C947F
:1004400014FD0C9459DE0C948FD70C940BD40D949E
:1004500095060C94A4E20C94FAF00C94C9DB0C946D
:10046000CADD0C9469CA0C944ADE0C94A0C90C94A1
:10047000F1F00C948CD70C943CD30C9406F10D94B1
:10048000BF080C94D2BB0D94ED080C94CEFD0C94D7
:1004900000F10C9465F20D942C070C94CBD60C94BF
:1004A00052E20C945AEF0D94B5080C94AEF20C94F1
:1004B000EFCA0C9433CC0D94C0060C9450F10C94FC
:1004C00054D80C94C7B50C94A2FD0C941CE20C9467
:1004D000F7F00C9491830D9438090C94E3F30D9488
:1004E00073090C9411B00C94D1DD0C9497CB0C943F
:1004F00044B00D9450090C94E3C90C943AB00D9497
:1005000079090C940CF20C9486D70C94CDD70C94EA
:100510000DDE0C942EF10C9439D60C94CCDE0C9498
:10052000E2F10D947D090C9437DF0C9443F10C94A7
:1005300083D70C9485EB0C946DD70C9471D50D94E6
:1005400024090C947BDD0C9428FE0D945D090C9419
:100550004CB00D94F7080C9403DD0C94B4D70C94B4
:10056000A3620D94A6080C946EFD0C9434E90C94CF
:10057000E6AF0C9458D40D94AB080C941DE20C9487
:1005800013F10C94E1ED0D94ED060C94C0D70C948E
:1005900077CB0C94ACF10C94D4FA0C9498D70C94BF
:1005A00095D70C94BED30C94CEFE0D9481090C9477
:1005B0005DD40D948F090C9429D60D94E3080C9406
:1005C000F9D00C94F5AF0C9440B00C94AED70C94C9
:1005D0008CDE0C94D3FD0C9403F10D9487090C94DC
:1005E00065E10C9420B00C94DFE20C94B1D70C942C
:1005F00064F10C9427DD0C94A1D70C9416F10C94A3
:1006000017DE0D944A0A0D9456090C949DE70C943C
:1006100021D60C9416D80C9490920C94BDEA0C94AC
:1006200057DD0C9472F20C94B2DD0C9477E40D94C7
:1006300061090C94D6F00C94F0E60C94C0F00C9484
:10064000EDF30C94D6DD0C9482390C949AFA0C9448
:10065000D6DE0D941A090C94C1FF0C94AEDD0C94F7
:10066000D5CB0C9403FD0C9445DE0C94D9D70C9497
:10067000B7E80C9454DE0C94D4F40C94FDFD0C9467
:1006800089D70C94EAD60C9476CE0D946B090C9411
:10069000ADCC0D94CF034D383420582059205A202A
:1006A000450043616E6E6F7420656E7465722073D1
:1006B00075626469723A20004D3234004D32332045
:1006C0002573006175746F25692E67006572726FFE
:1006D000722077726974696E6720746F2066696C26
:1006E000650043617264206572726F723A004E6FEA
:1006F00074205344207072696E74696E67002F0015
:100700005344207072696E74696E672062797465F3
:1007100020002E0044656C6574696F6E2066616907
:100720006C65642C2046696C653A200046696C65EE
:100730002064656C657465643A002E006F70656EA8
:10074000206661696C65642C2046696C653A2000FE
:1007500057726974696E6720746F2066696C653AB8
:1007600020002E006F70656E206661696C65642CD8
:100770002046696C653A20002E006F70656E206619
:1007800061696C65642C2046696C653A2000466995
:100790006C652073656C6563746564002053697AC9
:1007A000653A200046696C65206F70656E65643A35
:1007B00020002E006F70656E206661696C65642C88
:1007C0002046696C653A20005344206361726420BE
:1007D0006F6B006F70656E526F6F74206661696C2D
:1007E000656400766F6C756D652E696E6974206640
:1007F00061696C656400534420696E6974206661A8
:10080000696C006563686F3A004572726F723A00F6
:10081000446F6E6520736176696E672066696C65EA
:100820002E006F6B004D323900446F6E6520707280
:10083000696E74696E672066696C65005072696ED6
:100840007465722073746F707065642064756520C0
:10085000746F206572726F72732E204669782074EF
:100860006865206572726F7220616E6420757365B1
:10087000204D39393920746F207265737461727438
:100880002E202854656D70657261747572652069DB
:10089000732072657365742E20536574206974200B
:1008A00061667465722072657374617274696E67D3
:1008B00029006F6B004E6F204C696E65204E756D80
:1008C000626572207769746820636865636B73750D
:1008D0006D2C204C617374204C696E653A20004E7B
:1008E0006F20436865636B73756D2077697468204A
:1008F0006C696E65206E756D6265722C204C61733B
:1009000074204C696E653A2000636865636B73758B
:100910006D206D69736D617463682C204C61737414
:10092000204C696E653A20004C696E65204E756DED
:10093000626572206973206E6F74204C617374203D
:100940004C696E65204E756D6265722B312C204CA2
:10095000617374204C696E653A20004D313130006E
:100960002200656E717565696E6720220077616986
:1009700074696E6720746F20656E717565006563BC
:10098000686F3A004572726F723A00486172646330
:100990006F6465642044656661756C74205365748A
:1009A00074696E6773204C6F616465640053746F83
:1009B0007265642073657474696E67732072657400
:1009C00072696576656400205A0020460020204D3B
:1009D00032303920530052657472616374696F6EEE
:1009E0003A00205A002059002058004D6178696D66
:1009F000756D20506F736974696F6E7320286D6D0B
:100A0000293A0020426564206D61782074656D701C
:100A1000203D2000202331206D61782074656D70A9
:100A2000203D20004578747275646572733A002029
:100A300044002049002020204D3330312050005008
:100A400049442073657474696E67733A00205A00D4
:100A500020590020204D323036205800486F6D65F7
:100A6000206F666673657420286D6D293A002045F5
:100A700000205A0020580020420020540020204D21
:100A8000323035205300416476616E6365642076B0
:100A900061726961626C65733A20533D4D696E20E5
:100AA0006665656420286D6D2F73292C20543D4D9B
:100AB000696E2074726176656C20666565642028B5
:100AC0006D6D2F73292C20423D6D696E2073656713
:100AD0006D656E742074696D6520286D73292C20F6
:100AE000583D6D6178205859206A65726B20286DD9
:100AF0006D2F73292C20205A3D6D6178205A206A71
:100B000065726B20286D6D2F73292C2020453D6D5B
:100B100061782045206A65726B20286D6D2F7329DE
:100B20000020540020204D323034205300416363B4
:100B3000656C65726174696F6E3A20533D616363E1
:100B4000656C65726174696F6E2C20543D726574BA
:100B50007261637420616363656C65726174696F4F
:100B60006E00204500205A0020590020204D3230D0
:100B7000312058004D6178696D756D204163636562
:100B80006C65726174696F6E20286D6D2F733229E8
:100B90003A00204500205A0020590020204D3230D4
:100BA000332058004D6178696D756D206665656408
:100BB000726174657320286D6D2F73293A0020458A
:100BC00000205A0020590020204D3932205800536F
:100BD000746570732070657220756E69743A005385
:100BE000657474696E67732053746F726564006511
:100BF00063686F3A002200556E6B6E6F776E2063EC
:100C00006F6D6D616E643A20220020423A30002000
:100C1000423A31006F6B20523A002200556E6B6EE3
:100C20006F776E20636F6D6D616E643A2022007A7B
:100C30005F6D61783A2000795F6D61783A200078C5
:100C40005F6D696E3A2000205A3A0020593A002020
:100C5000436F756E7420583A0020453A00205A3A86
:100C60000020593A0020583A004649524D57415207
:100C7000455F4E414D453A4D61726C696E20556C31
:100C800074696D616B6572323B20537072696E746A
:100C900065722F6772626C206D6173687570206673
:100CA0006F722067656E36204649524D5741524556
:100CB0005F55524C3A687474703A2F2F6669726DA2
:100CC000776172652E756C74696D616B65722E63E8
:100CD0006F6D2050524F544F434F4C5F5645525307
:100CE000494F4E3A312E30204D414348494E455FE1
:100CF000545950453A556C74696D616B6572204565
:100D0000585452554445525F434F554E543A310A58
:100D10000020423A0020453A00543A0020573A0059
:100D200020453A00543A00202F200020463A002067
:100D300042403A0020403A00202F0020423A002052
:100D40002F006F6B20543A004E65656420285029AF
:100D5000696E202320616E642028532974617475A4
:100D60007320746F207365742070696E2100506960
:100D70006E2025692073657420746F2025690049F1
:100D80006C6C6567616C2070696E207365742025DA
:100D900069002569206D696E2C20256920736563C3
:100DA00000456E642066696C65206C69737400424E
:100DB0006567696E2066696C65206C6973740043B1
:100DC0004C49434B20544F20434F4E54494E5545B8
:100DD00021002073656300574149543A2000554E65
:100DE000535550504F5254454420434F4D4D414E62
:100DF000443A204D002073656300574149543A201E
:100E000000756E70617573656400726564756E64FB
:100E1000616E7420756E706175736520636F6D6DA2
:100E2000616E642C2069676E6F72696E6700706115
:100E30007573656400726564756E64616E742070AC
:100E40006175736520636F6D6D616E642C206967D9
:100E50006E6F72696E6700FF01010000E0400000E4
:100E6000E0400000E0400000000000000000000042
:100E7000000000000100190017001B001600FFFF12
:100E8000200021001F00FFFF1A0023002400220081
:100E9000FFFF1D000C00040007002A002B002500A6
:100EA00002003E003F00350040006563686F3A0075
:100EB0005072696E7465722073746F70706564200F
:100EC00064756520746F206572726F72732E204690
:100ED000697820746865206572726F7220616E6433
:100EE00020757365204D39393920746F2072657310
:100EF000746172742E202854656D7065726174750A
:100F000072652069732072657365742E2053657451
:100F100020697420616674657220726573746172F1
:100F200074696E6729005072696E74657220686119
:100F30006C7465642E206B696C6C28292063616C6D
:100F40006C656421005361666574792053746F7019
:100F5000006F6B00526573656E643A20002D2D2D75
:100F60002D2D2D2D2D2D2D2D2D2D2D2D2D2D2D2DB1
:100F70002D2D2D2D2D2D2D2D2D2D2D2D2D2D2D2DA1
:100F80002D2D2D2D2D2D2D2D2D2D2D2D2D2D2D2D91
:100F90002D2D2D2D2D2D2D2D2D2D2D2D2D2D2D2D81
:100FA0002D2D2D2D2D2D2D2D2D2D2D2D2D2D2D2D71
:100FB0002D2D2D2D2D2D2D2D2D2D2D2D2D2D2D2D61
:100FC0002D2D2D2D2D2D2D2D2D2D2D2D2D002D2D7E
:100FD0002D2D2D2D2D2D2D2D2D2D2D2D2D2D2D2D41
:100FE0002D2D2D2D2D2D2D2D2D2D2D2D2D2D2D2D31
:100FF0002D2D2D2D2D2D2D2D2D2D2D2D2D2D2D2D21
:101000002D2D2D2D2D2D2D2D2D2D2D2D2D2D2D2D10
:101010002D2D2D2D2D2D2D2D2D2D2D2D2D2D2D2D00
:101020002D2D2D2D2D2D2D2D2D2D2D2D2D2D2D2DF0
:101030002D2D2D2D2D2D2D2D2D2D2D2D2D2D0049F1
:101040006E76616C6964206D6174657269616C2093
:1010500073657474696E677320666F756E642C2097
:10106000726573657474696E6720746F2064656659
:1010700061756C7473002D2D2D2D2D2D2D2D2D2D85
:101080002D2D2D2D2D2D2D2D2D2D2D2D2D2D2D2D90
:101090002D2D2D2D2D2D2D2D2D2D2D2D2D2D2D2D80
:1010A0002D2D2D2D2D2D2D2D2D2D2D2D2D2D2D2D70
:1010B0002D2D2D2D2D2D2D2D2D2D2D2D2D2D2D2D60
:1010C0002D2D2D2D2D2D2D2D2D2D2D2D2D2D2D2D50
:1010D0002D2D2D2D2D2D2D2D2D2D2D2D2D2D2D2D40
:1010E0002D2D2D2D2D2D00564443005053552056A7
:1010F0006F6C746167653A20005644430056434361
:101100003A20002062797465730020204D61746577
:101110007269616C206E616D6520627566666572CC
:10112000733D20002062797465730020205365723E
:1011300069616C20525820636F6D6D206275666620
:1011400065723D2000206279746573002020636F12
:101150006D6D616E647320666F72202000202043E5
:101160006F6D6D616E64206275666665723D20000C
:1011700020627974657300202053637265656E2068
:101180006275666665723D20002062797465730041
:1011900020204C43445F43414348453D0020627951
:1011A000746573292000207820002028002020501A
:1011B0006C616E6E657242756666657242797465C1
:1011C000733A20002046726565204D656D6F727917
:1011D0003A20004D617920323920323031350043D8
:1011E0006F6D70696C65643A200056657273696F43
:1011F0006E2031342E30362E355F784B00207C2027
:10120000417574686F723A20004D6179203239203F
:10121000323031352030353A35333A313400204CD4
:1012200061737420557064617465643A2000322ED5
:10123000312E30004D61726C696E200020536F6654
:10124000747761726520526573657400205761740C
:101250006368646F67205265736574002042726F23
:10126000776E206F75742052657365740020457821
:101270007465726E616C20526573657400506F778F
:1012800065725570007374617274002D2D2D2D2DB3
:101290002D2D2D2D2D2D2D2D2D2D2D2D2D2D2D2D7E
:1012A0002D2D2D2D2D2D2D2D2D2D2D2D2D2D2D2D6E
:1012B0002D2D2D2D2D2D2D2D2D2D2D2D2D2D2D2D5E
:1012C0002D2D2D2D2D2D2D2D2D2D2D2D2D2D2D2D4E
:1012D0002D2D2D2D2D2D2D2D2D2D2D2D2D2D2D2D3E
:1012E0002D2D2D2D2D2D2D2D2D2D2D2D2D2D2D2D2E
:1012F0002D2D2D2D2D2D2D2D2D2D2D006563686F60
:101300003A004572726F723A00250025001E2020B7
:10131000007E001E2020007E004D363032205825F1
:101320006920592569205A2569204C3330004D36F3
:101330003033204C33300047323820583020593079
:10134000004731202563257320462569004739323F
:101350002025632573004C43443A20006563686F81
:101360003A0020746F6F206C6F6E6720657874721E
:101370007573696F6E2070726576656E7465640052
:1013800020636F6C6420657874727573696F6E206A
:1013900070726576656E746564006563686F3A00A7
:1013A00000002110422063308440A550C660E770E1
:1013B000088129914AA16BB18CC1ADD1CEE1EFF189
:1013C0003112100273325222B5529442F772D66231
:1013D000399318837BB35AA3BDD39CC3FFF3DEE3D9
:1013E0006224433420040114E664C774A444855481
:1013F0006AA54BB528850995EEE5CFF5ACC58DD529
:101400005336722611163006D776F6669556B446D0
:101410005BB77AA719973887DFF7FEE79DD7BCC778
:10142000C448E5588668A778400861180228233820
:10143000CCC9EDD98EE9AFF9488969990AA92BB9C8
:10144000F55AD44AB77A966A711A500A333A122A70
:10145000FDDBDCCBBFFB9EEB799B588B3BBB1AAB18
:10146000A66C877CE44CC55C222C033C600C411CC0
:10147000AEED8FFDECCDCDDD2AAD0BBD688D499D68
:10148000977EB66ED55EF44E133E322E511E700E10
:101490009FFFBEEFDDDFFCCF1BBF3AAF599F788FB8
:1014A0008891A981CAB1EBA10CD12DC14EF16FE198
:1014B0008010A100C230E3200450254046706760D0
:1014C000B9839893FBA3DAB33DC31CD37FE35EF3E8
:1014D000B1029012F322D232354214527762567220
:1014E000EAB5CBA5A89589856EF54FE52CD50DC538
:1014F000E234C324A0148104667447642454054470
:10150000DBA7FAB79987B8975FE77EF71DC73CD787
:10151000D326F2369106B0165766767615463456BF
:101520004CD96DC90EF92FE9C899E9898AB9ABA9D7
:101530004458654806782768C018E1088238A3280F
:101540007DCB5CDB3FEB1EFBF98BD89BBBAB9ABB27
:10155000754A545A376A167AF10AD01AB32A923A5F
:101560002EFD0FED6CDD4DCDAABD8BADE89DC98D77
:10157000267C076C645C454CA23C832CE01CC10CAF
:101580001FEF3EFF5DCF7CDF9BAFBABFD98FF89FC7
:10159000176E367E554E745E932EB23ED10EF01EFF
:1015A0007C3C3E5E2B3D3F2F5B5D3B2C2A225C004A
:1015B000205A3A0020593A0020583A00656E647368
:1015C000746F7073206869743A200024F4D430502A
:1015D000C38E20C2A24017828B7011127A910D81A6
:1015E0006CD90AA861E108C7586607615143061E15
:1015F0004B5D05C145A7041A411104093D980371CB
:101600003931034036DB0265339102D43054028015
:101610002E1D02632CEE01752AC501B028A0011011
:101620002781018F2564012B244B01E0223401AC7A
:10163000211F018D200D01801FFC00841EED0097ED
:101640001DDF00B81CD200E61BC600201BBC0064D6
:101650001AB200B219A8000A19A0006A189900D19C
:1016600017910040178B00B516840031167E00B329
:101670001579003A157300C7146F0058146A00EE0C
:101680001366008813630025135E00C7125B006CAD
:1016900012570015125400C111510070114F002152
:1016A000114B00D61049008D10470046104400022F
:1016B000104200C00F4000800F3E00420F3C000669
:1016C0000F3B00CB0E3800930E37005C0E35002721
:1016D0000E3400F30D3200C10D3100900D3000606A
:1016E0000D2E00320D2D00050D2C00D90C2B00AE57
:1016F0000C2900850C29005C0C2700350C27000EF6
:101700000C2600E80B2400C40B2400A00B23007D52
:101710000B23005A0B2100390B2100180B2000F875
:101720000A1F00D90A1E00BB0A1E009D0A1D008068
:101730000A1D00630A1C00470A1B002C0A1B00112B
:101740000A1A00F7091A00DD091900C4091900ABCB
:10175000091900920917007B091800630917004C4A
:1017600009160036091600200916000A091500F5A9
:10177000081500E0081400CC081400B8081400A4F0
:10178000081400900813007D0812006B081300581D
:101790000812004608120034081100230811001234
:1017A00008110001081100F0071000E0071000D038
:1017B000071000C0071000B0070F00A1071000912C
:1017C000070E0083070F0074070F0065070E005710
:1017D000070E0049070E003B070D002E070E0020E4
:1017E000070D0013070D0006070D00F9060C00EDAC
:1017F000060D00E0060C00D4060C00C8060C00BC68
:10180000060C00B0060C00A4060B0099060C008D17
:10181000060B0082060B0077060B006C060B0061BE
:10182000060A0057060B004C060A0042060A00385A
:10183000060A002E060A0024060A001A060A0010EC
:1018400006090007060A00FD050900F4050900EB7A
:10185000050900E2050900D9050900D0050900C7FE
:10186000050900BE050900B5050800AD050800A57D
:101870000509009C050800940508008C05080084F3
:101880000508007C050800740508006C0507006564
:101890000508005D050700560508004E05070047CE
:1018A0000507004005080038050700310507002A34
:1018B000050700230507001C050600160507000F95
:1018C0000507000805060002050700FB040600F5F1
:1018D000040700EE040600E8040600E2040700DB4B
:1018E000040600D5040600CF040600C9040600C3A0
:1018F000040600BD040600B7040600B1040500ACF0
:10190000040600A6040600A00405009B040600953A
:10191000040500900406008A040500850405008083
:101920000406007A04050075040500700405006BC8
:1019300004050066040500610405005C0405005709
:10194000040500520405004D040500480405004349
:101950000405003E0404003A040500350405003087
:101960000404002C04050027040400230405001EC1
:101970000404001A04040016040500110404000DF8
:10198000040400090405000404040000040400FC2D
:10199000030400F8030400F4030400F0030400EC63
:1019A000030400E8030400E4030400E0030400DC93
:1019B000030400D8030400D4030400D0030400CCC3
:1019C000030400C8030300C503030024F404D92062
:1019D0001BC40C5C0E9804C4095F0265077101F416
:1019E00005F900FB04B30048048700C103690058EF
:1019F00003550003034500BE023A00840231005340
:101A0000022A002902250004022000E4011C00C86B
:101A1000011900AF0117009801140084011300712F
:101A20000110006101100051010E0043010D00364C
:101A3000010B002B010B0020010B00150109000C0C
:101A400001090003010800FB000800F3000800EB97
:101A5000000700E4000600DE000600D8000600D201
:101A6000000600CC000500C7000500C2000500BD4F
:101A7000000400B9000400B5000400B1000400AD8A
:101A8000000400A9000400A5000300A20003009FB9
:101A90000004009B000300980003009500020093DF
:101AA000000300900003008D0002008B00030088FB
:101AB0000002008600020084000300810002007F13
:101AC0000002007D0002007B000200790002007726
:101AD0000001007600020074000200720001007133
:101AE0000002006F0002006D0001006C0002006A3D
:101AF0000001006900020067000100660001006546
:101B00000001006400020062000100610001006049
:101B10000001005F0002005D0001005C0001005B4D
:101B20000001005A0001005900010058000100574F
:101B3000000100560001005500010054000100534F
:101B4000000000530001005200010051000100504C
:101B50000001004F0001004E0000004E0001004D4A
:101B60000001004C0001004B0000004B0001004A46
:101B70000001004900010048000000480001004742
:101B8000000100460000004600010045000000453D
:101B90000001004400010043000000430001004236
:101BA000000000420001004100000041000100402F
:101BB0000001003F0000003F0001003E0000003E29
:101BC0000001003D0000003D0001003C0000003C21
:101BD0000000003C0001003B0000003B0001003A17
:101BE0000000003A0001003900000039000100380F
:101BF0000000003800000038000100370000003706
:101C000000010036000000360000003600010035FB
:101C100000000035000000350001003400000034F1
:101C200000000034000100330000003300000033E6
:101C300000010032000000320000003200010031DB
:101C400000000031000000310001003000000030D1
:101C5000000000300001002F0000002F0000002FC6
:101C60000000002F0001002E0000002E0000002EBA
:101C70000001002D0000002D0000002D0000002DAF
:101C80000001002C0000002C0000002C0000002CA3
:101C90000001002B0000002B0000002B0000002B97
:101CA0000001002A0000002A0000002A0000002A8B
:101CB000000100290000002900000029000000297F
:101CC0000000002900010028000000280000002872
:101CD0000000002800000028000100270000002765
:101CE0000000002700000027000000270001002658
:101CF000000000260000002600000026000000264C
:101D0000000100250000002500000025000000253E
:101D10000000002500000025000100240000002430
:101D20000000002400000024000000240001002323
:101D30000000002300000023000000230000002317
:101D40000000002300000023000100220000002208
:101D500000000022000000220000002200000022FB
:101D600000010021000000210000002100000021EE
:101D700000000021000000210000002100010020DF
:101D800000000020000000200000002000000020D3
:101D90000000002000000020000000200001001FC3
:101DA0000000001F0000001F0000001F0000001FB7
:101DB0000000001F0000001F0001001E0000001EA8
:101DC0000000001E0000001E0000006563686F3AFE
:101DD000002073656300206D696E0020686F757266
:101DE0000020686F757273004F4646004F7665722B
:101DF000777269746521200046696C656E616D6556
:101E0000206F76657272756E206F6E20005374724B
:101E1000696E67206D6F6465206F76657272756E8E
:101E20003A2000535749544348494E4720434143C1
:101E30004845204D4F444520544F20006563686F4E
:101E40003A0054656D7065726174757265206865DD
:101E50006174656420626564207377697463686582
:101E600064206F66662E204D415854454D502074B5
:101E70007269676765726564202121003A204578A0
:101E80007472756465722073776974636865642021
:101E90006F66662E204D494E54454D502074726930
:101EA0006767657265642021003A20457874727511
:101EB000646572207377697463686564206F666611
:101EC0002E204D415854454D502074726967676506
:101ED000726564202100202D20496E76616C696452
:101EE000206578747275646572206E756D626572B6
:101EF000202100504944204175746F74756E65202F
:101F000066696E6973686564212050757420746811
:101F100065204B702C204B6920616E64204B64203F
:101F2000636F6E7374616E747320696E746F204397
:101F30006F6E66696775726174696F6E2E680050A6
:101F40004944204175746F74756E65206661696CD3
:101F50006564212074696D656F75740020403A00D6
:101F60006F6B20543A006F6B20423A005049442076
:101F70004175746F74756E65206661696C65642166
:101F80002054656D706572617475726520746F6F31
:101F9000206869676800204B643A2000204B693A4A
:101FA0002000204B703A200020436C61736963204D
:101FB00050494420002054753A2000204B753A20A7
:101FC00000206D61783A2000206D696E3A20002073
:101FD000643A200020626961733A20004572726F92
:101FE000723A0000000000300E0100C00E0A0050DE
:101FF0000F1400D00F1E0060102800E01032007097
:10200000113C00F01146007012500000135A00807D
:1020100013640000146E0090147800101582009074
:10202000158C00101696009016A0001017AA0090AC
:1020300017B4001018BE009018C8001019D20090F4
:1020400019DC00101AE600801AF000001BFA00806C
:102050001B0401F01B0E01701C1801F01C22016012
:102060001D2C01E01D3601501E4001D01E4A0140CA
:102070001F5401B01F5E0130206801A020720110C2
:10208000217C0190218601002290016026F40190BC
:102090002A5802802EBC0250322003E035840350BF
:1020A00039E803803C4C0400000000740E0A00F57F
:1020B0000F230050147E007C1596007017C8005E38
:1020C0001A09014C1D3601141E59011027F4012074
:1020D000616374697665002025005072696E7469C9
:1020E0006E673A202000546F74616C204F6E3A2066
:1020F00020006D0046696C616D656E743A202000A9
:102100005553455F41545F594F55525F4F574E5F8E
:102110005249534B21004D61792032392032303100
:10212000352030353A35333A3139005665727369A6
:102130006F6E2031342E30362E355F784B00554D82
:102140001C202D204E65726420666F726B006D201E
:102150006F6620006D002078004E657420737065F6
:1021600065643A2020004573743A20200054696D5C
:10217000653A2000206279746573004672656520B7
:102180004D656D3A2000250048554D49443A001EE2
:1021900000414D423A0076005053553A00760056C1
:1021A00043433A00555054494D453A2020202020C1
:1021B00000250046616E3A20002500466C6F773A94
:1021C00020001E004265643A20001E0054656D70B8
:1021D0003A20006D6D202020001E2020007E001E71
:1021E0002020007E005052494E540046494C410088
:1021F00053595354454D005072696E74696E67208F
:1022000077697468205553422E2E2E0073757070B6
:102210006F727440756C74696D616B65722E636F5B
:102220006D00436F6E746163743A00536166657448
:102230007920636972637569740054656D702073E9
:10224000656E736F72204245440054656D70207353
:10225000656E736F72004552524F52202D205354B9
:102260004F50504544002F40000000000000000087
:1022700000000000808080C0E0FEFF191E98989842
:102280001818181818189E9F991E38F0E0000000C2
:10229000000000000000000000000000000000003E
:1022A0003CFEFFFF99F1E1C3FFFF00006363636041
:1022B00060606060606363630000FFFF7C38000063
:1022C00000000000000000000080C060B0D8D81CF2
:1022D000FCFF3F0F8FCFC7C7C7C6C6C6C6C6C6C698
:1022E000C6C6C6C6C6C6C6C6C6C7C7C4CC0C1CF8BA
:1022F000F870C00000000EFFF92A2B2B2828FCFFE5
:10230000FF0000FFFFFFFFFFFFFFBFB717B5BDB521
:1023100000B5B5F717FFBFBFFFFFFFFF0000FFFFCE
:10232000FCFF0700C0F0FFFFFDDD1D19193FFFFF97
:102330000000FFFFFFFFFFFFFFFBF1FBFBEAEEC02A
:10234000EEEAFAF0FAFAFFFFFFFFFF0000FFFF0FCF
:102350001FF8E00003070F0F1B1819FBFEFFFFF02B
:10236000E0C0C1E1F1F1F1F1F1F1F1F1F1F1F1F9D7
:10237000F9F9F9F9F9797979F1F010181F070603DD
:10238000030000000000000000F8FFEFDFBF7FFF48
:10239000FFFF404143437F212020217FFFFFFF3F7C
:1023A000B091D1DFD050581F1FF0F00000000000A6
:1023B0000000000000000003070F1E3D7B77EED1F8
:1023C000DEDECF4B4B6969686868603F3F3737375F
:1023D000353430101018181A1B0F060000000000CA
:1023E00043414E43454C0011150A000019151200D7
:1023F00000300C43A890020572888860006000607D
:10240000000000000000005F00000007000700144B
:102410007F147F14242A7F2A12231308646236490A
:102420005522500005030000001C224100004122FB
:102430001C00082A1C2A0808083E08080050300022
:102440000008080808080060600000201008040266
:102450003E5149453E00427F40004261514946217C
:1024600041454B311814127F1027454545393C4AE8
:102470004949300171090503364949493606494938
:10248000291E0036360000005636000000081422CF
:1024900041141414141441221408000201510906B5
:1024A000324979413E7E1111117E7F494949363EBC
:1024B000414141227F4141221C7F494949417F09D5
:1024C0000901013E414151327F0808087F00417FE8
:1024D00041002040413F017F081422417F4040409D
:1024E000407F0204027F7F0408107F3E4141413E4D
:1024F0007F090909063E4151215E7F091929464697
:102500004949493101017F01013F4040403F1F20BF
:1025100040201F7F2018207F631408146303047871
:102520000403615149454300007F41410204081002
:102530002041417F0000040201020440404040402D
:10254000000102040020545454787F484444383831
:1025500044444420384444487F3854545418087E36
:10256000090102081454543C7F0804047800447D97
:1025700040002040443D00007F10284400417F403F
:10258000007C041804787C080404783844444438F7
:102590007C14141408081414187C7C0804040848DB
:1025A00054545420043F4440203C4040207C1C2094
:1025B00040201C3C4030403C44281028440C5050E3
:1025C000503C4464544C44000836410000007F00F5
:1025D00000004136080008082A1C08081C2A0808C0
:1025E000473120462569205A2569205825692059F8
:1025F000256900473238205A3020583020593000A1
:102600006275696C64706C6174652E006F66206120
:10261000646A757374696E6720796F757200746887
:10262000726F756768207468652070726F63657378
:102630007300492077696C6C20677569646520793F
:102640006F7500434F4E54494E55450043414E432C
:10265000454C00473238205A30006973207468694D
:10266000732072696768743F00504C412061732089
:102670006D6174657269616C2C00596F75206861B9
:1026800076652063686F73656E0031382F323100D4
:10269000594553004E4F00746F207072696E74205C
:1026A00069742100616E64207072657373207468B0
:1026B0006520627574746F6E006F6E20746865209B
:1026C00053442D636172640053656C6563742061CB
:1026D000207072696E742066696C650032312F3229
:1026E00031004C45542753205052494E54005265F6
:1026F0006164696E6720636172642E2E2E00323130
:102700002F323100796F757220556C74696D616B71
:102710006572322E2E2E00746861742063616D65BF
:10272000207769746800506C6561736520696E7309
:102730006572742053442D636172640032312F320C
:1027400031006D616B652061203344205072696EE9
:1027500074210049276D207265616479206C65746D
:1027600027730032302F32310041524520594F55E6
:102770002052454144593F006974206973207573A4
:10278000696E672E006F66206D6174657269616C99
:10279000006B6E6F77732077686174206B696E646D
:1027A000004E6F7720796F757220556C74696D617A
:1027B0006B6572320031392F323100434F4E54492C
:1027C0004E554500697320746869732072696768A3
:1027D000743F00414253206173206D6174657269DA
:1027E000616C2C00596F7520686176652063686F95
:1027F00073656E0031382F323100594553004E4F0A
:102800000031372F323100504C41004142530055C6
:102810006C74696D616B6572322E00696E736572DE
:1028200074656420696E2074686520006D6174654C
:102830007269616C20796F752068617665004E65FC
:1028400078742C2073656C6563742074686500313E
:10285000362F32310052454144590066726F6D2067
:102860006E6F7A7A6C652E2E2E006D6174657269BA
:10287000616C2065786974730050757368206275A7
:1028800074746F6E207768656E0031352F323100B9
:10289000434F4E54494E5545004C6F6164696E6715
:1028A000206D6174657269616C2E2E2E0031342F9B
:1028B00032310061626F76652074686520617272E2
:1028C0006F772E00796F757220556C74696D616B2E
:1028D0006572322C0066726F6D20746865207265B7
:1028E0006172206F6600496E73657274206E657741
:1028F000206D6174657269616C0031332F32310073
:10290000434F4E54494E5545006D6174657269617F
:102910006C206C6F6164696E67007072696E7468B8
:102920006561642068656174696E6720666F720016
:10293000506C6561736520776169742C0031322FAA
:102940003231004D3834004731204631323030309A
:1029500020583131302059313000746F20696E7346
:10296000657274206D6174657269616C2E007468A3
:1029700065206E65787420737465702069730074C7
:102980006865206275696C64706C617465004E6F77
:10299000772074686174207765206C6576656C6556
:1029A000640031312F323100434F4E54494E55456A
:1029B0000074686520726967687420636F726E6561
:1029C000722E2E2E005265706561742074686973D2
:1029D00020666F720031302F323100434F4E544920
:1029E0004E554500444F4E4500746865206C656641
:1029F0007420636F726E65722E2E2E0052657065A4
:102A00006174207468697320666F7200392F3231E7
:102A100000434F4E54494E5545006269742072651B
:102A200073697374616E63652E00756E74696C20D2
:102A3000796F75206665656C2061006275696C64EC
:102A4000706C61746520616E64206E6F7A7A6C655B
:102A500000536C696465206120706170657220624A
:102A600065747765656E00382F323100434F4E54E0
:102A7000494E554500434F4E54494E554500473148
:102A800020462569205A30004731204625692058C4
:102A900025692059256900473120462569205A3586
:102AA00000746865206275696C64706C617465207F
:102AB0006C6576656C2E00706170657220746F2095
:102AC00066696E652D74756E65006E6F772075731F
:102AD000652061207368656574206F6600526570BB
:102AE000656174207468697320737465702C20624A
:102AF000757400372F323100434F4E54494E5545BF
:102B00000066726F6D20746865206275696C647010
:102B10006C6174652E0069732061206D696C6C694D
:102B20006D65746572206177617900736372657792
:102B30002074696C6C20746865206E6F7A7A6C659D
:102B4000005475726E207269676874206275696CD2
:102B500064706C61746500362F323100434F4E54FF
:102B6000494E554500473120462569205A300047D7
:102B700031204625692058256920592569004731AB
:102B800020462569205A350066726F6D207468658D
:102B9000206275696C64706C6174652E00697320C5
:102BA00061206D696C6C696D657465722061776117
:102BB000790073637265772074696C6C2074686542
:102BC000206E6F7A7A6C65005475726E206C656643
:102BD00074206275696C64706C61746500352F32A5
:102BE0003100434F4E54494E55450047312046254C
:102BF00069205A3000473120462569205825692030
:102C000059256900473120462569205A35006672EA
:102C10006F6D20746865206275696C64706C617496
:102C2000652E0061206D696C6C696D65746572203C
:102C30006177617900756E74696C20746865206EC7
:102C40006F7A7A6C6520697300526F7461746520C5
:102C500074686520627574746F6E00342F323100B1
:102C6000434F4E54494E554500434F4E54494E55DF
:102C70004500473120462569205A25692058256995
:102C800020592569004732382058302059300067D4
:102C90006F696E6720746F20646F207468617420A0
:102CA0006E6F772E0061646A7573746D656E7473F0
:102CB0002C20776520617265007765206E656564FC
:102CC00020746F20646F20736F6D650041667465BA
:102CD00072207472616E73706F72746174696F6E5A
:102CE00000332F323100434F4E54494E5545004773
:102CF0003120462569205A256900473238205A304C
:102D000000612066697273742072756E2077697A2B
:102D10006172642E0077616C6B20796F7520746826
:102D2000726F75676800666972737420737461727C
:102D300074757020492077696C6C00426563617519
:102D40007365207468697320697320746865003244
:102D50002F323100434F4E54494E55450062757431
:102D6000746F6E20746F20636F6E74696E7565008A
:102D7000556C74696D616B65722120507265737357
:102D8000207468650073746172747570206F6620BA
:102D9000796F75720057656C636F6D6520746F2075
:102DA00074686520666972737400312F3231004394
:102DB0004F4E54494E5545001E007E00436C6963DA
:102DC0006B20746F2072657475726E004E6F7A7A24
:102DD0006C652074656D70657261747572653A001A
:102DE0003F3F3F0020476C6F77207768656E206417
:102DF0006F6E6500204F6E207768696C6520707279
:102E0000696E74696E670020416C77617973204F39
:102E100066660020416C77617973204F6E004272C4
:102E2000696768746E657373003C2052455455524F
:102E30004E0025004272696768746E657373004CBA
:102E400045440025003F3F3F004D61782073706589
:102E50006564205A004D617820737065656420595F
:102E6000004D6178207370656564205800582F59B3
:102E7000204A65726B00416363656C6572617469B9
:102E80006F6E003C2052455455524E006D6D2F73AD
:102E9000004D6178207370656564205A006D6D2F58
:102EA00073004D61782073706565642059006D6D05
:102EB0002F73004D61782073706565642058006D34
:102EC0006D2F7300582F59204A65726B0030306D9A
:102ED0006D2F731C00416363656C65726174696F6B
:102EE0006E004D4F54494F4E006D6D2F73006D6D48
:102EF0002F73006D6D2F73006D6D2F73006D6D2F2F
:102F0000731C00746F2064656661756C743F0052B9
:102F100065736574206D6174657269616C730059C5
:102F20004553004E4F00746F2064656661756C7484
:102F30003F005265736574206576657279746869BF
:102F40006E6700594553004E4F006D003A005072B5
:102F5000696E74696E673A003A004D616368696E24
:102F600065206F6E20666F723A0052657475726EDE
:102F70000056657273696F6E2031342E30362E35EF
:102F80005F784B004D617920323920323031352065
:102F900030353A35333A32300052657475726E000E
:102FA0001E007E00436C69636B20746F2072657431
:102FB00075726E004265642074656D70657261742F
:102FC000757265001E007E00436C69636B20746F30
:102FD0002072657475726E00206D6D00436C6963BC
:102FE0006B20746F2072657475726E00206D6D00B9
:102FF000746F2058206C696D6974004D6F76652080
:10300000686561642077697468206B6E6F62004741
:10301000323820583020593000436C69636B20747B
:103020006F2072657475726E00206D6D00746F2074
:1030300059206C696D6974004D6F76652068656113
:10304000642077697468206B6E6F620047323820A5
:103050005830205930005475726E206F6E20636FA7
:103060006F6C696E672066616E005475726E206FBA
:103070006E20636173652066616E005475726E2008
:103080006F6E20686561642066616E0041646A75D8
:1030900073742059204D6178696D756D0041646AC3
:1030A0007573742058204D6178696D756D003F3FD0
:1030B0003F0044697361626C65204D656E752077D1
:1030C00072617000456E61626C65204D656E7520A1
:1030D000777261700041646A7573742069646C650D
:1030E0002074696D656F75740041646A757374202E
:1030F0005A204C696674005265736574204D617482
:10310000657269616C7300466163746F72792072D5
:10311000657365740052756E74696D6520737461B2
:1031200074730056657273696F6E004D6F74696FCA
:103130006E2073657474696E677300526574726192
:103140006374696F6E2073657474696E677300458C
:10315000787472756465206D6174657269616C2044
:10316000005261697365206275696C64706C61748A
:1031700065004C6F776572206275696C64706C6174
:1031800074650052656C65617365206D6F746F7254
:10319000730043656E746572206865616400486FF2
:1031A0006D652068656164004865617475702062B2
:1031B00075696C64706C61746500486561747570E4
:1031C000206578747220004C4544207365747469DE
:1031D0006E67730041646A757374204265642048A9
:1031E0006569676874003C2052455455524E00474B
:1031F0003120462569205825692059256900473224
:103200003820583020593000473120462569205851
:103210002569205925690047323820583020593017
:10322000006D6D0052657472616374205A4C69665A
:103230007400206D696E757465730049646C652057
:1032400074696D656F7574004731205A36300047D8
:103250003238205A3000473238205A300047312067
:103260005831303020593230204631323030300041
:103270004D383400473238205830205930005359E7
:103280005354454D006D6D006D6D001E001E0073A2
:10329000006D6D2F733D00204020006D6D00206D8E
:1032A000696E75746573004D617920323920323052
:1032B00031352030353A35333A3230002E2E2E2E2D
:1032C0002E766572696669656420707265736574CF
:1032D000202320002E2E2E2E2E76657269666965BB
:1032E000642065787472756465722073657474699E
:1032F0006E6720232000436865636B696E672070EA
:10330000726573657420232000206578747275647B
:1033100065722073657474696E67733A0020707209
:10332000657365747320616E642000436865636B28
:10333000696E6720003F3F3F004D617465726961AF
:103340006C7320726573657400250046616E3A20C7
:10335000001E001E002500466C6F773A006D6D0060
:103360004D4154455249414C00636F6D6573206F68
:10337000757420746865206E6F7A7A6C6500576189
:1033800069742074696C6C206D6174657269616C1C
:103390000052454144590043414E43454C00466F5D
:1033A0007277617264696E67206D617465726961BC
:1033B0006C0061626F766520746865206172726F5F
:1033C000772E00796F7572206D616368696E652C68
:1033D0000066726F6D20746865206261636B73694B
:1033E0006465206F6600496E73657274206E657740
:1033F000206D6174657269616C00524541445900E9
:1034000043414E43454C004731204625692058250D
:10341000692059256900473238205830205930003A
:1034200052656D6F7665206D6174657269616C00BF
:1034300052454144590043414E43454C0052657644
:10344000657273696E67206D6174657269616C0085
:10345000473238205830205930001E00666F7220E5
:103460006D6174657269616C2072656D6F76616CF7
:103470000048656174696E67207072696E74686572
:10348000616400437573746F6D697A65003C205206
:10349000455455524E004D6F6469667920746865D5
:1034A0002073657474696E677300250046616E3A17
:1034B00020001E001E002500466C6F773A006D6DDF
:1034C000003F3F3F0053746F72652061732070723C
:1034D0006573657400466C6F7720250046616E0049
:1034E0004469616D65746572004865617465642046
:1034F0006275696C64706C6174650054656D7065AB
:10350000726174757265003C2052455455524E00EC
:10351000250025006D6D001E001E00435553544FBD
:103520004D5F004E657720707265736574003C20B6
:1035300052455455524E0050524553455453002560
:10354000004D6174657269616C20666C6F7700254F
:103550000046616E207370656564006D6D004D619D
:1035600074657269616C204469616D65746572008F
:1035700043004275696C64706C6174652054656DBC
:10358000702E00430054656D7065726174757265CC
:10359000004D4154455249414C0053656C6563747C
:1035A0006564206D6174657269616C3A004F4B000F
:1035B0004D4154455249414C004348414E47450016
:1035C00053455454494E47530052455455524E00AA
:1035D00047454E4552494320504C4100D7004600D4
:1035E0006464006666364047454E45524943204173
:1035F000425300EB005F00006B00666636404943B3
:1036000033442041425300000000E1005F00006BA2
:1036100000666636404A455420414253000000008F
:1036200000F0005F00006B00CDCC3C4045434F46AE
:103630004C455820504C4100EB004B00646E006636
:103640006636405420363138204E594C4F4E00F5E6
:10365000002D006478006666364054474C4153455F
:103660002F5045542B00E10046006478009A9939A8
:10367000404E494E4A41464C4558000000F500373F
:1036800000648700CDCC2C40504F4C5943415242EE
:103690000000000013016E00646E0066663640652F
:1036A00063686F3A0047312046313230303020585D
:1036B0003130302059353000473238006D6D2F736E
:1036C0000052657472616374207370656564006D87
:1036D0006D0052657472616374206C656E67746806
:1036E0000052455452414354494F4E006D6D2F7363
:1036F000006D6D003F3F3F0052657472616374203E
:1037000073706565640052657472616374206C65E2
:103710006E677468003C2052455455524E00473144
:10372000205831303020593230204631323030305C
:10373000006D6D0052657472616374205A2D4C697E
:1037400066740025004272696768746E6573730061
:1037500025004D6174657269616C20666C6F77003D
:10376000250046616E207370656564002500507207
:10377000696E742073706565640054554E4500731E
:10378000006D6D2F733D00204020006D6D00250001
:10379000250025001E001E0025004D6F74696F6E08
:1037A0002073657474696E67730043656E74657227
:1037B0002068656164002D2D43616E277420436588
:1037C0006E746572003F3F3F0045787472756465A2
:1037D0002031306D6D002D2D43616E2774204578AA
:1037E000747275646500456E61626C6520205A2DA7
:1037F0004C6966740044697361626C65205A2D4C93
:1038000069667400456E61626C6520205265747251
:10381000616374696F6E0044697361626C65205204
:10382000657472616374696F6E004E7564676520BC
:1038300042656420446F776E20302E316D6D004EEE
:10384000756467652042656420557020302E316DA7
:103850006D00486F6D6520486561642026205265C3
:1038600073756D65002D2D43616E277420486F6D53
:1038700065004C4544204272696768746E657373D5
:10388000005A2D4C696674005265747261637469E4
:103890006F6E004D6174657269616C20466C6F7764
:1038A0000046616E205370656564204F76657272C4
:1038B000696465004265642054656D706572617469
:1038C0007572650054656D7065726174757265001E
:1038D00053706565640050617573696E672E2E2E96
:1038E000776169742E2E2E00526573756D65002DFB
:1038F0002D43616E277420506175736500506175AA
:103900007365003C2052455455524E00596F752046
:1039100063616E2072656D6F7665005072696E74BA
:103920002066696E6973686564001E001E20202091
:10393000005072696E74657220636F6F6C696E6798
:1039400020646F776E0045737420776173202000C8
:10395000446F6E6520696E2020004241434B205425
:103960004F204D454E550041626F7274207468655A
:10397000207072696E743F00594553004E4F0066C7
:10398000726F6D2074686520736C696365722E00B8
:1039900073657474696E67207769746820736574E1
:1039A00074696E67006F76657272696465206D6117
:1039B0006368696E6500546869732066696C652088
:1039C00077696C6C00434F4E54494E554500434156
:1039D0004E43454C00436F64653A0053442D636188
:1039E0007264210072656164696E67004572726F6E
:1039F00072207768696C650052455455524E2054C8
:103A00004F204D41494E006D6D006D006D004865C1
:103A10006174696E67206275696C64706C6174654D
:103A20000048656174696E6700746F20636F6E741F
:103A3000696E756500507265737320627574746F7A
:103A40006E004255460046414E004F5652006D6D85
:103A50002F73006D6D1B2F73001E007E0054554E9A
:103A6000450041424F5254006D206F6620001E00F9
:103A70001E0048454154494E47204558545255442C
:103A800045520054554E450041424F525400534454
:103A90002043415244003B464C41564F523A556CEC
:103AA000746947436F6465003B464C41564F523A38
:103AB000556C746947436F6465004E6F2066696C8E
:103AC000657320666F756E6421004F4B004F4B008D
:103AD00052656164696E6720636172642E2E2E00E8
:103AE000506C6561736520696E73657274206361E3
:103AF0007264004E6F2053442D4341524421003BD9
:103B00004D4154455249414C3A003B54494D453A88
:103B1000003B4C6179657220636F756E743A2000CA
:103B20004E6F20696E666F20617661696C61626CB0
:103B300065006D006D004D6174657269616C3A20BD
:103B4000003A003A0020002F002F00546F74616C7F
:103B5000206C61796572733A200054696D653A2072
:103B600000466F6C646572003C204241434B003C50
:103B70002052455455524E004D3330302053383882
:103B8000302050313530004D333030205336363010
:103B90002050313530004D33303020533434302014
:103BA00050313030004845524520574520474F217D
:103BB000004D333030205331313020503235300019
:103BC0004D33303020533434302050323530004DB6
:103BD00033303020533232302050313530004D38C0
:103BE00034004732380047312046256920453000EF
:103BF000473932204525690000000A0B02090C0DE7
:103C00000E0807030401000000000000000000008F
:103C100000000000000000000000000000000000A4
:103C20000000000012111000000000000000000061
:103C30000000000000000000000000000000010281
:103C400010202008081020401020408002010201AE
:103C50000804020101020408102040808040201066
:103C600008040201800402018040201008040201BF
:103C70000804020101020408102040800102040827
:103C80001020408005050505070508080808020200
:103C900002020A0A080804040404010101010101E6
:103CA00001010303030303030303040707070C0CC9
:103CB0000C0C0C0C0C0C0202020206060606060690
:103CC00006060B0B0B0B0B0B0B0B0000200023004D
:103CD000260029002C002F00320000010000030103
:103CE0000601090100002200250028002B002E00FB
:103CF0003100340002010000050108010B01000041
:103D00002100240027002A002D003000330001018B
:103D10000000040107010A014E414E494E49545921
:103D2000494E46CDCCCC3D0AD7233C17B7D1387786
:103D3000CC2B329595E6241FB14F0A00002041009C
:103D400000C84200401C4620BCBE4CCA1B0E5AAEE6
:103D5000C59D740075399F62C6A44B02A3621124ED
:103D60001FBECFEFD1E2DEBFCDBF00E00CBF15E03C
:103D7000A0E0B2E0ECEDF4E302E00BBF02C007907C
:103D80000D92AC38B107D9F72FE1ACE8B5E001C02E
:103D90001D92A639B207E1F71DE3CCE5DDE300E0B3
:103DA00006C022970109FE010BBF0F94AE10C43567
:103DB000D10780E00807A9F70F942E0A0D945C1A2A
:103DC0000C940000FC01148217821382128283EA91
:103DD00094E091838083089523EA34E0FC013183E9
:103DE00020832781222319F004960C94EA8D0895EC
:103DF000CF92DF92EF92FF920F931F93CF93DF93B7
:103E0000EC01C9960E94E21ECE01865A9F4F0E9485
:103E1000E21E7E0129E7E20EF11C87016E0131E509
:103E2000C31A3EEFD30AC8010E94E21E015E1F4F73
:103E30000C151D05C1F7FE01EF54FE4F89E181838A
:103E400014823596178ACE018C529E4F0E94E21E34
:103E50001AAA1BAA1CAA1DAAFE01E950FE4F108235
:103E60001182128213821A821B8218AE1882198262
:103E70006E018DE0C81A8EEFD80AF6011082118209
:103E800012821382F801108286E391E0F7019C010F
:103E9000119221503040E1F7FE01E550FE4F81E0E4
:103EA00080831FAA1EAA0F94930768577C4E8F4FDA
:103EB0009F4FF6016083718382839383DF91CF915B
:103EC0001F910F91FF90EF90DF90CF900895FC012C
:103ED00020E03EE2DB014C91403241F0283011F409
:103EE00030833196DB014C91408331962F5F6F5FB9
:103EF0007F4F2B3079F7108208953F924F925F9257
:103F00006F927F928F929F92AF92BF92CF92DF92E9
:103F1000EF92FF920F931F93CF93DF93CDB7DEB74E
:103F2000C558D1090FB6F894DEBF0FBECDBF8C01C6
:103F30006B017A01312C4C0182E1880E911CE4E086
:103F4000EE0EF11C3801F4E06F1AFEEF7F0A580103
:103F500082E0A81A8EEFB80A80E4482E512C4C0E4D
:103F60005D1EE4E04E0E511CA401BE016F5F7F4F49
:103F7000C7010E944F8C18160CF066C12C85322F99
:103F80003871303109F0A1C0F3018081918101972E
:103F9000029708F49AC0BE016F5F7F4FCE01875829
:103FA0009F4F0E94671FA0961FAEA097F6018081C9
:103FB000811107C060ED72E0CE01815A9F4F0F94CE
:103FC000A616B601CE01815A9F4F0F94A616BE01C8
:103FD00067587F4FCE01815A9F4F0F94A61660ED10
:103FE00072E0CE01815A9F4F0F94A616CE01805CDD
:103FF0009F4F0E94E21E21E0AE0147585F4FB7017C
:10400000C2010E94F38F811139C0F3018081918137
:10401000892BA1F5E9E0F8E08491882341F09091A3
:10402000C00095FFFCCF8093C6003196F5CFE2ED3E
:10403000F2E08191882339F09091C00095FFFCCF88
:104040008093C600F6CF8091C00085FFFCCF8AE048
:104050008093C600FE01E758FF4F8191882339F015
:104060009091C00095FFFCCF8093C600F6CF809161
:10407000C00085FFFCCF8AE08093C6008BE1FE0183
:10408000EC5BFF4FDE01959601900D928A95E1F76A
:1040900024968EAD9FAD24979CA38BA383EA94E0D6
:1040A0009AA389A3AE014F5D5F4FBE01615A7F4F56
:1040B000C8010E947D1FCE0181960E94EC1ECE0198
:1040C000805C9F4F0E94EC1E4FCF8981882309F4AA
:1040D000BBC0853E09F448CF8E3209F445CF8F35F9
:1040E00009F442CFF8018289882331F08E3209F435
:1040F0003BCF8F3509F438CF23FD36CF81E0303107
:1041000009F080E0F80185A7811108C0898587340E
:1041100009F02ACF8A858E3709F426CFBE016F5F5A
:104120007F4FC80105960E94671F8F89988DF801FF
:1041300097A786A7898D9A8D91AB80ABF30180817B
:104140009181009709F069C0E3E0F8E08491882349
:1041500041F09091C00095FFFCCF8093C60031964E
:10416000F5CFF6018191882339F09091C00095FF39
:10417000FCCF8093C600F6CFF4018191882339F0FB
:104180009091C00095FFFCCF8093C600F6CFE3E589
:10419000F4E08191882339F09091C00095FFFCCF25
:1041A0008093C600F6CF4D8D5E8D6F8D78A12AE08D
:1041B00030E08BE39AE00E943264E5EEF2E0819118
:1041C000882339F09091C00095FFFCCF8093C60002
:1041D000F6CF698D7A8D4AE050E08BE39AE00E9439
:1041E0004564ECEEF2E08191882339F09091C000B3
:1041F00095FFFCCF8093C600F6CF6F89788D4AE09B
:1042000050E08BE39AE00E9445648091C00085FFF6
:10421000FCCF8AE08093C600A7CE8130910539F4A7
:10422000F501808191810196918380839DCE0297D3
:1042300009F09ACE232D30E0F50180819181281775
:10424000390711F0339490CECB57DF4F0FB6F89467
:10425000DEBF0FBECDBFDF91CF911F910F91FF90B9
:10426000EF90DF90CF90BF90AF909F908F907F9016
:104270006F905F904F903F900895EF92FF920F9351
:104280001F93CF93DF93CDB7DEB76F970FB6F89438
:10429000DEBF0FBECDBF8C01FC01E450FE4F11828A
:1042A00010827C018DE3E80EF11C40E050E0BA0181
:1042B000C7010E94048D8BE1F701DE011596019084
:1042C0000D928A95E1F7F80183AD94AD9C838B83C1
:1042D00083EA94E09A838983AE014F5F5F4F64E580
:1042E00074E0C8010E947D1FCE0101960E94EC1E61
:1042F0006F960FB6F894DEBF0FBECDBFDF91CF91A2
:104300001F910F91FF90EF9008952BE1FB013496E0
:10431000DC01149601900D922A95E1F7FB012281B0
:104320003381FC01338322830895EF92FF920F9330
:104330001F93CF93DF93EC0118AEFC01E05CFF4FBD
:104340008081882321F0CE01CD960E94EA8D7E01E6
:104350008FE4E81A8EEFF80A45E360E0C7010E9497
:10436000F98781111FC0E3E0F8E08491882341F0D0
:104370009091C00095FFFCCF8093C6003196F5CF99
:10438000E6EFF7E08491882341F09091C00095FF1B
:10439000FCCF8093C6003196F5CF8091C00085FF99
:1043A000FCCF76C08E010A541E4F41E0B701C80110
:1043B0000E941096811126C040E0B701C8010E94FA
:1043C000109681111FC0E9E0F8E08491882341F044
:1043D0009091C00095FFFCCF8093C6003196F5CF39
:1043E000E3EEF7E08491882341F09091C00095FFBF
:1043F000FCCF8093C6003196F5CF8091C00085FF39
:10440000FCCF46C0B801CE01CD960E948A8A8111A8
:104410001FC0E9E0F8E08491882341F09091C0004A
:1044200095FFFCCF8093C6003196F5CFE3EDF7E022
:104430008491882341F09091C00095FFFCCF809338
:10444000C6003196F5CF8091C00085FFFCCF20C01B
:1044500081E088AFE3E0F8E08491882341F0909117
:10446000C00095FFFCCF8093C6003196F5CFE8ECF5
:10447000F7E08491882341F09091C00095FFFCCF34
:104480008093C6003196F5CF8091C00085FFFCCFA8
:104490008AE08093C6008E01075C1F4FB801CE01F1
:1044A000865A9F4F0E948521C85ADF4F198308837F
:1044B000DF91CF911F910F91FF90EF90089522B35C
:1044C00022FB222720F931E02327FC013481E0552B
:1044D000FE4F321749F03081332319F031503083C9
:1044E0000895FC012483089588E280830895FC01E7
:1044F0001282138210AE0895FC0180AD882319F05A
:1045000081E08283138208952F923F924F925F92AF
:104510006F927F928F929F92AF92BF92CF92DF92D3
:10452000EF92FF920F931F93CF93DF93CDB7DEB738
:10453000AD970FB6F894DEBF0FBECDBF7C016B0107
:104540004DA7FC0180AD882309F4DEC14701F8E2E4
:104550008F1AFEEF9F0AC4010E94EA8DF7011282B2
:104560001382CE0101965C010E94E21E170198E5BC
:10457000290E311CC701C996F10191838083F60190
:1045800080818F3209F081C06FE270E0C6010F9424
:10459000B1168C010F5F1F4F0230110508F47BC06C
:1045A0006FE270E0C8010F94B1162C01009709F476
:1045B00073C00817190708F06FC03C01601A710A30
:1045C000A301B801CE0180960F94D116E0E2F0E08D
:1045D000EC0FFD1FE60DF71D1082FE01B0968191D4
:1045E000882339F09091C00095FFFCCF8093C600DE
:1045F000F6CF8091C00085FFFCCFFAE0F093C600B3
:10460000F101608171816115710519F06C5F7F4F57
:1046100002C060E070E021E0AE01405E5F4FCE017D
:1046200005960E94F38F81112BC0E4EBF7E0849193
:10463000882341F09091C00095FFFCCF8093C60085
:104640003196F5CFFE01B0968191882339F0909193
:10465000C00095FFFCCF8093C600F6CFE2EBF7E0F9
:104660008491882341F09091C00095FFFCCF809306
:10467000C6003196F5CF8091C00085FFFCCF09C1FF
:10468000F101B182A082820185CFC701865A9F4F76
:10469000F101918380838601FDA5FF2309F4B1C058
:1046A000F101608171816115710519F06C5F7F4FB7
:1046B00002C060E070E021E0A801C4010E94F38F15
:1046C000882309F467C0F40181899289A389B48998
:1046D000F70182AB93ABA4ABB5ABE3E0F8E0849118
:1046E000882341F09091C00095FFFCCF8093C600D5
:1046F0003196F5CFE4EAF7E08491882341F0909178
:10470000C00095FFFCCF8093C6003196F5CFF8012D
:104710008191882339F09091C00095FFFCCF809360
:10472000C600F6CFECE9F7E08491882341F0909140
:10473000C00095FFFCCF8093C6003196F5CFF701FE
:1047400042A953A964A975A92AE030E08BE39AE055
:104750000E9432648091C00085FFFCCF8AE0809384
:10476000C600F701E950FE4F1082118212821382B7
:10477000EEE8F7E08491882341F09091C00095FF26
:10478000FCCF8093C6003196F5CF8091C00085FFA5
:10479000FCCFAFC0E9E0F8E08491882341F090912C
:1047A000C00095FFFCCF8093C6003196F5CFEAE7B5
:1047B000F7E08491882341F09091C00095FFFCCFF1
:1047C0008093C6003196F5CFF8018191882339F0A6
:1047D0009091C00095FFFCCF8093C600F6CFE8E72C
:1047E000F7E08491882341F09091C00095FFFCCFC1
:1047F0008093C6003196F5CF8091C00085FFFCCF35
:1048000048C0F101608171816115710519F06C5F1B
:104810007F4F02C060E070E026E5A801C4010E945D
:10482000F38F81113AC0E9E0F8E08491882341F0E8
:104830009091C00095FFFCCF8093C6003196F5CFD4
:10484000E4E6F7E08491882341F09091C00095FF61
:10485000FCCF8093C6003196F5CFF8018191882373
:1048600039F09091C00095FFFCCF8093C600F6CF41
:10487000E2E6F7E08491882341F09091C00095FF33
:10488000FCCF8093C6003196F5CF8091C00085FFA4
:10489000FCCF8AE08093C60034C081E0F7018083BA
:1048A000E3E0F8E08491882341F09091C00095FF07
:1048B000FCCF8093C6003196F5CFE0E5F7E0849118
:1048C000882341F09091C00095FFFCCF8093C600F3
:1048D0003196F5CFF6018191882339F09091C0008F
:1048E00095FFFCCF8093C600F6CF8091C00085FF76
:1048F000FCCF8AE08093C600C8010E94A2650E9496
:1049000002B2C5010E94EC1EAD960FB6F894DEBF50
:104910000FBECDBFDF91CF911F910F91FF90EF9010
:10492000DF90CF90BF90AF909F908F907F906F90CF
:104930005F904F903F902F90089521E0FC012183DC
:1049400040E00C9484222F923F924F925F926F929C
:104950007F928F929F92AF92BF92CF92DF92EF920F
:10496000FF920F931F93CF93DF93CDB7DEB7AC9732
:104970000FB6F894DEBF0FBECDBF7C015B01FC011A
:1049800080AD882309F43CC1C70188529E4F0E9424
:10499000EA8DF70112821382CE0101966C010E940A
:1049A000E21E270198E5490E511CC701C996F20184
:1049B00091838083F50180818F3209F0A3C06FE27B
:1049C00070E0C5010F94B1168C010F5F1F4F93E08B
:1049D000292E98E0392E0115110509F499C06FE2CE
:1049E00070E0C8010F94B1164C01009709F491C012
:1049F0000817190708F08DC03C01601A710AA3015D
:104A0000B801CE0180960F94D116E0E2F0E0EC0FF1
:104A1000FD1FE60DF71D1082F1018491E3E0F8E03F
:104A2000882349F09091C00095FFFCCF8093C60089
:104A300031968491F5CFFE01B0968191882339F0AB
:104A40009091C00095FFFCCF8093C600F6CF809177
:104A5000C00085FFFCCFFAE0F093C600F201608150
:104A600071816115710519F06C5F7F4F02C060E0C4
:104A700070E021E0AE01405E5F4FCE0105960E94DE
:104A8000F38F811138C0E9E0F8E08491882341F088
:104A90009091C00095FFFCCF8093C6003196F5CF72
:104AA000ECE3F7E08491882341F09091C00095FFFA
:104AB000FCCF8093C6003196F5CFFE01B096819170
:104AC000882339F09091C00095FFFCCF8093C600F9
:104AD000F6CFEAE3F7E08491882341F09091C0009B
:104AE00095FFFCCF8093C6003196F5CF8091C00032
:104AF00085FFFCCF7FC0F201D182C08284010F5FAD
:104B00001F4F69CFC701865A9F4FF201918380835F
:104B10008501F20180819181009711F0049602C015
:104B200080E090E0B8010E94D390882369F1E3E02F
:104B3000F8E08491882341F09091C00095FFFCCF6C
:104B40008093C6003196F5CFECE2F7E0849188239C
:104B500041F09091C00095FFFCCF8093C600319644
:104B6000F5CFF8018191882339F09091C00095FF2D
:104B7000FCCF8093C600F6CFF701E950FE4F1082BC
:104B800011821282138239C0E9E0F8E0849188230F
:104B900041F09091C00095FFFCCF8093C600319604
:104BA000F5CFE4E1F7E08491882341F09091C000D3
:104BB00095FFFCCF8093C6003196F5CFF801819127
:104BC000882339F09091C00095FFFCCF8093C600F8
:104BD000F6CFE2E1F7E08491882341F09091C000A4
:104BE00095FFFCCF8093C6003196F5CF8091C00031
:104BF00085FFFCCF8AE08093C600C6010E94EC1EB0
:104C0000AC960FB6F894DEBF0FBECDBFDF91CF914B
:104C10001F910F91FF90EF90DF90CF90BF90AF90DA
:104C20009F908F907F906F905F904F903F902F90CC
:104C30000895CF93DF93EC0188AD882309F443C036
:104C4000E3E0F8E08491882341F09091C00095FF63
:104C5000FCCF8093C6003196F5CFE0E0F7E0849179
:104C6000882341F09091C00095FFFCCF8093C6004F
:104C70003196F5CFFE01E950FE4F408151816281AE
:104C800073812AE030E08BE39AE00E943264EEEF19
:104C9000F6E08491882341F09091C00095FFFCCF0D
:104CA0008093C6003196F5CF4AA95BA96CA97DA96E
:104CB0002AE030E08BE39AE00E9432648091C000E9
:104CC00085FFFCCF11C0EEEEF6E08491882341F021
:104CD0009091C00095FFFCCF8093C6003196F5CF30
:104CE0008091C00085FFFCCF8AE08093C600CE543F
:104CF000DE4F8881882349F1E9E0F8E08491882338
:104D000041F09091C00095FFFCCF8093C600319692
:104D1000F5CFE2EEF6E08491882341F09091C00057
:104D200095FFFCCF8093C6003196F5CF688170E087
:104D30004AE050E08BE39AE00E9403648091C00057
:104D400085FFFCCF8AE08093C600DF91CF91089564
:104D5000AF92BF92CF92DF92EF92FF920F931F9389
:104D6000CF93DF935C01EB01FB0101900020E9F799
:104D70008F0101501109061B170B6C01F8E2CF1AC5
:104D8000FEEFDF0AF60110826EE470E0CE010F94B0
:104D9000B1167C01009729F4F8013197EC0FFD1F43
:104DA0000DC060E270E00F94B116EC0121966AE24A
:104DB00070E0C7010F94B116FC0131978DE081833B
:104DC0008AE082831382BE01C5018C529E4F0E94ED
:104DD000A292F6018081882309F1E9E0F8E084914C
:104DE000882341F09091C00095FFFCCF8093C600CE
:104DF0003196F5CFECECF6E08491882341F0909168
:104E0000C00095FFFCCF8093C6003196F5CF80910E
:104E1000C00085FFFCCF8AE08093C600DF91CF9170
:104E20001F910F91FF90EF90DF90CF90BF90AF90C8
:104E300008952F923F924F925F926F927F928F923E
:104E40009F92AF92BF92CF92DF92EF92FF920F9319
:104E50001F93CF93DF93CDB7DEB7CC55D1090FB6F3
:104E6000F894DEBF0FBECDBF8C0185509E4F5C0114
:104E7000662339F0F5011082F80180AD81111EC062
:104E800015C0FC018081882309F4B3C0F801ED50FE
:104E9000FE4FC080D180E280F3800F949307C61646
:104EA000D706E806F90608F4A4C0E4CFC8010E94BA
:104EB0009521F80180AD882309F49BC0F80187A9EA
:104EC0008F9386A98F9383EC96E09F938F937E01B7
:104ED000FFE3EF0EF11CFF92EF920F9430170F904B
:104EE0000F900F900F900F900F90B12CF701019041
:104EF0000020E9F73197EE19FF09BE1684F4670127
:104F0000CB0CD11CB7FCDA94F6018081992787FD80
:104F100090950F940516F6018083B394E7CF48016E
:104F2000FDE38F0E911C40E050E0BA01C4010E94E5
:104F3000048D512CCE0101966C012CEB622E26E0E3
:104F4000722E5E0191E2A90EB11C40E050E0B60164
:104F5000C4010E944F8C1816E4F5412CF601019013
:104F60000020E9F73197EC19FD094E1674F416018B
:104F7000240C311C47FC3A94F101808190E00F949D
:104F80000516F10180834394E9CF8A858E37E9F2D3
:104F900045E050E0B701C6010F94C316892BA9F66E
:104FA000FF92EF927F926F92BF92AF920F94301761
:104FB00060E0C5010E94AF2E88EB96E00E943F2F73
:104FC0000F900F900F900F900F900F9055245394C7
:104FD000BCCF511004C08FEF9FEFF80104C0F8015F
:104FE00086A997A9019697AB86ABF801EE54FE4FC0
:104FF0001082C45ADF4F0FB6F894DEBF0FBECDBF8C
:10500000DF91CF911F910F91FF90EF90DF90CF90A4
:10501000BF90AF909F908F907F906F905F904F90D8
:105020003F902F9008950F931F93CF93DF93EC0140
:105030008C0108521E4FC8010E949E8DC8010E941B
:10504000EA8D18821982DF91CF911F910F910895F7
:10505000EF92FF920F931F93CF93DF93CDB7DEB7FD
:105060006F970FB6F894DEBF0FBECDBF8C017C01E9
:1050700088E5E80EF11CC801865A9F4FF70191831D
:105080008083EC55FE4F22E030E03183208332965E
:1050900070E07183608340E050E0BA0104960E94A2
:1050A000048DF701808191812BE1FC013496DE01B2
:1050B000159601900D922A95E1F7FC01828193816A
:1050C0009C838B8383EA94E09A838983AE014F5F4C
:1050D0005F4F64E574E0C8010E947D1FCE01019618
:1050E0000E94EC1E6F960FB6F894DEBF0FBECDBFC8
:1050F000DF91CF911F910F91FF90EF900895CF9284
:10510000DF92EF92FF920F931F93CF93DF93CDB770
:10511000DEB76F970FB6F894DEBF0FBECDBF8C0120
:105120006C0128E5C20ED11C865A9F4FF60191836F
:105130008083EC55FE4F21E030E0318320837801FD
:10514000F2E0EF1AFEEFFF0AF7011182108240E051
:1051500050E0BA0104960E94048DF601808191818D
:105160002BE1FC013496DE01159601900D922A95F3
:10517000E1F7FC01828193819C838B8383EA94E035
:105180009A838983AE014F5F5F4F64E574E0C80185
:105190000E947D1FCE0101960E94EC1EF7018081C6
:1051A00091816F960FB6F894DEBF0FBECDBFDF9131
:1051B000CF911F910F91FF90EF90DF90CF900895C6
:1051C0004F925F926F927F928F929F92AF92BF9217
:1051D000CF92DF92EF92FF920F931F93CF93DF93C3
:1051E000CDB7DEB76F970FB6F894DEBF0FBECDBF59
:1051F0008C017B01CE0101960E94E21EF801EF595D
:10520000FF4F80816801811104C089E3C80ED11C61
:1052100003C09AE5C90ED11C21E0A701B6016C5F5D
:105220007F4FCE0105960E94F38F81112DC0E3E0E0
:10523000F8E08491882341F09091C00095FFFCCF65
:105240008093C6003196F5CFE2EAF6E08491882398
:1052500041F09091C00095FFFCCF8093C60031963D
:10526000F5CFF7018191882339F09091C00095FF27
:10527000FCCF8093C600F6CF8091C00085FFFCCFA5
:105280008AE08093C6003BC0F801E155FE4F808163
:105290008A3068F58F5F8083A82EB12C38019FE19A
:1052A000899F600C711C1124E12CF12C412C512C94
:1052B00043018AE5880E911C99E7690E711CA414BC
:1052C000B50479F0B4016E0D7F1DC3018E0D9F1DD5
:1052D0000E9485218FEF481A580A9FE1E91AF108C8
:1052E000EECFB601C80187589F4F0E948521BE01AD
:1052F0006F5F7F4FC801865A9F4F0E948521CE0164
:1053000001960E94EC1E6F960FB6F894DEBF0FBE9A
:10531000CDBFDF91CF911F910F91FF90EF90DF9064
:10532000CF90BF90AF909F908F907F906F905F9045
:105330004F900895EF92FF920F931F93CF93DF93B7
:10534000EC018C0101551E4FF8018081882359F131
:1053500081508083BE0167587F4FCE01865A9F4F90
:105360000E948521F12C3FE1E32EF8018081F8169F
:10537000D0F42F2D30E0C9010196E89EB001E99EDE
:10538000700D112467587F4F6C0F7D1FE29EC00186
:10539000E39E900D112487589F4F8C0F9D1F0E94F4
:1053A0008521F394E2CFDF91CF911F910F91FF9070
:1053B000EF900895CF93DF93EC010E947F9E0E94AF
:1053C000F19ECE0188529E4F0E94EA8D1A821B8266
:1053D00086E996E0DF91CF910C943F2FFC01249158
:1053E000222341F03091C00035FFFCCF2093C6004E
:1053F0000196F4CF2AE030E08BE39AE00C9432641B
:105400008091940590919505181619069CF4809149
:10541000980590919905019667E070E00F942A1025
:10542000909397058093960581E090E09093950581
:10543000809394050895FF920F931F93CF93DF936A
:105440008BE39AE00E941663809393052091910567
:10545000309192058A3061F08D3051F08A3321F419
:1054600090919005992321F02B3331050CF45BC109
:105470002115310519F41092900534C280919605DA
:10548000909197054CE3F42EF89E8001F99E100D43
:105490001124F801E20FF31FEF55FA4F108220910B
:1054A000900521113BC110929005FC01E656FA4F80
:1054B0001082E801CF55DA4F6EE470E0CE010F9410
:1054C000B1160097E9F190936207809361078C1BF6
:1054D0009D0B800F911F4AE050E060E070E08E5518
:1054E0009A4F0F94A2146093B5077093B6078093F8
:1054F000B7079093B8070091B1071091B2072091B8
:10550000B3073091B4070F5F1F4F2F4F3F4FC0912C
:105510009605D0919705601771078207930709F4E4
:1055200022C1FC9EC001FD9E900D11246BE579E027
:105530008F559A4F0F946F16892B09F014C1A5C18E
:105540006AE270E0CE010F94B116892B09F440C0D5
:10555000E4E8F9E08491882341F09091C00095FF40
:10556000FCCF8093C6003196F5CFE5EBF8E084914F
:10557000882341F09091C00095FFFCCF8093C60036
:105580003196F5CF4091B1075091B2076091B307C2
:105590007091B4072AE030E08BE39AE00E94D36375
:1055A0008091C00085FFFCCF8AE08093C600B6C022
:1055B0008091B5079091B607A091B707B091B80751
:1055C0008093B1079093B207A093B307B093B40749
:1055D00080919605909197052CE3289FE001299FE3
:1055E000D00D11248E010F551A4F67E470E0C801E9
:1055F0000F94B116009709F44AC090936207809304
:105600006107801B910B8C0F9D1F60E070E08E5531
:105610009A4F0F9431130F94DE0C64307105B8F576
:105620008091ED07811119C08091390881112FC037
:10563000E2EBF8E08491882341F09091C00095FF5F
:10564000FCCF8093C6003196F5CF8091C00085FFD6
:10565000FCCF8AE08093C6001AC0ECE3F8E08491A6
:10566000882341F09091C00095FFFCCF8093C60045
:105670003196F5CF8091C00085FFFCCF8AE0809302
:10568000C60083EF92E00E94DF650E94CAC8809145
:105690009605909197052CE3289FE001299FD00D56
:1056A00011248E010F551A4F6DE470E0C8010F945C
:1056B000B1169093620780936107801B910B8C0F4A
:1056C0009D1F4AE050E060E070E08E559A4F0F94C5
:1056D000A214693671058105910551F00F94930765
:1056E00060935D1A70935E1A80935F1A9093601AAC
:1056F0008091960590919705019667E070E00F9470
:105700002A10909397058093960580919405909127
:1057100095050196909395058093940510929205B6
:1057200010929105DFC08B3319F491E090939005AE
:10573000909190059111D6C0409196055091970592
:10574000B9016F5F7F4F70939205609391059CE361
:10575000949FF001959FF00D1124E20FF31FEF5578
:10576000FA4F8083BFC08CE38C9F80018D9F100D0A
:105770001124E801CF55DA4F6AE270E0CE010F94B0
:10578000B116009791F5E4E8F9E08491882341F09F
:105790009091C00095FFFCCF8093C6003196F5CF65
:1057A000EFEDF8E08491882341F09091C00095FFDF
:1057B000FCCF8093C6003196F5CF4091B107509150
:1057C000B2076091B3077091B4072AE030E08BE331
:1057D0009AE00E94D3638091C00085FFFCCF8AE0ED
:1057E0008093C6000E940C6099CF20E0F12CF80154
:1057F000E20FF11DEF55FA4F30813A3219F02F5F69
:10580000F326F5CF90936207809361078C1B9D0B65
:10581000800F911F60E070E08E559A4F0F94311306
:105820000F94DE0C2F2D30E02617370709F4C0CE79
:10583000E4E8F9E08491882341F09091C00095FF5D
:10584000FCCF8093C6003196F5CFE9E0F9E0849172
:10585000882341F09091C00095FFFCCF8093C60053
:105860003196F5CF4091B1075091B2076091B307DF
:105870007091B4072AE030E08BE39AE00E94D36392
:105880008091C00085FFFCCFAACFE4E8F9E08491C5
:10589000882341F09091C00095FFFCCF8093C60013
:1058A0003196F5CFE8E2F9E08491882341F09091B8
:1058B000C00095FFFCCF8093C6003196F5CF409194
:1058C000B1075091B2076091B3077091B4072AE015
:1058D00030E08BE39AE00E94D3638091C00085FFA3
:1058E000FCCF7DCFDF91CF911F910F91FF90089555
:1058F0000F931F93CF93DF93CDB7DEB764970FB6A7
:10590000F894DEBF0FBECDBFFE01319684E1DF010A
:105910001D928A95E9F78091190A90911A0AA0912F
:105920001B0AB0911C0A8093300A9093310AA0930D
:10593000320AB093330A81E19AE00E94388C2091B8
:10594000EB09222309F444C080913D08811109C06C
:1059500089E398E00E9477221092920510929105B7
:10596000F8C01092EB0910929205109291054091A7
:105970008C0550918D0560918E0570918F058091F9
:105980006B0890916C08A0916D08B0916E089250D0
:10599000A109B10984179507A607B70718F4109253
:1059A0003B08D7C04093300A5093310A6093320AC3
:1059B0007093330A81E19AE064960FB6F894DEBFE3
:1059C0000FBECDBFDF91CF911F910F910C94048D2D
:1059D000482F809393058A30A1F08D3091F08A335F
:1059E00021F420919005222361F0209191053091BE
:1059F00092052B3331052CF48F3FBFEF9B0709F045
:105A000085C00091300A1091310A2091320A3091FC
:105A1000330A40916B0850916C0860916D08709149
:105A20006E08041715072607370708F08FC0019680
:105A300029F58CC09091C00095FFFCCF8093C600E3
:105A4000319684918111F6CF8091C00085FFFCCF03
:105A50008AE08093C6000F9493076093F3077093D6
:105A6000F4078093F5079093F60789E398E00E9486
:105A7000DA2961E089E398E00E94192720919105D5
:105A8000309192052115310519F41092900561C0ED
:105A900080919605909197054CE3489FF001499FAE
:105AA000F00D1124E20FF31FEF55FA4F1082FC01A5
:105AB000E656FA4F21E02083209194053091950518
:105AC0002F5F3F4F3093950520939405019667E033
:105AD00070E00F942A10909397058093960510928A
