:100000000C94EA190C94171A0C94171A0C94171ADA
:100010000C94171A0C94171A0C94171A0C94171A9C
:100020000C94171A0C94171A0C94171A0C94171A8C
:100030000C94171A0C94171A0C94171A0C94171A7C
:100040000C94171A0C946F8E0C94171A0C94171AA0
:100050000C94171A0C94171A0C9449970C945DF190
:100060000C94171A0C9497380C94171A0C94171AAE
:100070000C94171A0C94171A0C94171A0C94171A3C
:100080000C94171A0C94171A0C94171A0C94171A2C
:100090000C94171A0C94171A0C94171A0C9498AA0B
:1000A0000C94171A0C94171A0C94171A0C94171A0C
:1000B0000C94171A0C94171A0C94171A0C94171AFC
:1000C0000C94171A0C94171A0C94171A0C94171AEC
:1000D0000C94171A0C94171A0C94171A0C94171ADC
:1000E0000C94171A084AD73B3BCE016E84BCBFFD67
:1000F000C12F3D6C74319ABD56833DDA3D00C77FF8
:1001000011BED9E4BB4C3E916BAAAABE0000008090
:100110003F05A84CCDB2D44EB93836A9020C50B91F
:10012000918688083CA6AAAA2ABE000000803F4DFE
:10013000383420582059205A2045006563686F3AAA
:100140000043616E6E6F7420656E74657220737506
:10015000626469723A20004D3234004D32332025FA
:1001600073006175746F25692E67004572726F7236
:100170003A006572726F722077726974696E6720D7
:10018000746F2066696C65004361726420657272E9
:100190006F723A004E6F74205344207072696E740F
:1001A000696E67002F005344207072696E74696E27
:1001B00067206279746520002E0044656C6574695F
:1001C0006F6E206661696C65642C2046696C653AC7
:1001D000200046696C652064656C657465643A004E
:1001E0002E006F70656E206661696C65642C204618
:1001F000696C653A200057726974696E6720746F84
:100200002066696C653A20002E006F70656E20666E
:1002100061696C65642C2046696C653A20002E008B
:100220006F70656E206661696C65642C2046696C30
:10023000653A200046696C652073656C656374657A
:1002400064002053697A653A200046696C65206F26
:1002500070656E65643A20002E006F70656E2066D2
:1002600061696C65642C2046696C653A20005344D2
:100270002063617264206F6B006F70656E526F6FE8
:1002800074206661696C656400766F6C756D652EAF
:10029000696E6974206661696C6564005344206905
:1002A0006E6974206661696C006563686F3A004826
:1002B000617264636F6465642044656661756C7423
:1002C0002053657474696E6773204C6F6164656454
:1002D0000053746F7265642073657474696E67731C
:1002E0002072657472696576656400204400204957
:1002F000002020204D3330312050005049442073DD
:10030000657474696E67733A00205A0020590020A2
:10031000204D323036205800486F6D65206F66667C
:1003200073657420286D6D293A00204500205A001D
:1003300020580020420020540020204D323035202B
:100340005300416476616E63656420766172696111
:10035000626C65733A20533D4D696E206665656435
:100360007261746520286D6D2F73292C20543D4DCA
:10037000696E2074726176656C2066656564726171
:10038000746520286D6D2F73292C20423D6D696E98
:10039000696D756D207365676D656E742074696D28
:1003A0006520286D73292C20583D6D6178696D7525
:1003B0006D205859206A65726B20286D6D2F732946
:1003C0002C20205A3D6D6178696D756D205A206A28
:1003D00065726B20286D6D2F73292C2020453D6D93
:1003E0006178696D756D2045206A65726B20286D96
:1003F0006D2F73290020540020204D3230342053BB
:1004000000416363656C65726174696F6E3A205375
:100410003D616363656C65726174696F6E2C205415
:100420003D7265747261637420616363656C6572AB
:100430006174696F6E00204500205A002059002029
:10044000204D3230312058004D6178696D756D2036
:10045000416363656C65726174696F6E20286D6DB0
:100460002F7332293A00204500205A0020590020DD
:10047000204D3230332058004D6178696D756D2004
:1004800066656564726174657320286D6D2F7329CC
:100490003A00204500205A0020590020204D3932D2
:1004A00020580053746570732070657220756E69F2
:1004B000743A0053657474696E67732053746F7275
:1004C0006564006563686F3A004572726F723A0046
:1004D0005072696E7465722073746F7070656420F9
:1004E00064756520746F206572726F72732E20467A
:1004F000697820746865206572726F7220616E641D
:1005000020757365204D39393920746F20726573F9
:10051000746172742E202854656D706572617475F3
:1005200072652069732072657365742E205365743B
:1005300020697420616674657220726573746172DB
:1005400074696E6729005072696E74657220686103
:100550006C7465642E206B696C6C28292063616C57
:100560006C656421006F6B00526573656E643A20A0
:10057000002200556E6B6E6F776E20636F6D6D613C
:100580006E643A20220020423A300020423A310084
:100590006F6B20523A002200556E6B6E6F776E20A3
:1005A000636F6D6D616E643A2022007A5F6D6178D1
:1005B0003A2000795F6D61783A2000785F6D696E4E
:1005C0003A20005A3A00593A0020436F756E742061
:1005D000583A2000453A005A3A00593A00583A0031
:1005E0004649524D574152455F4E414D453A4D6146
:1005F000726C696E2056313B20537072696E74655F
:10060000722F6772626C206D617368757020666FFF
:10061000722067656E36204649524D574152455FFC
:1006200055524C3A687474703A2F2F6669726D7720
:100630006172652E756C74696D616B65722E636F86
:100640006D2050524F544F434F4C5F5645525349C3
:100650004F4E3A312E30204D414348494E455F546C
:100660005950453A556C74696D616B6572204558F7
:100670005452554445525F434F554E543A310A0047
:1006800020423A0020453A00543A0020573A0020D0
:10069000453A00543A002042403A0020403A0020B7
:1006A0002F0020423A00202F006F6B20543A004E5A
:1006B00065656420285029696E202320616E6420BE
:1006C000285329746174757320746F2073657420C6
:1006D00070696E210020746F20005365742070696A
:1006E0006E20230043616E6E6F74206368616E67D5
:1006F000652070696E2076616C75652C2074686168
:10070000742070696E20697320696D706F727461F6
:100710006E7421002569206D696E2C202569207377
:10072000656300456E642066696C65206C6973744E
:1007300000426567696E2066696C65206C69737438
:1007400000434C49434B20544F20434F4E54494E95
:10075000554521002073656300574149543A2000F4
:10076000554E535550504F5254454420434F4D4DD4
:10077000414E443A204D002073656300574149546F
:100780003A200000000000000066430000664300BD
:1007900000000000000000000000000000664300B0
:1007A00000664300006643000066430000664300A5
:1007B0000066430000E0400000E0400000E040FF31
:1007C0000101256920686F757273202569206D69A4
:1007D0006E7574657300446F6E65207072696E7417
:1007E000696E672066696C65005072696E74657227
:1007F0002073746F707065642064756520746F2059
:100800006572726F72732E20466978207468652055
:100810006572726F7220616E6420757365204D3948
:10082000393920746F20726573746172742E2028B8
:1008300054656D706572617475726520697320729C
:10084000657365742E205365742069742061667425
:1008500065722072657374617274696E6729006FC6
:100860006B004E6F204C696E65204E756D6265722F
:10087000207769746820636865636B73756D2C20DD
:100880004C617374204C696E653A20004E6F2043B2
:100890006865636B73756D2077697468206C696E29
:1008A00065206E756D6265722C204C617374204CEE
:1008B000696E653A2000636865636B73756D206DC2
:1008C00069736D617463682C204C617374204C698A
:1008D0006E653A20004C696E65204E756D626572DA
:1008E000206973206E6F74204C617374204C696EA4
:1008F00065204E756D6265722B312C204C617374CE
:10090000204C696E653A20004D31313000446F6EE5
:100910006520736176696E672066696C652E006F6D
:100920006B004D3239002020506C616E6E65724252
:10093000756666657242797465733A200020467266
:100940006565204D656D6F72793A20004A756E209D
:100950002039203230313400436F6D70696C65642A
:100960003A200056657273696F6E2031342E30362E
:100970002E315F4500207C20417574686F723A20EB
:10098000004A756E20203920323031342032303A1E
:1009900030363A343500204C6173742055706461F0
:1009A0007465643A2000312E302E30004D61726C37
:1009B000696E200020536F667477617265205265FE
:1009C00073657400205761746368646F67205265B3
:1009D000736574002042726F776E206F75742052B9
:1009E00065736574002045787465726E616C205281
:1009F0006573657400506F7765725570007374612C
:100A00007274002200656E717565696E6720220040
:100A100077616974696E6720746F20656E717565A2
:100A2000002200656E717565696E6720220077612E
:100A30006974696E6720746F20656E7175650065F5
:100A400063686F3A0020746F6F206C6F6E6720656B
:100A50007874727573696F6E2070726576656E74E6
:100A600065640020636F6C642065787472757369C7
:100A70006F6E2070726576656E746564000000218B
:100A800010422063308440A550C660E77008812979
:100A9000914AA16BB18CC1ADD1CEE1EFF131121011
:100AA0000273325222B5529442F772D662399318C9
:100AB000837BB35AA3BDD39CC3FFF3DEE36224431D
:100AC0003420040114E664C774A44485546AA54B19
:100AD000B528850995EEE5CFF5ACC58DD5533672B1
:100AE0002611163006D776F6669556B4465BB77A69
:100AF000A719973887DFF7FEE79DD7BCC7C448E53D
:100B0000588668A7784008611802282338CCC9EDB8
:100B1000D98EE9AFF9488969990AA92BB9F55AD450
:100B20004AB77A966A711A500A333A122AFDDBDC08
:100B3000CBBFFB9EEB799B588B3BBB1AABA66C875C
:100B40007CE44CC55C222C033C600C411CAEED8F58
:100B5000FDECCDCDDD2AAD0BBD688D499D977EB6F0
:100B60006ED55EF44E133E322E511E700E9FFFBEA8
:100B7000EFDDDFFCCF1BBF3AAF599F788F8891A97B
:100B800081CAB1EBA10CD12DC14EF16FE18010A152
:100B900000C230E3200450254046706760B9839856
:100BA00093FBA3DAB33DC31CD37FE35EF3B10290A2
:100BB00012F322D2323542145277625672EAB5CB22
:100BC000A5A89589856EF54FE52CD50DC5E234C3F2
:100BD00024A01481046674476424540544DBA7FAF6
:100BE000B79987B8975FE77EF71DC73CD7D326F242
:100BF000369106B01657667676154634564CD96D42
:100C0000C90EF92FE9C899E9898AB9ABA944586591
:100C10004806782768C018E1088238A3287DCB5C95
:100C2000DB3FEB1EFBF98BD89BBBAB9ABB754A54E1
:100C30005A376A167AF10AD01AB32A923A2EFD0F61
:100C4000ED6CDD4DCDAABD8BADE89DC98D267C0731
:100C50006C645C454CA23C832CE01CC10C1FEF3E35
:100C6000FF5DCF7CDF9BAFBABFD98FF89F176E3681
:100C70007E554E745E932EB23ED10EF01E7C3C3EED
:100C80005E2B3D3F2F5B5D3B2C2A225C0045313AB9
:100C9000200045303A20005A3A2000593A200058A6
:100CA0003A20004D53312C4D53322050696E730A57
:100CB0000024F404D9201BC40C5C0E9804C4095F02
:100CC0000265077101F405F900FB04B300480487CD
:100CD00000C10369005803550003034500BE023AF2
:100CE000008402310053022A002902250004022058
:100CF00000E4011C00C8011900AF0117009801149D
:100D00000084011300710110006101100051010EF7
:100D10000043010D0036010B002B010B0020010BDD
:100D200000150109000C01090003010800FB00087F
:100D300000F3000800EB000700E4000600DE0006F8
:100D400000D8000600D2000600CC000500C7000550
:100D500000C2000500BD000400B9000400B5000495
:100D600000B1000400AD000400A9000400A50003C8
:100D700000A20003009F0004009B000300980003F2
:100D8000009500020093000300900003008D000214
:100D9000008B00030088000200860002008400032C
:100DA00000810002007F0002007D0002007B000243
:100DB0000079000200770001007600020074000252
:100DC0000072000100710002006F0002006D00015E
:100DD000006C0002006A0001006900020067000167
:100DE000006600010065000100640002006200016D
:100DF0000061000100600001005F0002005D000171
:100E0000005C0001005B0001005A00010059000174
:100E10000058000100570001005600010055000174
:100E20000054000100530000005300010052000173
:100E30000051000100500001004F0001004E000071
:100E4000004E0001004D0001004C0001004B00006D
:100E5000004B0001004A0001004900010048000069
:100E60000048000100470001004600000046000164
:100E7000004500000045000100440001004300005F
:100E80000043000100420000004200010041000058
:100E90000041000100400001003F0000003F000150
:100EA000003E0000003E0001003D0000003D00014A
:100EB000003C0000003C0000003C0001003B000042
:100EC000003B0001003A0000003A00010039000038
:100ED000003900010038000000380000003800012F
:100EE0000037000000370001003600000036000027
:100EF000003600010035000000350000003500011B
:100F00000034000000340000003400010033000011
:100F10000033000000330001003200000032000006
:100F200000320001003100000031000000310001FA
:100F3000003000000030000000300001002F0000F1
:100F4000002F0000002F0000002F0001002E0000E5
:100F5000002E0000002E0001002D0000002D0000DA
:100F6000002D0000002D0001002C0000002C0000CE
:100F7000002C0000002C0001002B0000002B0000C2
:100F8000002B0000002B0001002A0000002A0000B6
:100F9000002A0000002A00010029000000290000AA
:100FA000002900000029000000290001002800009D
:100FB0000028000000280000002800000028000190
:100FC0000027000000270000002700000027000085
:100FD0000027000100260000002600000026000077
:100FE000002600000026000100250000002500006A
:100FF000002500000025000000250000002500015C
:101000000024000000240000002400000024000050
:101010000024000100230000002300000023000042
:101020000023000000230000002300000023000133
:101030000022000000220000002200000022000028
:101040000022000000220001002100000021000019
:10105000002100000021000000210000002100000C
:1010600000210001002000000020000000200000FE
:1010700000200000002000000020000000200000F0
:1010800000200001001F0000001F0000001F0000E2
:10109000001F0000001F0000001F0000001F0001D3
:1010A000001E0000001E0000001E0000001E0000C8
:1010B0000024F4D43050C38E20C2A24017828B701B
:1010C00011127A910D816CD90AA861E108C758669E
:1010D00007615143061E4B5D05C145A7041A411126
:1010E00004093D9803713931034036DB02653391C1
:1010F00002D4305402802E1D02632CEE01752AC5E5
:1011000001B028A001102781018F2564012B244BF9
:1011100001E0223401AC211F018D200D01801FFC54
:1011200000841EED00971DDF00B81CD200E61BC630
:1011300000201BBC00641AB200B219A8000A19A052
:10114000006A189900D117910040178B00B51684DA
:101150000031167E00B31579003A157300C7146F7D
:101160000058146A00EE1366008813630025135EAE
:1011700000C7125B006C12570015125400C11151C8
:101180000070114F0021114B00D61049008D1047FF
:10119000004610440002104200C00F4000800F3E85
:1011A00000420F3C00060F3B00CB0E3800930E3779
:1011B000005C0E3500270E3400F30D3200C10D31F6
:1011C00000900D3000600D2E00320D2D00050D2C0D
:1011D00000D90C2B00AE0C2900850C29005C0C27D3
:1011E00000350C27000E0C2600E80B2400C40B244D
:1011F00000A00B23007D0B23005A0B2100390B218B
:1012000000180B2000F80A1F00D90A1E00BB0A1E96
:10121000009D0A1D00800A1D00630A1C00470A1B6E
:10122000002C0A1B00110A1A00F7091A00DD09191F
:1012300000C4091900AB091900920917007B0918AD
:1012400000630917004C091600360916002009161C
:10125000000A091500F5081500E0081400CC081470
:1012600000B8081400A4081400900813007D0812A8
:10127000006B0813005808120046081200340811C9
:1012800000230811001208110001081100F00710D6
:1012900000E0071000D0071000C0071000B0070FD3
:1012A00000A107100091070E0083070F0074070FBD
:1012B0000065070E0057070E0049070E003B070D9B
:1012C000002E070E0020070D0013070D0006070D66
:1012D00000F9060C00ED060D00E0060C00D4060C2B
:1012E00000C8060C00BC060C00B0060C00A4060BDF
:1012F0000099060C008D060B0082060B0077060B8A
:10130000006C060B0061060A0057060B004C060A2B
:101310000042060A0038060A002E060A0024060AC1
:10132000001A060A001006090007060A00FD050952
:1013300000F4050900EB050900E2050900D90509DB
:1013400000D0050900C7050900BE050900B505085C
:1013500000AD050800A50509009C050800940508D6
:10136000008C050800840508007C05080074050849
:10137000006C050700650508005D050700560508B7
:10138000004E05070047050700400508003805071F
:1013900000310507002A050700230507001C050684
:1013A00000160507000F05070008050600020507DF
:1013B00000FB040600F5040700EE040600E804063E
:1013C00000E2040700DB040600D5040600CF040693
:1013D00000C9040600C3040600BD040600B70406E5
:1013E00000B1040500AC040600A6040600A0040534
:1013F000009B04060095040500900406008A04057D
:101400000085040500800406007A040500750405C3
:1014100000700405006B0405006604050061040506
:10142000005C04050057040500520405004D040546
:101430000048040500430405003E0404003A040586
:101440000035040500300404002C040500270404C2
:1014500000230405001E0404001A040400160405F9
:1014600000110404000D0404000904050004040430
:101470000000040400FC030400F8030400F4030467
:1014800000F0030400EC030400E8030400E4030498
:1014900000E0030400DC030400D8030400D40304C8
:1014A00000D0030400CC030400C8030300C50303F9
:1014B000006563686F3A00205A3A0020593A0020CC
:1014C000583A00656E6473746F7073206869743A7B
:1014D00020004572726F723A0054656D70657261DA
:1014E0007475726520686561746564206265642046
:1014F0007377697463686564206F66662E204D415A
:101500005854454D50207472696767657265642050
:101510002121003A204578747275646572207377D2
:10152000697463686564206F66662E204D494E5469
:10153000454D5020747269676765726564202100AB
:101540003A204578747275646572207377697463A4
:10155000686564206F66662E204D415854454D5095
:1015600020747269676765726564202100202D20F0
:10157000496E76616C696420657874727564657211
:10158000206E756D62657220210000000000300E33
:101590000100C00E0A00500F1400D00F1E00601092
:1015A0002800E010320070113C00F011460070126B
:1015B000500000135A008013640000146E00901451
:1015C00078001015820090158C0010169600901669
:1015D000A0001017AA009017B4001018BE009018B1
:1015E000C8001019D2009019DC00101AE600801A09
:1015F000F000001BFA00801B0401F01B0E01701CA0
:101600001801F01C2201601D2C01E01D3601501E46
:101610004001D01E4A01401F5401B01F5E0130201E
:101620006801A020720110217C0190218601002216
:1016300090016026F401902A5802802EBC0250329C
:101640002003E03584035039E803803C4C045049C2
:1016500044204175746F74756E652066696E697398
:10166000686564212050757420746865204B702C67
:10167000204B6920616E64204B6420636F6E73742D
:10168000616E747320696E746F20436F6E66696754
:1016900075726174696F6E2E6800504944204175FF
:1016A000746F74756E65206661696C656421207461
:1016B000696D656F75740020403A006F6B20543A75
:1016C000006F6B20423A00504944204175746F749A
:1016D000756E65206661696C6564212054656D7066
:1016E0006572617475726520746F6F2068696768D0
:1016F00000204B643A2000204B693A2000204B70B8
:101700003A200020436C61736963205049442000F3
:101710002054753A2000204B753A2000206D6178E6
:101720003A2000206D696E3A200020643A200020A3
:10173000626961733A20006563686F3A004C434404
:101740003A20004C43443A20004D41494E54454E06
:10175000414E4345004D4154455249414C00505281
:10176000494E54005072696E74696E6720776974CF
:1017700068205553422E2E2E00737570706F727450
:1017800040756C74696D616B65722E636F6D00439B
:101790006F6E746163743A00536166657479206397
:1017A0006972637569740054656D702073656E733A
:1017B0006F72204245440054656D702073656E73EE
:1017C0006F72004552524F52202D2053544F5050AB
:1017D000454400801506060606FEFEFEFEFC0000DF
:1017E0000000000000FCFEFEFEFC0000000EFEFEFD
:1017F000FEFE0000E0FCFEFEFCE0E0000000CECEBD
:10180000CE000000C0C0C0C0C0C08000000000000A
:101810000080C0C0800000000000008080C0C0C008
:10182000C0C0C0C080800000000006FEFEFEFE00BA
:1018300000000080C0C0C00000000000008080C028
:10184000C0C080808000000000C0C0C0C00080C058
:10185000C0C0C08000000000007FFFFFFFFF8000CD
:101860000000000080FFFFFFFFFF00000000FFFFFF
:10187000FFFF000000FFFFFFFF0000000000FFFF70
:10188000FF00000081F1FFFF3F0F3FFFFCF0F0FC85
:10189000FF3F0F3FFFFEF880000000C1E1F1F17152
:1018A00031010183FFFFFFFC000000FFFFFFFF008D
:1018B0000C3EFFFFF7C301000000FCFEFF87031191
:1018C0003131333F3F3F1E000001FFFFFFFF0703A1
:1018D00001010101000000000000010307070F0FD4
:1018E0000F0F0F0F0F0707070F0F06000000070F5E
:1018F0000F07000000070F0F0700000000000F0F88
:101900000F0000060F0F070100000001070F0F076F
:101910000100000001070F0F06000003070F0F0E64
:101920000E060703070F0F07000000070F0F070041
:10193000000000030F0F0F060000000307070F0E43
:101940000E0E0E0E0E06000000000F0F0F0F00000F
:1019500000000000008015090909F90101010103D7
:10196000FE0000000000FE0301010103FE001FF164
:1019700001010101FFF01E030101031E10F000FF31
:10198000313131FF00E020202020202060C0800085
:101990000080C060202060C000000000C0406020C7
:1019A0002020202020206040C080000FF90101018C
:1019B00001FF0080C060202020E000000080C040C7
:1019C00060202020604040C08000E020202020E0F7
:1019D000602020202060C0000000FF800000000088
:1019E0007FC0808080C07F0000000000FF0000FFFB
:1019F00000000000FF01FF00000000FF010100FFE8
:101A0000000000FF00C37A0E0000C070C000030E8B
:101A10000E0300C070C00001077CC000E3321A0A48
:101A20000A8ACAFAC67C00000003FE00FF0000001C
:101A300000FF73C10000083CE68300FE030100784C
:101A4000FCEE4A4E4C404040613F03FE0000000067
:101A5000F80C06020202030000000003060C08183E
:101A6000101010101010101808181010190F000F77
:101A7000181010180F000F181010180F0000001F7A
:101A80001010101F0F191010180E0300030E18105D
:101A900010180E0300030E181010190F070C181061
:101AA00010111119080C181010180F000F18101031
:101AB000180F0001071C101010190F01070C08184F
:101AC00010111111111111190F00001F1010101019
:101AD0001F0000000000002F400000000000000078
:101AE0000000000000808080C0E0FEFF191E989872
:101AF000981818181818189E9F991E38F0E00000C2
:101B000000000000000000000000000000000000D5
:101B1000003CFEFFFF99F1E1C3FFFF000063636338
:101B20006060606060606363630000FFFF7C38009A
:101B30000000000000000000000080C060B0D8D8A5
:101B40001CFCFF3F0F8FCFC7C7C7C6C6C6C6C6C6D9
:101B5000C6C6C6C6C6C6C6C6C6C6C7C7C4CC0C1C83
:101B6000F8F870C00000000EFFF92A2B2B2828FC83
:101B7000FFFF0000FFFFFFFFFFFFFFBFB717B5BD6F
:101B8000B500B5B5F717FFBFBFFFFFFFFF0000FFB0
:101B9000FFFCFF0700C0F0FFFFFDDD1D19193FFF2F
:101BA000FF0000FFFFFFFFFFFFFFFBF1FBFBEAEE83
:101BB000C0EEEAFAF0FAFAFFFFFFFFFF0000FFFFB6
:101BC0000F1FF8E00003070F0F1B1819FBFEFFFFA4
:101BD000F0E0C0C1E1F1F1F1F1F1F1F1F1F1F1F178
:101BE000F9F9F9F9F9F9797979F1F010181F07067F
:101BF00003030000000000000000F8FFEFDFBF7FDC
:101C0000FFFFFF404143437F212020217FFFFFFF53
:101C10003FB091D1DFD050581F1FF0F000000000FE
:101C2000000000000000000003070F1E3D7B77EE60
:101C3000D1DEDECF4B4B6969686868603F3F37375C
:101C400037353430101018181A1B0F06000000002A
:101C500000100FFC0E0FCFCFCFCECCCCCCCCCCCC49
:101C6000DCC0C007707E7F7F7F7F7F7F7F7F7F7F2D
:101C70007F0F017120FFFFFFFFFFFFFFFFFFFFFC52
:101C8000E000000000000000000000E0FCFFFFFF9B
:101C9000FFFFFFFFFFFFFF0000000000000000004B
:101CA0000000000000000000000000000000000034
:101CB00000FFFFFFFFFFFFFF00000000000000002B
:101CC0000000000000000000000000000000000014
:101CD0000000000000000000000000000000000004
:101CE000000000000000FFFFFFFFFFFFFF7FFFFF7E
:101CF000FFFFFFF8800000000080F0FFFFFFFFFF04
:101D00003FFFFFFFFFFFFFFF00000030F8F8FCFC83
:101D10007E7E7E3E3E3E3E7E7EFEFEFCFCF8E08009
:101D20000000FFFFFFFFFFFFFF000080C0E0F0F8B2
:101D3000FCFEFE7E3E1E0E06C0E0F0F8FCFCFE7EC1
:101D40003E3E3E3E3E7EFEFCFCF8F0C0800000FEC3
:101D5000FEFEFEFEFEFEFEFFFFFFFFFFFFFF000395
:101D60001FFFFFFFFFFFFCE0E0FCFFFFFFFFFF1F87
:101D70000100FFFFFFFFFFFFFF0000C0E0F0F0F8F1
:101D8000F8FC7C7C3C3C3E1E1E1EFFFFFFFFFFFF5D
:101D9000FF0000FFFFFFFFFFFFFFFEFFFFFFFFFF52
:101DA000FFFFF1C080000000FFFFFFFFFFFFFF3CCF
:101DB0003C3C3C3C3C3C3C3C3F3F3F3F3F3F0000C9
:101DC0000000000000000000FFFFFFFFFFFFFF001A
:101DD000000000073FFFFFFFFFFFFFFFFF3F07007F
:101DE000000000FFFFFFFFFFFFFF00003F7FFFFF3E
:101DF000FFFFFCFCF8F8F87C7C3C3EFFFFFFFFFF98
:101E0000FFFF0000FFFFFFFFFFFFFF0301000003D4
:101E1000071F7FFFFFFFFEFCF0E38F1F3F3F7F7F29
:101E2000FEFCF8F8F0F0F0F8F8FCFC7E7E3C3000A8
:101E300000FEFEFEFEFEFEFEFE43414E43454C000C
:101E40002073656300206D696E0020686F757200F5
:101E500020686F7572730011150A000019151200C1
:101E600000300C43A8900205728888000000000032
:101E700000005F00000007000700147F147F142497
:101E80002A7F2A122313086462364955225000051E
:101E9000030000001C2241000041221C00082A1CF3
:101EA0002A0808083E080800503000000808080802
:101EB00008006060000020100804023E5149453EC1
:101EC00000427F400042615149462141454B311853
:101ED00014127F1027454545393C4A494930017164
:101EE0000905033649494936064949291E0036364F
:101EF0000000005636000000081422411414141487
:101F00001441221408000201510906324979413E68
:101F10007E1111117E7F494949363E414141227F60
:101F20004141221C7F494949417F090901013E4144
:101F30004151327F0808087F00417F410020404125
:101F40003F017F081422417F404040407F0204024D
:101F50007F7F0408107F3E4141413E7F0909090609
:101F60003E4151215E7F09192946464949493101BF
:101F7000017F01013F4040403F1F2040201F7F2044
:101F800018207F6314081463030478040361514923
:101F9000454300007F4141020408102041417F0079
:101FA00000040201020440404040400001020400DD
:101FB00020545454787F48444438384444442038AA
:101FC0004444487F3854545418087E0901020814C8
:101FD00054543C7F0804047800447D400020404471
:101FE0003D00007F10284400417F40007C0418041D
:101FF000787C0804047838444444387C1414140869
:10200000081414187C7C0804040848545454200410
:102010003F4440203C4040207C1C2040201C3C4051
:1020200030403C44281028440C5050503C446454E8
:102030004C44000836410000007F00000041360893
:102040000008082A1C08081C2A08086275696C64C4
:10205000706C6174652E006F662061646A757374BC
:10206000696E6720796F7572007468726F75676842
:10207000207468652070726F636573730049207700
:10208000696C6C20677569646520796F75004341E0
:102090004E43454C00434F4E54494E554500473141
:1020A00020462569205A2569205825692059256927
:1020B00000473238205A302058302059300066729C
:1020C0006F6D20746865206275696C64706C6174F2
:1020D000652E0061206D696C6C696D657465722098
:1020E0006177617900756E74696C20746865206E23
:1020F0006F7A7A6C6520697300526F746174652021
:1021000074686520627574746F6E00342F3231000C
:10211000434F4E54494E554500434F4E54494E553A
:102120004500473120462569205A30004731204676
:102130002569205825692059256900473120462501
:1021400069205A350066726F6D207468652062756B
:10215000696C64706C6174652E0069732061206D18
:10216000696C6C696D657465722061776179007363
:10217000637265772074696C6C20746865206E6F7B
:102180007A7A6C65005475726E206C656674206294
:1021900075696C64706C61746500352F3231004371
:1021A0004F4E54494E554500473120462569205A27
:1021B0003000473120462569205825692059256976
:1021C00000473120462569205A350066726F6D2020
:1021D000746865206275696C64706C6174652E004A
:1021E00069732061206D696C6C696D65746572201E
:1021F000617761790073637265772074696C6C2014
:10220000746865206E6F7A7A6C65005475726E2002
:102210007269676874206275696C64706C6174655A
:1022200000362F323100434F4E54494E554500740D
:102230006865206275696C64706C617465206C659A
:1022400076656C2E00706170657220746F2066690F
:102250006E652D74756E65006E6F772075736520E1
:1022600061207368656574206F66005265706561F2
:1022700074207468697320737465702C206275749F
:1022800000372F323100434F4E54494E55450047D9
:102290003120462569205A300047312046256920E3
:1022A0005825692059256900473120462569205A5B
:1022B000350062697420726573697374616E636559
:1022C0002E00756E74696C20796F75206665656C7B
:1022D0002061006275696C64706C61746520616E68
:1022E00064206E6F7A7A6C6500536C696465206156
:1022F000207061706572206265747765656E003864
:102300002F323100434F4E54494E554500434F4EF6
:1023100054494E554500746865206C6566742063A9
:102320006F726E65722E2E2E00526570656174207C
:102330007468697320666F7200392F323100434F21
:102340004E54494E5545007468652072696768743B
:1023500020636F726E65722E2E2E0052657065615D
:1023600074207468697320666F720031302F3231C7
:1023700000434F4E54494E554500444F4E4500745E
:102380006F20696E73657274206D61746572696126
:102390006C2E00746865206E6578742073746570A7
:1023A00020697300746865206275696C64706C6183
:1023B0007465004E6F772074686174207765206CB7
:1023C0006576656C65640031312F323100434F4EC4
:1023D00054494E5545004D3834004731204631327E
:1023E000303030205831313020593130006D617437
:1023F000657269616C206C6F6164696E67007072F0
:10240000696E74686561642068656174696E6720CF
:10241000666F7200506C6561736520776169742C1A
:102420000031322F32310061626F76652074686549
:10243000206172726F772E00796F757220556C74FF
:10244000696D616B6572322C0066726F6D20746805
:10245000652072656172206F6600496E73657274E3
:10246000206E6577206D6174657269616C0031332F
:102470002F323100434F4E54494E5545004C6F6149
:1024800064696E67206D6174657269616C2E2E2EB1
:102490000031342F32310066726F6D206E6F7A7AA0
:1024A0006C652E2E2E006D6174657269616C2065FD
:1024B00078697473005075736820627574746F6EF8
:1024C000207768656E0031352F323100434F4E540E
:1024D000494E554500556C74696D616B6572322EBD
:1024E00000696E73657274656420696E2074686536
:1024F00020006D6174657269616C20796F75206868
:10250000617665004E6578742C2073656C65637424
:10251000207468650031362F3231005245414459EC
:102520000031372F32310041425300504C41006995
:102530007320746869732072696768743F00414250
:1025400053206173206D6174657269616C2C005950
:102550006F7520686176652063686F73656E003102
:10256000382F3231004E4F005945530069742069AD
:1025700073207573696E672E006F66206D617465D8
:102580007269616C006B6E6F77732077686174207D
:102590006B696E64004E6F7720796F757220556C91
:1025A00074696D616B6572320031392F32310043CD
:1025B0004F4E54494E5545006D616B652061203387
:1025C00044205072696E74210049276D2072656144
:1025D0006479206C657427730032302F32310041EA
:1025E000524520594F552052454144593F00746F80
:1025F000207072696E742069742100616E642070AD
:10260000726573732074686520627574746F6E00F0
:102610006F6E207468652053442D636172640053AB
:10262000656C6563742061207072696E74206669E0
:102630006C650032312F3231004C45542753205005
:1026400052494E540052656164696E67206361723D
:10265000642E2E2E0032312F323100796F757220A8
:10266000556C74696D616B6572322E2E2E00746824
:1026700061742063616D65207769746800506C65D2
:1026800061736520696E736572742053442D6361B4
:1026900072640032312F32310069732074686973BB
:1026A0002072696768743F00504C41206173206D4F
:1026B0006174657269616C2C00596F752068617670
:1026C000652063686F73656E0031382F3231004EBC
:1026D0004F0059455300473238205A300062757414
:1026E000746F6E20746F20636F6E74696E75650011
:1026F000556C74696D616B657221205072657373DE
:10270000207468650073746172747570206F662040
:10271000796F75720057656C636F6D6520746F20FB
:1027200074686520666972737400312F323100431A
:102730004F4E54494E5545006120666972737420AE
:1027400072756E2077697A6172642E0077616C6BA6
:1027500020796F75207468726F756768006669729A
:102760007374207374617274757020492077696C7A
:102770006C004265636175736520746869732069D4
:10278000732074686500322F323100434F4E544934
:102790004E554500473120462569205A2569004796
:1027A0003238205A3000676F696E6720746F20647A
:1027B0006F2074686174206E6F772E0061646A7593
:1027C00073746D656E74732C20776520617265007B
:1027D0007765206E65656420746F20646F20736F69
:1027E0006D65004166746572207472616E73706FFE
:1027F00072746174696F6E00332F323100434F4E33
:1028000054494E554500473120462569205A2569CF
:102810002058256920592569004732382058302032
:102820005930001F007E00436C69636B20746F2079
:1028300072657475726E004275696C64706C617457
:10284000652074656D702E3A0052455455524E0005
:10285000414456414E434544004255494C442D7C29
:10286000504C415445004731205A343000473238EB
:10287000205A3000473238205A300047323820582A
:102880003020593000414456414E43454400746F56
:102890002064656661756C743F00526573657420D1
:1028A00065766572797468696E67004E4F005945A8
:1028B00053006D003A005072696E74696E673A0099
:1028C0003A004D616368696E65206F6E20666F72B5
:1028D0003A0052657475726E0056657273696F6E58
:1028E0002031342E30362E315F45004A756E20205F
:1028F0003920323031342032303A30363A353300F4
:1029000052657475726E006D6D2F73004D61782085
:102910007370656564205A006D6D2F73004D61788A
:102920002073706565642059006D6D2F73004D61D3
:10293000782073706565642058006D6D2F730058A2
:102940002F59204A65726B0030306D6D2F731D005A
:10295000416363656C65726174696F6E004D4F54BD
:10296000494F4E006D6D2F73006D6D2F73006D6DAF
:102970002F73006D6D2F73006D6D2F731D003F3F22
:102980003F004D6178207370656564205A004D6189
:10299000782073706565642059004D6178207370EC
:1029A000656564205800582F59204A65726B0041B4
:1029B0006363656C65726174696F6E003C2052459B
:1029C0005455524E006D6D2F7300526574726163E1
:1029D00074207370656564006D6D0052657472617A
:1029E0006374206C656E67746800524554524143AD
:1029F00054494F4E006D6D2F73006D6D003F3F3F8A
:102A0000005265747261637420737065656400526E
:102A1000657472616374206C656E677468003C2035
:102A200052455455524E001F007E00436C69636B43
:102A300020746F2072657475726E00526F746174C9
:102A40006520746F2065787472756465004E6F7AC6
:102A50007A6C652074656D70657261747572653A23
:102A6000001F007E00436C69636B20746F207265E9
:102A70007475726E004E6F7A7A6C652074656D7035
:102A8000657261747572653A002500427269676803
:102A9000746E657373004C45440025003F3F3F0052
:102AA00020476C6F77207768656E20646F6E6500D5
:102AB000204F6E207768696C65207072696E74694A
:102AC0006E670020416C77617973204F6666002045
:102AD000416C77617973204F6E0042726967687448
:102AE0006E657373003C2052455455524E003F3F73
:102AF0003F00466163746F7279207265736574007C
:102B000052756E74696D65207374617473005665D7
:102B10007273696F6E004D6F74696F6E20736574A8
:102B200074696E67730052657472616374696F6E65
:102B30002073657474696E6773004D6F7665206DE0
:102B40006174657269616C005261697365206275B8
:102B5000696C64706C617465004C6F77657220629B
:102B600075696C64706C61746500486F6D65206890
:102B700065616400486561747570206275696C6494
:102B8000706C61746500486561747570206E6F7A51
:102B90007A6C65004C45442073657474696E677384
:102BA000003C2052455455524E0041425300504C77
:102BB000410052455455524E0053455454494E47D6
:102BC00053004348414E4745004D41544552494109
:102BD0004C0053656C6563746564206D6174657247
:102BE00069616C3A004F4B0025004D617465726954
:102BF000616C20666C6F7700250046616E207370F3
:102C0000656564006D6D004D6174657269616C206D
:102C10004469616D657465720043004275696C6456
:102C2000706C6174652054656D702E0043005465AE
:102C30006D7065726174757265004D4154455249FD
:102C4000414C0050524553455453004E6577207017
:102C50007265736574003C2052455455524E0025F0
:102C60000025006D6D001F001F003F3F3F005374A3
:102C70006F72652061732070726573657400466CB5
:102C80006F7720250046616E004469616D6574654B
:102C90007200486561746564206275696C64706C6B
:102CA0006174650054656D7065726174757265005C
:102CB0003C2052455455524E004D6F646966792050
:102CC0007468652073657474696E677300250046C7
:102CD000616E3A20001F001F002500466C6F773A96
:102CE000006D6D00437573746F6D697A65003C20EB
:102CF00052455455524E00666F72206D6174657274
:102D000069616C2072656D6F76616C0048656174F5
:102D1000696E67207072696E74686561640047321D
:102D20003820583020593000526576657273696ECC
:102D300067206D6174657269616C0052656D6F76B4
:102D400065206D6174657269616C0043414E434555
:102D50004C005245414459004731204625692058CE
:102D600025692059256900473238205830205930CC
:102D70000061626F766520746865206172726F779A
:102D80002E00796F7572206D616368696E652C0025
:102D900066726F6D20746865206261636B7369642D
:102DA00065206F6600496E73657274206E657720CA
:102DB0006D6174657269616C0043414E43454C001E
:102DC000524541445900466F7277617264696E677B
:102DD000206D6174657269616C00636F6D6573204D
:102DE0006F757420746865206E6F7A7A6C65005711
:102DF0006169742074696C6C206D617465726961BD
:102E00006C0043414E43454C005245414459004DEE
:102E10004154455249414C00250046616E3A20001C
:102E20001F001F002500466C6F773A006D6D001F74
:102E3000007E00436C69636B20746F20726574754B
:102E4000726E004E6F7A7A6C652074656D70657273
:102E500061747572653A00534420434152440047FF
:102E60003120463132303030205835205931300051
:102E7000473238003B464C41564F523A556C7469C4
:102E800047436F6465003B464C41564F523A556C80
:102E9000746947436F6465004E6F2066696C6573A3
:102EA00020666F756E6421004F4B004F4B005265DA
:102EB0006164696E6720636172642E2E2E00506C0F
:102EC0006561736520696E736572742063617264F5
:102ED000004E6F2053442D4341524421003C204278
:102EE00041434B003C2052455455524E0066726F90
:102EF0006D2074686520736C696365722E0073655C
:102F00007474696E67207769746820736574746976
:102F10006E67006F76657272696465206D616368C3
:102F2000696E6500546869732066696C652077690D
:102F30006C6C0043414E43454C00434F4E54494E48
:102F40005545004845524520574520474F210065CB
:102F500063686F3A00434C45414E4F5554205155DC
:102F60004555454421004D3834004732380047313B
:102F70002046313530302045300047393220452554
:102F80006900515545554520434C45415245442122
:102F90000041424F5254205052494E542100436F39
:102FA00064653A0053442D63617264210072656167
:102FB00064696E67004572726F72207768696C652C
:102FC0000052455455524E20544F204D41494E0019
:102FD000596F752063616E2072656D6F7665005064
:102FE00072696E742066696E6973686564001F009B
:102FF0001F202020005072696E74657220636F6F0D
:103000006C696E6720646F776E00446F6E6520692F
:103010006E20004241434B20544F204D454E5500F9
:1030200054696D65206C6566740054696D65206C2B
:1030300065667420756E6B6E6F776E001F00486555
:103040006174696E67206275696C64706C61746527
:10305000001F0048656174696E6700746F20636FBC
:103060006E74696E75650050726573732062757455
:10307000746F6E006D6D2F73006D6D1C2F73001FCC
:103080002020007E0041424F52540054554E4500CE
:1030900041626F727420746865207072696E743F4B
:1030A000004E4F005945530025004272696768740D
:1030B0006E6573730025004D6174657269616C20E3
:1030C000666C6F7700250046616E207370656564DD
:1030D0000025005072696E74207370656564004D40
:1030E0003630312058313020593230205A30204C7F
:1030F0003330004D363031205831302059323020B5
:103100005A32204C3330004D363031205831302087
:10311000593230205A3230204C33300054554E450D
:10312000006D6D2F7300526574726163742073704B
:10313000656564006D6D0052657472616374206C26
:10314000656E6774680052455452414354494F4E6E
:10315000006D6D2F73006D6D003F3F3F0052657431
:103160007261637420737065656400526574726186
:103170006374206C656E677468003C20524554553A
:10318000524E002500250025001F001F0025004C81
:103190004544204272696768746E657373005265B6
:1031A0007472616374696F6E004D617465726961F8
:1031B0006C20666C6F770046616E20737065656485
:1031C000004275696C64706C6174652074656D7023
:1031D0002E0054656D706572617475726500537070
:1031E0006565640050617573696E672E2E2E0052FE
:1031F0006573756D650043616E206E6F742070613C
:10320000757365005061757365003C2052455455D7
:10321000524E001F001F0048656174696E6720757B
:10322000702E2E2E0041424F52540054554E4500F0
:103230004E6F20696E666F20617661696C61626CA9
:1032400065006D006D004D6174657269616C3A20B6
:103250000054696D653A20003B4D41544552494147
:103260004C3A003B54494D453A00466F6C646572D8
:103270000000002100240027002A002D0030003328
:103280000001010000040107010A010000220025DD
:103290000028002B002E0031003400020100000540
:1032A0000108010B01000020002300260029002C4A
:1032B000002F003200000100000301060109010592
:1032C000050505070508080808020202020A0A089F
:1032D00008040404040101010101010101030303C5
:1032E0000303030303040707070C0C0C0C0C0C0C62
:1032F0000C0202020206060606060606060B0B0B69
:103300000B0B0B0B0B0102102020080810204010A3
:103310002040800201020108040201010204081099
:1033200020408080402010080402018004020180B7
:1033300040201008040201080402010102040810E0
:1033400020408001020408102040800000090A0289
:10335000080B0C0D0706030401000000000000002C
:10336000000000000000000000000000000000005D
:103370000000000000000011100F0000000000001D
:10338000000000000000000000000000000000003D
:1033900000494E46494E4954594E414ECDCCCC3D44
:1033A0000AD7233C17B7D13877CC2B329595E62432
:1033B0001FB14F0A000020410000C84200401C46D7
:1033C00020BCBE4CCA1B0E5AAEC59D742B39233C83
:1033D000CAF01C3C11241FBECFEFD1E2DEBFCDBF2F
:1033E00000E00CBF15E0A0E0B2E0E2EFF3EF01E097
:1033F0000BBF02C007900D92A634B107D9F71BBED0
:103400001FE1A6E4B5E001C01D92A034B107E1F7C9
:1034100013E3C2EDD3E304C02297FE010E949EF99C
:10342000CC3CD107C9F70E9443F40C94ECF90C94FE
:103430000000A0E0B0E0EFE1FAE10C94BBF9EC0190
:103440005B016115710519F0FB0191838083F9908F
:103450008F2D90E00E94A2F9892BC9F7FDE2FF169B
:1034600021F4F990EE24E39405C02BE2F21609F45E
:10347000F990EE248E0101501040C80161E973E318
:1034800043E050E00E94F31C892B01F58E010E5F92
:103490001F4FC80164E973E345E050E00E94F31C4C
:1034A000892B19F48E01095F1F4FA114B10419F083
:1034B000F50111830083E0FC04C070E090E080E837
:1034C00014C070E090E080E86FEF08C1C80169E9BE
:1034D00073E343E050E00E94F31C892B69F4A114CC
:1034E000B10429F470E090E080EC6FE7F7C0229619
:1034F000F501D183C083F6CF8824992440E050E0C1
:1035000060E070E0EF2DE053EA30A0F5F2E0EF2A42
:103510008E2D90E09C0128703070E2FE06C0232BB7
:1035200079F50894811C911C2BC0232B19F0089469
:1035300081089108DB01CA0112E0880F991FAA1FB8
:10354000BB1F1A95D1F7480F591F6A1F7B1F440FE5
:10355000551F661F771F4E0F511D611D711D483984
:1035600029E9520729E9620729E1720748F084E056
:10357000E82A06C0EE3F31F4E3FC39C098E0E92ABE
:10358000F990C0CFE53311F0E53189F529912D325D
:1035900019F4E0E1EE2A05C02B3219F081E090E049
:1035A00003C0299182E090E0E22FE053EA3018F066
:1035B000C81BD90B1CC020E030E0FCE020383F07DE
:1035C0005CF4C901880F991F880F991F280F391FB4
:1035D000220F331F2E0F311DE991E053EA3068F3BB
:1035E000E4FE03C0309521953F4F820E931ECE2CF2
:1035F000DD24E1FE07C0A114B10421F02197F501FB
:10360000D183C083CB01BA010E94F7F57B018C0105
:10361000F3E0CF22DD2423E0C216D10421F417FB0E
:10362000109517F9109557016801C801B70120E0FE
:1036300030E040E050E00E9457F5882309F44AC08A
:1036400097FE0DC020EBE22E23E3F22E909481949E
:1036500091089394C0E2D0E000E010E012C098EC32
:10366000E92E93E3F92EF6CFF70125913591459197
:103670005491C601B5010E9437F85B016C018C1AA8
:103680009D0A8C169D0684F7D595C7950F5F1F4F31
:103690000630110529F08CEF9FEFE80EF91EF1CFEF
:1036A000C501D6017C018D018C2D880F8D2D881FC1
:1036B0008F3F51F0C601B50120E030E040E050E01E
:1036C0000E9457F5882331F482E290E090933F1FE7
:1036D00080933E1F7E2D9F2D802F612F272F392F06
:1036E000482F562FB901CA01CDB7DEB7ECE00C94D4
:1036F000D7F92F923F925F926F927F928F929F9213
:10370000AF92BF92CF92DF92EF92FF920F931F93EF
:10371000CF93DF938C011B01EA016115710519F04C
:10372000FB0191838083209749F0CE010297839714
:1037300028F020E030E040E050E0F6C0F801A19031
:103740008F018A2D90E00E94A2F9892BB9F7FDE242
:10375000AF1631F4F801A1908F015524539407C09E
:10376000FBE2AF1619F4F801A1908F0155242097C0
:1037700019F0C031D105C1F4F0E3AF1679F4F801C6
:103780008081883711F0883549F4F801A1800E5FF7
:103790001F4FF2E05F2AC0E1D0E006C0209721F47D
:1037A00080E3A816E9F427C0C830D10531F1C9304B
:1037B000D10524F4C230D10531F50CC0CA30D10591
:1037C00089F0C031D105F9F4C12CD12CE12CB8E03D
:1037D000FB2E28C0C12CD12CE12CA0E4FA2E22C053
:1037E000CAE0D0E0FCECCF2EFCECDF2EFCECEF2EA0
:1037F000FCE0FF2E17C0C8E0D0E0C12CD12CE12C9A
:10380000E0E1FE2E0FC09E01442737FD4095542F66
:1038100060E070E080E090E80E944BF9C901DA01B5
:103820006C017D0120E030E040E050E060E03E01CE
:10383000882477FC8094982C70EDB72EBA0CE9E0C0
:10384000EB1570F48A2D81548A3118F499ECB92E55
:1038500006C08A2D81568A3150F589EAB82EBA0CF5
:103860008B2D90E08C179D0714F56F3FE1F0C21689
:10387000D306E406F506B0F0CA01B901A40193012C
:103880000E940DF99B01AC012B0D311D411D511DF5
:103890002130F0E03F07F0E04F07F0E85F0710F459
:1038A00061E001C06FEFF801A1908F01C5CF211435
:1038B000310481F0662331F001501040F101118391
:1038C000008308C051FE1AC002501040F10111835C
:1038D000008314C067FF12C050FC05C02FEF3FEFFC
:1038E0004FEF5FE704C020E030E040E050E882E2C4
:1038F00090E090933F1F80933E1F16C050FE08C07B
:1039000050954095309521953F4F4F4F5F4F0CC0DC
:1039100057FF0AC082E290E090933F1F80933E1FC2
:103920002FEF3FEF4FEF5FE7B901CA01DF91CF9172
:103930001F910F91FF90EF90DF90CF90BF90AF90CD
:103940009F908F907F906F905F903F902F90089501
:103950001F93FC0199278827BC01E894119110322C
:10396000E9F3193010F01E30C8F31B3251F01D324C
:1039700049F4689406C00E949D1D610F711D811D50
:10398000911D119110531A30B0F33EF4909580952B
:10399000709561957F4F8F4F9F4F1F910895FC0148
:1039A0000590061621F00020D9F7C001089531973F
:1039B000CF010895FB01DC018D9105908019011064
:1039C000D9F3990B0895FB01DC0105900D920020BD
:1039D000E1F70895FC0105900020E9F780959095A6
:1039E0008E0F9F1F0895FB01DC014150504088F06D
:1039F0008D9181341CF08B350CF4805E65916134BF
:103A00001CF06B350CF4605E861B611171F3990B31
:103A10000895881BFCCFFB01DC014150504030F081
:103A20008D910590801919F40020B9F7881B990B26
:103A30000895FB01DC014150504048F005900D9283
:103A40000020C9F701C01D9241505040E0F7089591
:103A5000FB0155915523A9F0BF01DC014D9145179C
:103A60004111E1F759F4CD010590002049F04D9145
:103A700040154111C9F3FB014111EFCF81E090E006
:103A800001970895FB01DC0104C08D91019080191C
:103A900021F441505040C8F7881B990B0895FB0151
:103AA000DC0102C001900D9241505040D8F70895BA
:103AB000FB01DC010D900020E9F7119701900D92B8
:103AC0000020E1F70895FC018191861721F08823F9
:103AD000D9F7992708953197CF010895FB01DC01AB
:103AE00001900D920020E1F70895FB01DC014150A7
:103AF000504030F08D910190801919F40020B9F7F1
:103B0000881B990B0895FB01DC014150504048F09F
:103B100001900D920020C9F701C01D924150504004
:103B2000E0F70895FC0181E090E00190061609F4A9
:103B3000CF010020D1F701970895592F482F372F33
:103B4000262F660F771F881F991F660F771F881F04
:103B5000991F620F731F841F951F660F771F881FA1
:103B6000991F0895AEE0B0E0E8EBFDE10C94C3F9D5
:103B70000E891F898EE08C831A8309838FEF9FE75C
:103B80009E838D839E01265E3F4FCE010196688DF8
:103B9000798DA9010E94D61D2F813885020F131F30
:103BA000F80110822E96E4E00C94DFF9ABE0B0E06F
:103BB000ECEDFDE10C94B5F93C012B015A01FC013F
:103BC00017821682838181FD03C06FEF7FEFC6C12C
:103BD0009AE0892E1E010894211C311CF3012381D7
:103BE000F20123FD859123FF81912F01882309F4A0
:103BF000B2C1853239F423FD859123FF81912F01D4
:103C0000853229F490E0B3010E94C91FE7CF982FB5
:103C1000FF24EE249924FFE1FF15D0F09B3269F0D8
:103C20009C3228F4903259F0933291F40EC09D32B8
:103C300049F0903369F441E024C052E0F52A84E071
:103C4000F82A28C098E0F92A25C0E0E1FE2A22C01F
:103C5000F7FC29C0892F80538A3070F4F6FE05C026
:103C6000989C902C1124980E15C0E89CE02C1124EF
:103C7000E80EF0E2FF2A0EC09E3229F4F6FC6BC17A
:103C800040E4F42A07C09C3619F450E8F52A02C033
:103C9000983649F4F20123FD959123FF91912F016C
:103CA000992309F0B8CF892F8554833018F08052BA
:103CB000833038F444E050E0A40EB51E5FE359832E
:103CC0000FC0933631F0933779F0933509F056C031
:103CD00020C0F5018081898342E050E0A40EB51E2A
:103CE000610101E010E012C0F501C080D180F6FC56
:103CF00003C06FEF7FEF02C0692D70E042E050E03B
:103D0000A40EB51EC6010E94BE1F8C015FE7F522FE
:103D100014C0F501C080D180F6FC03C06FEF7FEFC7
:103D200002C0692D70E042E050E0A40EB51EC6014D
:103D30000E94B31F8C0150E8F52AF3FE07C01AC099
:103D400080E290E0B3010E94C91FEA948E2D90E0BA
:103D500008171907A8F30EC0F601F7FC8591F7FEC6
:103D600081916F0190E0B3010E94C91FE110EA94B4
:103D7000015010400115110579F7EAC0943611F091
:103D8000993669F5F7FE08C0F5012081318142813D
:103D9000538184E090E00AC0F501808191819C010B
:103DA000442737FD4095542F82E090E0A80EB91EBD
:103DB0009FE6F92257FF09C050954095309521950F
:103DC0003F4F4F4F5F4FE0E8FE2ACA01B901A10102
:103DD0002AE030E00E94F51FD82ED21840C0953757
:103DE00029F41F2D1F7E2AE030E01DC01F2D197FF2
:103DF0009F3661F0903720F4983509F0ACC00FC0C1
:103E0000903739F0983709F0A6C004C028E030E0B8
:103E10000AC0106114FD146020E130E004C014FDFC
:103E2000166020E132E017FF08C0F5016081718162
:103E30008281938144E050E008C0F5018081918146
:103E4000BC0180E090E042E050E0A40EB51EA1016C
:103E50000E94F51FD82ED2188FE7F82EF122F6FE19
:103E60000BC05EEFF522D91438F4F4FE07C0F2FC63
:103E700005C08FEEF82202C01D2D01C0192DF4FEE1
:103E80000DC0FE01ED0DF11D8081803319F499EE16
:103E9000F92208C01F5FF2FE05C003C08F2D86788F
:103EA00009F01F5F0F2DF3FC14C0F0FE0FC01E15AC
:103EB00010F09D2C0BC09D2C9E0C911A1E2D06C03F
:103EC00080E290E0B3010E94C91F1F5F1E15C0F37E
:103ED00004C01E1510F4E11A01C0EE2404FF0FC047
:103EE00080E390E0B3010E94C91F02FF1DC001FDE5
:103EF00003C088E790E00EC088E590E00BC0802FFB
:103F0000867891F001FF02C08BE201C080E2F7FCED
:103F10008DE290E0B3010E94C91F06C080E390E0EB
:103F2000B3010E94C91F9A94D914C0F3DA94F10125
:103F3000ED0DF11D808190E0B3010E94C91FDD20CD
:103F4000A9F706C080E290E0B3010E94C91FEA947D
:103F5000EE20C1F743CEF30166817781CB012B962A
:103F6000E2E10C94D1F9FC01059061507040011020
:103F7000D8F7809590958E0F9F1F0895FC01615092
:103F8000704001900110D8F7809590958E0F9F1F7B
:103F900008950F931F93CF93DF938C01EB018B81D7
:103FA00081FF1BC082FF0DC02E813F818C819D81CE
:103FB0002817390764F4E881F9810193F983E883CC
:103FC00006C0E885F985802F1995892B31F48E81FB
:103FD0009F8101969F838E8302C00FEF1FEFC80160
:103FE000DF91CF911F910F910895FA01AA272830F0
:103FF00051F1203181F1E8946F936E7F6E5F7F4FB6
:104000008F4F9F4FAF4FB1E03ED0B4E03CD0670F31
:10401000781F891F9A1FA11D680F791F8A1F911D84
:10402000A11D6A0F711D811D911DA11D20D009F4D4
:1040300068943F912AE0269F11243019305D319316
:10404000DEF6CF010895462F4770405D4193B3E0FF
:104050000FD0C9F7F6CF462F4F70405D4A3318F0A6
:10406000495D31FD4052419302D0A9F7EACFB4E057
:10407000A6959795879577956795BA95C9F700970F
:104080006105710508959B01AC010A2E06945795B0
:10409000479537952795BA95C9F7620F731F841F07
:1040A000951FA01D0895FC011282138210AA089585
:1040B000FC0180A9882319F081E08283138208958E
:1040C000CF93DF93EC01FC01E955FE4F80818823FB
:1040D00009F461C081508083DE01AA5ABF4FFE01FE
:1040E000EB58FF4F8BE101900D928150E1F7FE01FB
:1040F000EC5AFF4FCD58DF4F88819981C357D0408C
:104100009183808330E0BE0169557E4F3FC0832F8D
:1041100090E0AC014F5F5F4FDC01E5E0AA0FBB1FF1
:10412000EA95E1F7A81BB90BAC0FBD1FFA0125E01A
:10413000EE0FFF1F2A95E1F7E41BF50BEC0FFD1FB7
:10414000AB58BF4FEB58FF4F2BE101900D92215020
:10415000E1F7FC0125E0EE0FFF1F2A95E1F7E81BD0
:10416000F90BEC0FFD1FED58FF4FDA0185E0AA0FA8
:10417000BB1F8A95E1F7A41BB50BAC0FBD1FAD5853
:10418000BF4F8D919C91918380833F5FFB01808124
:10419000381708F4BCCFDF91CF910895FC018EE26F
:1041A00095E0918380838781882321F0CF01049655
:1041B0000E94A87F08950F931F938C010E94588E30
:1041C0000E944F8DC80180539E4F0E94A87FF80126
:1041D000128213828FE291E00E94B6401F910F91EC
:1041E0000895CF92DF92EF92FF920F931F93DF9388
:1041F000CF93CDB7DEB76F970FB6F894DEBF0FBE83
:10420000CDBF8C016B01075A1F4FD8018C91095506
:104210001040882321F481E3E82EF12C03C0B2E59D
:10422000EB2EF12CE00EF11E8EE295E09A8389834D
:104230001C821B8218861D82B7016C5F7F4FCE01E6
:104240000596A60121E00E940287882391F5EBE301
:10425000F1E0949108C08091C00085FFFCCF90935D
:10426000C600319694919923B1F7E1E4F1E094917D
:1042700008C08091C00085FFFCCF9093C6003196A6
:1042800094919923B1F709C08091C00085FFFCCFBC
:104290000894C11CD11C9093C600F601908199230B
:1042A00099F78091C00085FFFCCF8AE08093C6001B
:1042B00056C0F801E955FE4F80818A3008F03EC0B3
:1042C0008F5F8083282F30E0C9010197FC01A5E0B2
:1042D000EE0FFF1FAA95E1F7E81BF90BEB58FF4F14
:1042E000E00FF11F21503040AF01415E5F4FBF0131
:1042F0008BE1DB010D90BD01DA010D92AD01815022
:10430000C1F7929182913296968F858F7F97211572
:10431000310541F7D801AB58BF4FF70134968BE117
:1043200001900D928150E1F70D581F4FF7018281E6
:104330009381D8018D939C9303571040D801AA5ABA
:10434000BF4FFE0135968BE101900D928150E1F750
:104350000C5A1F4F8B819C81F80191838083CE0181
:1043600001960E94CE206F960FB6F894DEBF0FBE66
:10437000CDBFCF91DF911F910F91FF90EF90DF9014
:10438000CF900895EF92FF920F931F938C0190EDC1
:10439000E92E91E0F92EE00EF11EC7010E945A7F2E
:1043A000C7010E94A87FF801108211821F910F910E
:1043B000FF90EF900895CF92DF92EF92FF920F93CC
:1043C0001F93CF93DF937C016B01DB010D900020E5
:1043D000E9F78D0101501040061B170BE0EDF1E0ED
:1043E000EE0EFF1ED7011C92E0E3FEEFEE0EFF1E65
:1043F000CB016EE470E00E94631DEC01009731F484
:10440000F8013197EC0DFD1D86010EC060E270E0F1
:104410000E94631D8C010F5F1F4FCE016AE270E0A6
:104420000E94631DFC0131978DE081838AE08283C5
:104430001382C70184539E4FB8010E94048880ED07
:1044400091E0E80EF91ED7018C91882319F1EBE673
:10445000F1E0949108C08091C00085FFFCCF90935B
:10446000C600319694919923B1F7E2E7F1E0949177
:1044700008C08091C00085FFFCCF9093C6003196A4
:1044800094919923B1F78091C00085FFFCCF8AE019
:104490008093C600DF91CF911F910F91FF90EF9015
:1044A000DF90CF900895CF93DF93EC0188A9882304
:1044B00009F43DC0E6EAF1E0949108C08091C000A3
:1044C00085FFFCCF9093C600319694919923B1F764
:1044D000CD50DE4F488159816A817B81C35FD140D5
:1044E00087EF95E02AE030E00E94C639E4EAF1E087
:1044F000949108C08091C00085FFFCCF9093C600C6
:10450000319694919923B1F7C551DE4F4881598175
:104510006A817B81CB5ED14087EF95E02AE030E075
:104520000E94C6398091C00085FFFCCF12C0E4E92B
:10453000F1E0949108C08091C00085FFFCCF90937A
:10454000C600319694919923B1F78091C00085FF00
:10455000FCCF8AE08093C600C655DE4F6881662393
:10456000E1F0E8E8F1E0949108C08091C00085FF97
:10457000FCCF9093C600319694919923B1F787EFC1
:1045800095E070E04AE050E00E941A3A8091C00045
:1045900085FFFCCF8AE08093C600DF91CF9108951C
:1045A0002F923F924F925F926F927F928F929F9243
:1045B000AF92BF92CF92DF92EF92FF920F931F9331
:1045C000DF93CF93CDB7DEB7AC970FB6F894DEBFCD
:1045D0000FBECDBF5C014B01FC0180A9882309F40B
:1045E00039C1C50180539E4F0E94A87FF5011282F8
:1045F00013821A8A1D8A198A188A8EE295E09F878B
:104600008E8730E5C32ED12CCA0CDB1C21E330E0B1
:10461000A20EB31EF601B182A0822FEC3FEFA20ED4
:10462000B31EF40180818F3209F090C0C4016FE2A3
:1046300070E00E94631D7C010894E11CF11C3E01A6
:104640000894611C711C260122E1222E312C2C0EB3
:104650003D1E77C0C7016FE270E00E94631D6C01D0
:10466000009709F481C0E816F90608F07DC08C01B6
:104670000E191F09C301B701A8010E94831D060D71
:10468000171DF8011082F30107C08091C00085FF5B
:10469000FCCF31969093C60090819923B1F7809119
:1046A000C00085FFFCCFFAE0F093C600F201608104
:1046B00071816115710519F460E070E002C06C5FF2
:1046C0007F4FC101A30121E00E940287882371F579
:1046D000E2EEF1E0949108C08091C00085FFFCCF2C
:1046E0009093C600319694919923B1F7FE013196CB
:1046F00007C08091C00085FFFCCF31969093C60023
:1047000090819923B1F7E0EEF1E0949108C0809197
:10471000C00085FFFCCF9093C600319694919923F9
:10472000B1F78091C00085FFFCCF8DC02EE030E056
:104730002C0F3D1FF2013183208376010894E11C88
:10474000F11CE114F10409F085CF0BC082E590E083
:10475000A80EB91EF601B182A0822EEA3FEFA20E8A
:10476000B31ED82C092D02C0DE2C0F2D80E590E061
:10477000A80EB91EF5018081918120EB3FEFA20EBA
:10478000B31E009719F480E090E001C004966D2DEF
:10479000702F0E94D487882339F1E2EDF1E09491E3
:1047A00008C08091C00085FFFCCF9093C600319671
:1047B00094919923B1F78D2D902F9C01F90107C099
:1047C0008091C00085FFFCCF31969093C600908108
:1047D0009923B1F783EF91E0A80EB91EF50110827D
:1047E00011821282138232C0EAEBF1E0949108C088
:1047F0008091C00085FFFCCF9093C60031969491C4
:104800009923B1F78D2D902F9C01F90107C080915C
:10481000C00085FFFCCF31969093C600908199230C
:10482000B1F7E8EBF1E0949108C08091C00085FFFA
:10483000FCCF9093C600319694919923B1F7809163
:10484000C00085FFFCCF8AE08093C600CE010E96A3
:104850000E94CE20AC960FB6F894DEBF0FBECDBF3F
:10486000CF91DF911F910F91FF90EF90DF90CF904C
:10487000BF90AF909F908F907F906F905F904F9080
:104880003F902F9008952F923F924F925F926F9298
:104890007F928F929F92AF92BF92CF92DF92EF92D0
:1048A000FF920F931F93DF93CF93CDB7DEB7AD97F2
:1048B0000FB6F894DEBF0FBECDBF5C014B014DA714
:1048C000FC0180A9882309F4EBC150ED452E51E08D
:1048D000552E4A0C5B1CC2010E94A87FF501128272
:1048E00013821A8A1D8A198A188A8EE295E09F8798
:1048F0008E8740E5C42ED12CCA0CDB1C81E390E0EE
:10490000A80EB91EF601B182A0828FEC9FEFA80E0F
:10491000B91EF40180818F3209F08DC0C4016FE2AD
:1049200070E00E94631D7C010894E11CF11C3E01B3
:104930000894611C711C160178C0C7016FE270E019
:104940000E94631D6C01009709F483C0E816F90604
:1049500008F07FC08C010E191F09C301B701A8011F
:104960000E94831D060D171DF8011082F30107C078
:104970008091C00085FFFCCF31969093C600908156
:104980009923B1F78091C00085FFFCCFFAE0F09346
:10499000C600F101608171816115710519F460E053
:1049A00070E002C06C5F7F4FCE014296A30121E010
:1049B0000E940287882371F5EAE5F2E0949108C02D
:1049C0008091C00085FFFCCF9093C60031969491F2
:1049D0009923B1F7FE01319607C08091C00085FF91
:1049E000FCCF31969093C60090819923B1F7E8E50A
:1049F000F2E0949108C08091C00085FFFCCF9093B5
:104A0000C600319694919923B1F78091C00085FF3B
:104A1000FCCF16C18EE090E08C0F9D1FF1019183B9
:104A2000808376010894E11CF11C92E0E916F10400
:104A300008F083CF0BC0E2E5F0E0AE0EBF1EF6013A
:104A4000B182A0828EEA9FEFA80EB91E082DF92C24
:104A500001C00E2DF501E05BFF4F9DA5992309F4E0
:104A6000ADC0608171816115710519F460E070E07D
:104A700002C06C5F7F4FC201402F5F2D21E00E947A
:104A80000287882309F46AC0E1EEF1E0AE0EBF1E92
:104A9000F50140815181628173818AE090E0A80E26
:104AA000B91EF501408351836283738385E19EEFD4
:104AB000A80EB91EEAE4F2E0949108C08091C0000B
:104AC00085FFFCCF9093C600319694919923B1F75E
:104AD000802F9F2D9C01F90107C08091C00085FFA8
:104AE000FCCF31969093C60090819923B1F7E2E410
:104AF000F2E0949108C08091C00085FFFCCF9093B4
:104B0000C600319694919923B1F787EF95E02AE09A
:104B100030E00E94C6398091C00085FFFCCF8AE05A
:104B20008093C600E3EFF1E0AE0EBF1EF5011082E8
:104B3000118212821382E4E3F2E0949108C0809122
:104B4000C00085FFFCCF9093C600319694919923C5
:104B5000B1F78091C00085FFFCCF97C0E0E2F2E0A2
:104B6000949108C08091C00085FFFCCF9093C6004F
:104B7000319694919923B1F7802F9F2D9C01F901D3
:104B800007C08091C00085FFFCCF31969093C6008E
:104B900090819923B1F7EEE1F2E0949108C0809101
:104BA000C00085FFFCCF9093C60031969491992365
:104BB000B1F78091C00085FFFCCF42C06081718158
:104BC0006115710519F460E070E002C06C5F7F4F01
:104BD000C201402F5F2D26E50E940287882309F03D
:104BE00033C0EAE0F2E0949108C08091C00085FFF4
:104BF000FCCF9093C600319694919923B1F7802F02
:104C00009F2D9C01F90107C08091C00085FFFCCF5A
:104C100031969093C60090819923B1F7E8E0F2E0D5
:104C2000949108C08091C00085FFFCCF9093C6008E
:104C3000319694919923B1F78091C00085FFFCCF04
:104C40008AE08093C60028C081E0F5018083E6EF0A
:104C5000F1E0949108C08091C00085FFFCCF909353
:104C6000C600319694919923B1F7F40107C0809161
:104C7000C00085FFFCCF31969093C60090819923A8
:104C8000B1F78091C00085FFFCCF8AE08093C60019
:104C9000802F9F2D0E9426A1CE010E960E94CE202D
:104CA000AD960FB6F894DEBF0FBECDBFCF91DF91AA
:104CB0001F910F91FF90EF90DF90CF90BF90AF903A
:104CC0009F908F907F906F905F904F903F902F902C
:104CD0000895FC0181E08183CF0140E00E944324DC
:104CE0000895EF92FF920F931F93CF93DF938C0160
:104CF000FC0110AA80AD882321F0C801C5960E944E
:104D0000A87F69EAE62E61E0F62EE00EF11EC701EB
:104D100060E045E30E946F7D882309F5EBE3F1E055
:104D2000949108C08091C00085FFFCCF9093C6008D
:104D3000319694919923B1F7ECE9F2E0949108C08F
:104D40008091C00085FFFCCF9093C600319694916E
:104D50009923B1F78091C00085FFFCCF7DC0E801A9
:104D6000C255DE4FCE01B70141E00E94A5888823DD
:104D700041F5CE01B70140E00E94A588882309F5DE
:104D8000EBE6F1E0949108C08091C00085FFFCCF74
:104D90009093C600319694919923B1F7E9E8F2E037
:104DA000949108C08091C00085FFFCCF9093C6000D
:104DB000319694919923B1F78091C00085FFFCCF83
:104DC0004BC0C801C596BE010E948C82882309F59C
:104DD000EBE6F1E0949108C08091C00085FFFCCF24
:104DE0009093C600319694919923B1F7E9E7F2E0E8
:104DF000949108C08091C00085FFFCCF9093C600BD
:104E0000319694919923B1F78091C00085FFFCCF32
:104E100023C081E0F80180ABEBE3F1E0949108C09E
:104E20008091C00085FFFCCF9093C600319694918D
:104E30009923B1F7EEE6F2E0949108C08091C000AA
:104E400085FFFCCF9093C600319694919923B1F7DA
:104E50008091C00085FFFCCF8AE08093C600D80116
:104E6000AA5ABF4FF801F5968BE101900D9281503F
:104E7000E1F7F80183A994A90C5A1F4FF801918317
:104E8000808304551040C801C196005B1F4FF80194
:104E900091838083DF91CF911F910F91FF90EF90CD
:104EA00008952F923F924F925F926F927F929F92BE
:104EB000AF92BF92CF92DF92EF92FF920F931F9328
:104EC000DF93CF93CDB7DEB7CC55D0400FB6F89473
:104ED000DEBF0FBECDBF6C01662311F527EF31E0B9
:104EE000C20ED31ED6018C91E9E0FEEFCE0EDF1E7E
:104EF000882309F4EAC02FEE31E0C20ED31ED6019A
:104F0000ED90FD900D911C91E1E1FEEFCE0EDF1EC4
:104F10000E94A5F1E616F7060807190708F4D5C0A0
:104F200027EF31E0C20ED31ED6011C92E9E0FEEF5E
:104F3000CE0EDF1ED601D0968C91882341F4C60197
:104F40000E947126F60180A9882309F4BEC000D012
:104F500000D0EDB7FEB731967E010894E11CF11C3C
:104F6000ADB7BEB71296FC92EE92119782E691E031
:104F700093838283D6019E968D919C919F97958372
:104F800084830E94B21D8701EDB7FEB736960FB637
:104F9000F894FEBF0FBEEDBF57010AC0D8018C9137
:104FA000992787FD90950E94AAF9F80181938F01B6
:104FB000F50101900020E9F73197EA19FB09802FEC
:104FC0008E198E175CF3A5E3AA2EB12CAC0CBD1C78
:104FD000C50140E050E060E070E00E94907E9924BE
:104FE000FDE3EF2EF12CEC0EFD1E2E010894411C6A
:104FF000511CEFE16E2E712C6C0E7D1E7BE5272E71
:1050000071E0372E42C0D8018C9190E00E94AAF93D
:10501000F80181938F01D7010D900020E9F71197D6
:10502000AE19BF09802F8E198A176CF327968FADA2
:1050300027978E3751F1C701B20145E050E00E9439
:10504000751D009711F500D000D0EDB7FEB7319671
:10505000ADB7BEB712967C926E92119733822282C0
:10506000558244820E94B21DEDB7FEB736960FB648
:10507000F894FEBF0FBEEDBFC3010E940E6587E529
:1050800091E00E94B64099249394C501B70140E095
:1050900050E00E94A881181614F48701BCCF992013
:1050A00041F48FEF9FEFD6019F969C938E939E972E
:1050B00006C0F60186A597A5019697A786A72AEAB6
:1050C00031E0C20ED31ED6011C92C45ADF4F0FB678
:1050D000F894DEBF0FBECDBFCF91DF911F910F912E
:1050E000FF90EF90DF90CF90BF90AF909F907F9018
:1050F0006F905F904F903F902F9008952F923F9226
:105100004F925F926F927F928F929F92AF92BF92D7
:10511000CF92DF92EF92FF920F931F93DF93CF9383
:10512000CDB7DEB7CF58D0400FB6F894DEBF0FBE74
:10513000CDBF8C013B016A0184E090E0C80ED91E0E
:10514000F8017296C757DF4FF983E883C958D040FA
:10515000C8010596CA57DF4F99838883C658D04047
:10516000C857DF4F1882C858D04036E6E32EF12CDE
:10517000EC0EFD1EF7013B96C557DF4FF983E88320
:10518000CB58D04028EF822E21E0922E800E911E27
:105190009AEFA92E91E0B92EA00EB11E8EE0282E16
:1051A000312C2C0E3D1EB7E44B2E512C4C0E5D1EA7
:1051B000C2010496C357DF4F99838883CD58D040EE
:1051C000EBE3F1E09491C157DF4F9883CF58D04083
:1051D0004FC1F7018385482F50E0BA0168717070A4
:1051E0006031710509F052C1F40120813181213013
:1051F000310509F44BC12230310509F447C1F701EB
:10520000DE0111969081903239F08E2F8E19883000
:1052100011F48EE28D939D933196C557DF4F8881AF
:105220009981CB58D040E817F90761F71C921E8688
:10523000F3018081882329F4C10160E072E00E94BB
:10524000581DC101B3010E94581DC101BE016F5F0D
:105250007F4F0E94581DC10160E072E00E94581DFE
:105260001CA61FA61BA61AA68EE295E099A788A7E2
:10527000CE018C96B601AE014F5F5F4F21E00E94D8
:105280000287882309F03FC0F40180819181892B36
:10529000D1F5C157DF4F9881CF58D040EBE3F1E013
:1052A00008C08091C00085FFFCCF9093C600319666
:1052B00094919923B1F7E2E0F2E007C08091C00039
:1052C00085FFFCCF31969093C60090819923B1F76A
:1052D0008091C00085FFFCCFFAE0F093C600FE018C
:1052E000319607C08091C00085FFFCCF3196909326
:1052F000C60090819923B1F78091C00085FFFCCF53
:105300008AE08093C600C357DF4FA881B981CD588A
:10531000D040FE01BC968BE101900D928150E1F7E7
:105320008AA59BA5F201938382838EE295E0918307
:105330008083C801B101A2010E947E28C2010E949F
:10534000CE20CE0188960E94CE2092C0953E09F4D0
:105350008FC09E3209F48CC09F3509F489C0F801D2
:105360009289992331F09E3209F482C09F3509F465
:105370007FC043FD7DC080E06031710509F481E0AC
:10538000F80185A7882349F4F7018085873409F05F
:105390006FC081858E3709F46BC0CA57DF4FA88173
:1053A000B981C658D040F7018081803241F08E2FFC
:1053B0008E19883011F48EE28D9380818D93319611
:1053C000C557DF4F88819981CB58D040E817F9073E
:1053D00059F71C92F40180819181009729F5F3011E
:1053E00007C08091C00085FFFCCF31969093C60026
:1053F00090819923B1F7CA57DF4FE881F981C658E8
:10540000D04007C08091C00085FFFCCF31969093BB
:10541000C60090819923B1F78091C00085FFFCCF31
:10542000FAE0F093C60024C08130910539F4F5010B
:10543000808191810196918380831AC00297C1F483
:10544000C857DF4FF881C858D0402F2F30E0F50102
:105450008081918128173907F1F0C857DF4FF88113
:10546000C858D040FF5FC857DF4FF883C858D040B6
:10547000C601B701C757DF4F48815981C958D0408D
:105480000E94A88118160CF4A4CE05C0F7019081E3
:10549000992309F05BCFC157DF4F0FB6F894DEBFF9
:1054A0000FBECDBFCF91DF911F910F91FF90EF9075
:1054B000DF90CF90BF90AF909F908F907F906F9034
:1054C0005F904F903F902F900895EF92FF920F932F
:1054D0001F93DF93CF93CDB7DEB76F970FB6F894D6
:1054E000DEBF0FBECDBF7C018C01005B1F4F8E5A0B
:1054F0009F4FF8019183808328EF31E0E20EF31E85
:1055000021E030E0F701219331937F011182108275
:1055100026E03EEFE20EF31E049640E050E060E02D
:1055200070E00E94907EF80120813181DE011596A5
:10553000F90134968BE101900D928150E1F7F90168
:10554000828193819C838B838EE295E09A83898309
:10555000C70165E172E08E010F5F1F4FA8010E9435
:105560007E28C8010E94CE20F701E650FE4F8081C0
:1055700091816F960FB6F894DEBF0FBECDBFCF916D
:10558000DF911F910F91FF90EF900895EF92FF929E
:105590000F931F93DF93CF93CDB7DEB76F970FB6FF
:1055A000F894DEBF0FBECDBF7C018C01005B1F4FA6
:1055B0008E5A9F4FF8019183808328EF31E0E20EED
:1055C000F31E22E030E0F7013183208328E03EEF34
:1055D000E20EF31EF701E650FE4F6083118204963F
:1055E00040E050E060E070E00E94907EF801208191
:1055F0003181DE011596F90134968BE101900D920F
:105600008150E1F7F901828193819C838B838EE243
:1056100095E09A838983C70165E172E08E010F5F8F
:105620001F4FA8010E947E28C8010E94CE206F96BD
:105630000FB6F894DEBF0FBECDBFCF91DF911F91A3
:105640000F91FF90EF900895EF92FF920F931F93A9
:10565000DF93CF93CDB7DEB76F970FB6F894DEBF69
:105660000FBECDBF7C0188EF91E0E80EF91EF70177
:105670001182108288E09EEFE80EF91E87010B5C14
:105680001F4FC80140E050E060E070E00E94907E53
:10569000DE011596F8018BE101900D928150E1F742
:1056A000F70183A994A99C838B838EE295E09A836A
:1056B0008983C70165E172E08E010F5F1F4FA8016A
:1056C0000E947E28C8010E94CE206F960FB6F894E3
:1056D000DEBF0FBECDBFCF91DF911F910F91FF9025
:1056E000EF9008950F931F93CF93DF93DC01D5962E
:1056F0001C92D597D8961C92D897D4961C921E923D
:10570000D3978EE295E0D2969C938E93D197AA5A26
:10571000BF4F1C9213961C92A955B040FD01EE5A42
:10572000FF4FAC5ABF4F11961C921E92A455B04029
:1057300091838083ED01CF58DF4FFE0120E030E000
:10574000482F148217821382128240839183215E34
:105750003F4F7F9681E02633380799F7A655BE4F15
:1057600089E18C9313961C9258961C921B961C925E
:1057700013961C92A35DB140FD01E453FE4FA2536A
:10578000BE4F11961C921E92408391835D961D928E
:105790001D921D921C92139718961D921D921D9298
:1057A0001C921397A35FB14012961C921297139606
:1057B0001C921397D0961C92D0971C9211961C9213
:1057C00011978D0101511E4FF80110821182128232
:1057D0001382A955BE4F1C92FE01C9011192019777
:1057E000E9F7A05BBF4F81E08C93A75FB1409F9624
:1057F0001C921E929E970E94A5F168577C4E8F4F77
:105800009F4FF8016083718382839383DF91CF91EF
:105810001F910F910895DF93CF93CDB7DEB76497B3
:105820000FB6F894DEBF0FBECDBF809116029091E7
:105830001702A0911802B09119028D879E87AF8739
:10584000B88BFE013D9624E630E08081F999FECFC9
:105850001FBA32BD21BD80BD0FB6F894FA9AF99AED
:105860000FBE2F5F3F4F2836310511F03196EDCF37
:10587000EDEDF9E08081F999FECF1FBA32BD21BD6F
:1058800080BD0FB6F894FA9AF99A0FBE2F5F3F4F7A
:105890002837310511F03196EDCFEDECF9E080813C
:1058A000F999FECF1FBA32BD21BD80BD0FB6F89465
:1058B000FA9AF99A0FBE2F5F3F4F2838310511F041
:1058C0003196EDCFE1EFF9E08081F999FECF1FBA73
:1058D00032BD21BD80BD0FB6F894FA9AF99A0FBE79
:1058E0002F5F3F4F2839310511F03196EDCFE5E0BC
:1058F000FAE08081F999FECF1FBA32BD21BD80BD8B
:105900000FB6F894FA9AF99A0FBE2F5F3F4F2C39D1
:10591000310511F03196EDCFE9E0FAE08081F99997
:10592000FECF1FBA32BD21BD80BD0FB6F894FA9AE2
:10593000F99A0FBE2F5F3F4F203A310511F0319693
:10594000EDCFE1E0FAE08081F999FECF1FBA32BDD8
:1059500021BD80BD0FB6F894FA9AF99A0FBE2F5F59
:105960003F4F243A310511F03196EDCFE9E1FAE0ED
:105970008081F999FECF1FBA32BD21BD80BD0FB61F
:10598000F894FA9AF99A0FBE2F5F3F4F283A3105E3
:1059900011F03196EDCFE9ECF9E08081F999FECF75
:1059A0001FBA32BD21BD80BD0FB6F894FA9AF99A9C
:1059B0000FBE2F5F3F4F2C3A310511F03196EDCFDE
:1059C000EDE0FAE08081F999FECF1FBA32BD21BD2A
:1059D00080BD0FB6F894FA9AF99A0FBE2F5F3F4F29
:1059E000203B310511F03196EDCFE1E1FAE0808105
:1059F000F999FECF1FBA32BD21BD80BD0FB6F89414
:105A0000FA9AF99A0FBE2F5F3F4F243B310511F0F0
:105A10003196EDCFE5E1FAE08081F999FECF1FBA2A
:105A200032BD21BD80BD0FB6F894FA9AF99A0FBE27
:105A30002F5F3F4F283B310511F03196EDCFECE061
:105A4000F8E08081F999FECF1FBA32BD21BD80BD3B
:105A50000FB6F894FA9AF99A0FBE2F5F3F4F243C85
:105A6000310511F03196EDCF84EB90E09A83898374
:105A700086E490E09C838B831E821D8280EF90E001
:105A800098878F8384E690E09A8789871C861B8697
:105A9000FE0131968081F999FECF1FBA32BD21BD3A
:105AA00080BD0FB6F894FA9AF99A0FBE2F5F3F4F58
:105AB000263C310571F7FE0133968081F999FECFBE
:105AC0001FBA32BD21BD80BD0FB6F894FA9AF99A7B
:105AD0000FBE2F5F3F4F283C310511F03196EDCFBF
