:100000000C947B1E0C94AC1E0C94AC1E0C94AC1E79
:100010000C94AC1E0C94AC1E0C94AC1E0C94AC1E38
:100020000C94AC1E0C94AC1E0C94AC1E0C94AC1E28
:100030000C94AC1E0C94AC1E0C94AC1E0C94AC1E18
:100040000C94AC1E0C9460910C94AC1E0C94AC1EE1
:100050000C94AC1E0C94AC1E0C947EA70D94C5059C
:100060000C94AC1E0C9440620C94AC1E0C94AC1E10
:100070000C94AC1E0C94AC1E0C94AC1E0C94AC1ED8
:100080000C94AC1E0C94AC1E0C94AC1E0C94AC1EC8
:100090000C94AC1E0C94AC1E0C94AC1E0C9448BC7E
:1000A0000C94AC1E0C94AC1E0C94AC1E0C94AC1EA8
:1000B0000C94AC1E0C94AC1E0C94AC1E0C94AC1E98
:1000C0000C94AC1E0C94AC1E0C94AC1E0C94AC1E88
:1000D0000C94AC1E0C94AC1E0C94AC1E0C94AC1E78
:1000E0000C94AC1EC1A7D0A7ECA7FBA715A819A814
:1000F0001BA81FA827A890D4EFD4B0D4EFD4EFD476
:10010000EFD44BD43BD4EFD4D2D4DDD4EFD4EFD45E
:10011000EFD433D4EFD4EFD42DD495D5A4D5A7D52F
:10012000AAD59ED5B3D5A1D598D5ADD5B0D5BAD5DC
:10013000CCD5BDD5DFD5E2D5E5D5EBD5E8D5CFD546
:100140009BD5D2D5C0D5C3D5C9D5C6D5F5DB43DC43
:100150004DDC48DC11DC62DC28DC05DC52DC57DCE1
:1001600080DCC7DC85DC11DD72DDEFDBE9DBEDDB9C
:100170009EDC0CDC07DD8ADC8FDC99DC94DC59EF3B
:100180005CEF8CEFD3EF7DEF74EF80EF77EFC6EF8E
:1001900096EF99EF7AEF9CEF83EFB1EF86EFDDEF0B
:1001A00089EF7AF531F58EF53AF511F611F611F67B
:1001B00058F511F6C6F511F6B8F511F697F568FA87
:1001C00079FA8CFA97FAD3FAA7FA07FBC7FA0DFC6B
:1001D0005BFB62FBCEFA6AFB33FB8DFBB0FB63FA81
:1001E00038FB1D021F031902CF0251023F033502E3
:1001F0002B02870131033902FB01F702DD013F03C6
:100200001503CB025501BB014B03B3010903A9023E
:10021000E502C901A1028B013702ED015902770203
:100220005502E5026301A1017D01084AD73B3BCE9F
:10023000016E84BCBFFDC12F3D6C74319ABD5683E5
:100240003DDA3D00C77F11BED9E4BB4C3E916BAA9D
:10025000AABE000000803F05A84CCDB2D44EB938EC
:1002600036A9020C50B9918688083CA6AAAA2ABED3
:10027000000000803F000C943BD40C9483D30C947A
:10028000E8B30C94C7FA0C945EDB0C944FD90C9431
:10029000E5D50C9438FB0C9489E10C9499EF0C94FF
:1002A000EFE70C945CEF0C9466D60D94AA070C94BF
:1002B00089EF0C9448CB0C94B0FB0C94EFD40C94C5
:1002C00090D40C94D5DD0D9403080C94AAD50C940D
:1002D000DDD40C948CFA0C9497CF0C94ECA70C946E
:1002E00086EE0C94BAD50C9401C90C947FD50C946D
:1002F00070CE0C949ED50C9431F50D940B080C9493
:100300000CD40C9483EF0C94C1A70C9471EC0D9455
:1003100055070C94A1ED0D94E7070C94ACE10C94F7
:10032000BFCA0C9462FB0C94D0D10C9472DD0C9477
:100330004FD70C94B2C70C9479E50C9493E00C94CD
:1003400037E50D9407080C94A1D50C9411F60C9484
:10035000B8F50C94AECB0C94BDD50C94F5C70C94A9
:1003600079FA0C9411DD0D94C8070C94DFD50C9428
:100370001EF60C946AFB0D94D6070C94A19C0C9469
:1003800041390C9428DC0C9452DC0D942C050C940F
:10039000DBB90D94DD070C94F5DB0C94E9DB0C94D0
:1003A0005BE60C9474EF0C9463F60C94E7C90C9420
:1003B000A7FA0C944BD40C948FDC0D948C070C94FE
:1003C00015A80C9468FA0C9485DC0C94CEFA0C9465
:1003D00097FA0C94ADE00C94CCD50D94EF070C94E7
:1003E000FACB0C9404E90D943B050C9463FA0D943C
:1003F00019050C9480EF0D9473070C94D3EF0C94B3
:100400007AF50C948DFB0C94CFD50C942DD40C94D0
:1004100011DC0C944DDC0C943ADB0C94EFDB0C9467
:1004200028D80C94E7EF0C94FBA70C942BDA0C94CF
:10043000E8D50D9427070C9438620D941D070C9491
:1004400096EF0C9424FD0C9488CC0C94E4E50C9469
:1004500062FD0C9424DB0D944D070C9463EE0D9417
:10046000C6080C9498F70C949BD50D9445070D94F1
:10047000EB070D9469070C94D2D30C94A3D00C9481
:10048000D2D50C942FF30C945DE00C94CEAD0C946B
:10049000B0D40C9410F50D9411050C94FCD40C946C
:1004A000FCD90D943B070C94D0A70D94FD070C9438
:1004B0007DEF0D94F5070C940BCF0C94C9D50C94DB
:1004C000B1EF0C94D3FA0C94E6CC0C94E5E00C94C8
:1004D00090DB0C94ACA90C9477EF0C94BFA80C940F
:1004E00094DC0C947BE70C9433FC0C941EFA0D9472
:1004F000F9070C94B6DB0C942DD00D943C050C94AC
:100500006FD20C947BC80C94A9C90C9486E60C9409
:1005100048DC0C943AF50C9445CA0C9459EF0C94B1
:10052000DDEF0D94A8050C94BEC80C941DD20C945C
:1005300080DC0C949EDC0C94ABCD0C9427A80C941E
:10054000C3D50D94E1070C94B0D50C9433D40C941E
:100550002CE20D94D2070C94A4D50C945BFB0C9464
:100560006FE30C94A0DF0C94F5D50C9438C80C9470
:1005700091C90C948CEF0C94ADD50C942AE50C9495
:1005800007FB0C941FA80C94C6F50C9414FA0C9459
:10059000EBD50C94BEE20D94A0070C940CDC0D94EA
:1005A00031070C943AC90C943C620C9446CC0C94E0
:1005B000A7D50C948EF50C9419A80C94FEE60C9417
:1005C00086EF0C944ED10C945FEE0D9410080C94B1
:1005D000C7DC0C9499DC0C9489C90C9405DC0C9450
:1005E000C6D50C9497F50C9458F50C94E2DF0D9455
:1005F00082070C9495D50C94DBEE0C9450E10C948E
:100600009DE80C9443EF0C9457DC0C94C0D50C94EB
:10061000EDDB0D94CC070C9428D60C947AEF0C9457
:100620009CEF0D944D020C94CCE90D9496070C941C
:1006300028EC0C94D2D40C94CEFE0C944E390D942C
:1006400022070C9462DC0C94B3D50C9407DD0D9456
:10065000A4010C9409EF0C941BA80C946AD20C947E
:10066000C6EF0D945F070C9433FB0D9469050C9451
:10067000E2D50C94F38B0C940DFC0C945EE00D947D
:10068000B4070C948ADC0C9498D50C940CDF0C9471
:10069000CDD20C9443DC0D94D9074D38342058202A
:1006A00059205A20450043616E6E6F7420656E7448
:1006B0006572207375626469723A20004D323400AD
:1006C0004D3233202573006175746F25692E6700E4
:1006D0006572726F722077726974696E6720746FC9
:1006E0002066696C650043617264206572726F7286
:1006F0003A004E6F74205344207072696E74696EB4
:1007000067002F005344207072696E74696E672011
:100710006279746520002E0044656C6574696F6EA3
:10072000206661696C65642C2046696C653A20001E
:1007300046696C652064656C657465643A002E00DA
:100740006F70656E206661696C65642C2046696C0B
:10075000653A200057726974696E6720746F20666D
:10076000696C653A20002E006F70656E20666169C5
:100770006C65642C2046696C653A20002E006F7011
:10078000656E206661696C65642C2046696C653A0B
:10079000200046696C652073656C65637465640050
:1007A0002053697A653A200046696C65206F706550
:1007B0006E65643A20002E006F70656E2066616978
:1007C0006C65642C2046696C653A200053442063B4
:1007D000617264206F6B006F70656E526F6F742072
:1007E0006661696C656400766F6C756D652E696E07
:1007F0006974206661696C656400534420696E69A0
:1008000074206661696C006563686F3A00457272B6
:100810006F723A00446F6E6520736176696E67206F
:1008200066696C652E006F6B004D323900446F6E47
:1008300065207072696E74696E672066696C650008
:100840005072696E7465722073746F707065642085
:1008500064756520746F206572726F72732E204606
:10086000697820746865206572726F7220616E64A9
:1008700020757365204D39393920746F2072657386
:10088000746172742E202854656D70657261747580
:1008900072652069732072657365742E20536574C8
:1008A0002069742061667465722072657374617268
:1008B00074696E6729006F6B004E6F204C696E651E
:1008C000204E756D62657220776974682063686573
:1008D000636B73756D2C204C617374204C696E656D
:1008E0003A20004E6F20436865636B73756D207707
:1008F000697468206C696E65206E756D6265722C16
:10090000204C617374204C696E653A200063686501
:10091000636B73756D206D69736D617463682C20F2
:100920004C617374204C696E653A20004C696E65A9
:10093000204E756D626572206973206E6F74204C55
:10094000617374204C696E65204E756D6265722B03
:10095000312C204C617374204C696E653A20004D37
:10096000313130002200656E717565696E67202235
:100970000077616974696E6720746F20656E7175A8
:1009800065006563686F3A004572726F723A00489D
:10099000617264636F6465642044656661756C743C
:1009A0002053657474696E6773204C6F616465646D
:1009B0000053746F7265642073657474696E677335
:1009C0002072657472696576656400205A0020465D
:1009D0000020204D3230392053005265747261631B
:1009E00074696F6E3A00205A002059002058004D5B
:1009F0006178696D756D20506F736974696F6E737E
:100A000020286D6D293A0020426564206D617820B0
:100A100074656D70203D2000202331206D617820A9
:100A200074656D70203D2000457874727564657240
:100A3000733A002044002049002020204D333031FB
:100A40002050005049442073657474696E67733A8E
:100A500000205A0020590020204D32303620580006
:100A6000486F6D65206F666673657420286D6D290B
:100A70003A00204500205A0020580020420020540F
:100A80000020204D323035205300416476616E6382
:100A90006564207661726961626C65733A20533DCA
:100AA0004D696E206665656420286D6D2F73292C55
:100AB00020543D4D696E2074726176656C206665C8
:100AC000656420286D6D2F73292C20423D6D696E61
:100AD000207365676D656E742074696D6520286D7F
:100AE00073292C20583D6D6178205859206A657211
:100AF0006B20286D6D2F73292C20205A3D6D617855
:100B0000205A206A65726B20286D6D2F73292C2066
:100B100020453D6D61782045206A65726B20286D07
:100B20006D2F73290020540020204D323034205383
:100B300000416363656C65726174696F6E3A20533E
:100B40003D616363656C65726174696F6E2C2054DE
:100B50003D7265747261637420616363656C657274
:100B60006174696F6E00204500205A0020590020F2
:100B7000204D3230312058004D6178696D756D20FF
:100B8000416363656C65726174696F6E20286D6D79
:100B90002F7332293A00204500205A0020590020A6
:100BA000204D3230332058004D6178696D756D20CD
:100BB00066656564726174657320286D6D2F732995
:100BC0003A00204500205A0020590020204D39329B
:100BD00020580053746570732070657220756E69BB
:100BE000743A0053657474696E67732053746F723E
:100BF0006564006563686F3A002200556E6B6E6F26
:100C0000776E20636F6D6D616E643A202200204222
:100C10003A300020423A31006F6B20523A002200F5
:100C2000556E6B6E6F776E20636F6D6D616E643A9B
:100C30002022007A5F6D61783A2000795F6D6178DB
:100C40003A2000785F6D696E3A2000205A3A002001
:100C5000593A0020436F756E7420583A0020453A87
:100C600000205A3A0020593A0020583A004649528A
:100C70004D574152455F4E414D453A4D61726C6949
:100C80006E20556C74696D616B6572323B205370D8
:100C900072696E7465722F6772626C206D61736821
:100CA000757020666F722067656E36204649524D1A
:100CB000574152455F55524C3A687474703A2F2F21
:100CC0006669726D776172652E756C74696D616BA2
:100CD00065722E636F6D2050524F544F434F4C5FDF
:100CE00056455253494F4E3A312E30204D414348DC
:100CF000494E455F545950453A556C74696D616B66
:100D000065722045585452554445525F434F554EE5
:100D1000543A310A0020423A0020453A00543A0041
:100D200020573A0020453A00543A00202F20002056
:100D3000463A002042403A0020403A00202F00204E
:100D4000423A00202F006F6B20543A004E656564D4
:100D500020285029696E202320616E6420285329A1
:100D6000746174757320746F207365742070696E7C
:100D7000210050696E2025692073657420746F20EE
:100D8000256900496C6C6567616C2070696E207321
:100D90006574202569002569206D696E2C20256900
:100DA0002073656300456E642066696C65206C691C
:100DB000737400426567696E2066696C65206C69B2
:100DC000737400434C49434B20544F20434F4E54BF
:100DD000494E554521002073656300574149543AF7
:100DE0002000554E535550504F5254454420434FC8
:100DF0004D4D414E443A204D0020736563005741EC
:100E000049543A2000756E706175736564007265AF
:100E100064756E64616E7420756E706175736520A3
:100E2000636F6D6D616E642C2069676E6F72696EA1
:100E3000670070617573656400726564756E6461E6
:100E40006E7420706175736520636F6D6D616E6483
:100E50002C2069676E6F72696E6700FF01010000E8
:100E6000E0400000E0400000E04000000000000022
:100E700000000000000000000100190017001B0026
:100E80001600FFFF200021001F00FFFF1A002300B3
:100E900024002200FFFF1D000C00040007002A00B0
:100EA0002B00250002003E003F0035004000656336
:100EB000686F3A005072696E7465722073746F7057
:100EC0007065642064756520746F206572726F723E
:100ED000732E2046697820746865206572726F727F
:100EE00020616E6420757365204D39393920746F27
:100EF00020726573746172742E202854656D70655C
:100F00007261747572652069732072657365742EE1
:100F1000205365742069742061667465722072655F
:100F20007374617274696E6729005072696E7465BA
:100F3000722068616C7465642E206B696C6C282962
:100F40002063616C6C65642100536166657479206F
:100F500053746F70006F6B00526573656E643A2056
:100F6000002D2D2D2D2D2D2D2D2D2D2D2D2D2D2DDE
:100F70002D2D2D2D2D2D2D2D2D2D2D2D2D2D2D2DA1
:100F80002D2D2D2D2D2D2D2D2D2D2D2D2D2D2D2D91
:100F90002D2D2D2D2D2D2D2D2D2D2D2D2D2D2D2D81
:100FA0002D2D2D2D2D2D2D2D2D2D2D2D2D2D2D2D71
:100FB0002D2D2D2D2D2D2D2D2D2D2D2D2D2D2D2D61
:100FC0002D2D2D2D2D2D2D2D2D2D2D2D2D2D2D2D51
:100FD0002D002D2D2D2D2D2D2D2D2D2D2D2D2D2D6E
:100FE0002D2D2D2D2D2D2D2D2D2D2D2D2D2D2D2D31
:100FF0002D2D2D2D2D2D2D2D2D2D2D2D2D2D2D2D21
:101000002D2D2D2D2D2D2D2D2D2D2D2D2D2D2D2D10
:101010002D2D2D2D2D2D2D2D2D2D2D2D2D2D2D2D00
:101020002D2D2D2D2D2D2D2D2D2D2D2D2D2D2D2DF0
:101030002D2D2D2D2D2D2D2D2D2D2D2D2D2D2D2DE0
:101040002D2D00496E76616C6964206D6174657246
:1010500069616C2073657474696E677320666F755F
:101060006E642C20726573657474696E6720746F8A
:101070002064656661756C7473002D2D2D2D2D2DEA
:101080002D2D2D2D2D2D2D2D2D2D2D2D2D2D2D2D90
:101090002D2D2D2D2D2D2D2D2D2D2D2D2D2D2D2D80
:1010A0002D2D2D2D2D2D2D2D2D2D2D2D2D2D2D2D70
:1010B0002D2D2D2D2D2D2D2D2D2D2D2D2D2D2D2D60
:1010C0002D2D2D2D2D2D2D2D2D2D2D2D2D2D2D2D50
:1010D0002D2D2D2D2D2D2D2D2D2D2D2D2D2D2D2D40
:1010E0002D2D2D2D2D2D2D2D2D2D00564443005011
:1010F000535520566F6C746167653A20005644431F
:10110000005643433A200020627974657300202022
:101110004D6174657269616C206E616D65206275E8
:1011200066666572733D20002062797465730020E5
:101130002053657269616C20525820636F6D6D2079
:101140006275666665723D20002062797465730081
:101150002020636F6D6D616E647320666F72202056
:10116000002020436F6D6D616E6420627566666558
:10117000723D2000206279746573002020536372F1
:1011800065656E206275666665723D200020627935
:101190007465730020204C43445F43414348453D00
:1011A00000206279746573292000207820002028AF
:1011B000002020506C616E6E6572427566666572C5
:1011C00042797465733A20002046726565204D654A
:1011D0006D6F72793A20004D6179203238203230BB
:1011E000313500436F6D70696C65643A2000566557
:1011F0007273696F6E2031342E30362E355F784B26
:1012000000207C20417574686F723A20004D61792E
:1012100020323820323031352031373A34333A34C5
:101220003900204C61737420557064617465643AB0
:101230002000322E312E30004D61726C696E20001C
:1012400020536F6674776172652052657365740010
:10125000205761746368646F67205265736574001A
:101260002042726F776E206F7574205265736574BB
:10127000002045787465726E616C205265736574E8
:1012800000506F7765725570007374617274002D31
:101290002D2D2D2D2D2D2D2D2D2D2D2D2D2D2D2D7E
:1012A0002D2D2D2D2D2D2D2D2D2D2D2D2D2D2D2D6E
:1012B0002D2D2D2D2D2D2D2D2D2D2D2D2D2D2D2D5E
:1012C0002D2D2D2D2D2D2D2D2D2D2D2D2D2D2D2D4E
:1012D0002D2D2D2D2D2D2D2D2D2D2D2D2D2D2D2D3E
:1012E0002D2D2D2D2D2D2D2D2D2D2D2D2D2D2D2D2E
:1012F0002D2D2D2D2D2D2D2D2D2D2D2D2D2D2D004B
:101300006563686F3A004572726F723A0025002576
:10131000001E2020007E001E2020007E004D363062
:10132000322058256920592569205A2569204C33D7
:1013300030004D363033204C33300047323820589F
:101340003020593000473120256325732046256918
:10135000004739322025632573004C43443A20006E
:101360006563686F3A0020746F6F206C6F6E672042
:10137000657874727573696F6E2070726576656ECC
:101380007465640020636F6C642065787472757393
:10139000696F6E2070726576656E74656400656352
:1013A000686F3A0000002110422063308440A5504D
:1013B000C660E770088129914AA16BB18CC1ADD19B
:1013C000CEE1EFF13112100273325222B552944243
:1013D000F772D662399318837BB35AA3BDD39CC3EB
:1013E000FFF3DEE36224433420040114E664C7748F
:1013F000A44485546AA54BB528850995EEE5CFF53B
:10140000ACC58DD55336722611163006D776F666E2
:101410009556B4465BB77AA719973887DFF7FEE78A
:101420009DD7BCC7C448E5588668A77840086118AE
:1014300002282338CCC9EDD98EE9AFF948896999DA
:101440000AA92BB9F55AD44AB77A966A711A500A82
:10145000333A122AFDDBDCCBBFFB9EEB799B588B2A
:101460003BBB1AABA66C877CE44CC55C222C033CCE
:10147000600C411CAEED8FFDECCDCDDD2AAD0BBD7A
:10148000688D499D977EB66ED55EF44E133E322E22
:10149000511E700E9FFFBEEFDDDFFCCF1BBF3AAFCA
:1014A000599F788F8891A981CAB1EBA10CD12DC128
:1014B0004EF16FE18010A100C230E32004502540BE
:1014C00046706760B9839893FBA3DAB33DC31CD31E
:1014D0007FE35EF3B1029012F322D232354214520E
:1014E00077625672EAB5CBA5A89589856EF54FE56A
:1014F0002CD50DC5E234C324A0148104667447645E
:1015000024540544DBA7FAB79987B8975FE77EF7BD
:101510001DC73CD7D326F2369106B01657667676AD
:10152000154634564CD96DC90EF92FE9C899E98989
:101530008AB9ABA94458654806782768C018E108FD
:101540008238A3287DCB5CDB3FEB1EFBF98BD89B5D
:10155000BBAB9ABB754A545A376A167AF10AD01A4D
:10156000B32A923A2EFD0FED6CDD4DCDAABD8BADA9
:10157000E89DC98D267C076C645C454CA23C832C9D
:10158000E01CC10C1FEF3EFF5DCF7CDF9BAFBABFFD
:10159000D98FF89F176E367E554E745E932EB23EED
:1015A000D10EF01E7C3C3E5E2B3D3F2F5B5D3B2C05
:1015B0002A225C00205A3A0020593A0020583A006A
:1015C000656E6473746F7073206869743A200024C8
:1015D000F4D43050C38E20C2A24017828B701112F7
:1015E0007A910D816CD90AA861E108C75866076134
:1015F0005143061E4B5D05C145A7041A411104095C
:101600003D9803713931034036DB0265339102D4D2
:10161000305402802E1D02632CEE01752AC501B0E4
:1016200028A001102781018F2564012B244B01E0A4
:10163000223401AC211F018D200D01801FFC00848C
:101640001EED00971DDF00B81CD200E61BC600206F
:101650001BBC00641AB200B219A8000A19A0006AE3
:10166000189900D117910040178B00B516840031EE
:10167000167E00B31579003A157300C7146F005831
:10168000146A00EE1366008813630025135E00C71A
:10169000125B006C12570015125400C111510070FA
:1016A000114F0021114B00D61049008D1047004604
:1016B00010440002104200C00F4000800F3E004264
:1016C0000F3C00060F3B00CB0E3800930E37005C3A
:1016D0000E3500270E3400F30D3200C10D3100909D
:1016E0000D3000600D2E00320D2D00050D2C00D99F
:1016F0000C2B00AE0C2900850C29005C0C27003552
:101700000C27000E0C2600E80B2400C40B2400A0BC
:101710000B23007D0B23005A0B2100390B210018ED
:101720000B2000F80A1F00D90A1E00BB0A1E009DEC
:101730000A1D00800A1D00630A1C00470A1B002CBA
:101740000A1B00110A1A00F7091A00DD091900C462
:10175000091900AB091900920917007B09180063E9
:101760000917004C09160036091600200916000A50
:10177000091500F5081500E0081400CC081400B89D
:10178000081400A4081400900813007D0812006BD0
:1017900008130058081200460812003408110023EC
:1017A0000811001208110001081100F0071000E0F4
:1017B000071000D0071000C0071000B0070F00A1ED
:1017C00007100091070E0083070F0074070F0065D4
:1017D000070E0057070E0049070E003B070D002EAD
:1017E000070E0020070D0013070D0006070D00F976
:1017F000060C00ED060D00E0060C00D4060C00C837
:10180000060C00BC060C00B0060C00A4060B0099E8
:10181000060C008D060B0082060B0077060B006C91
:10182000060B0061060A0057060B004C060A004230
:10183000060A0038060A002E060A0024060A001AC4
:10184000060A001006090007060A00FD050900F453
:10185000050900EB050900E2050900D9050900D0DA
:10186000050900C7050900BE050900B5050800AD5A
:10187000050800A50509009C050800940508008CD2
:10188000050800840508007C050800740508006C44
:10189000050700650508005D050700560508004EB0
:1018A0000507004705070040050800380507003117
:1018B0000507002A050700230507001C050600167A
:1018C0000507000F0507000805060002050700FBD5
:1018D000040600F5040700EE040600E8040600E232
:1018E000040700DB040600D5040600CF040600C987
:1018F000040600C3040600BD040600B7040600B1D8
:10190000040500AC040600A6040600A00405009B24
:1019100004060095040500900406008A040500856D
:10192000040500800406007A0405007504050070B3
:101930000405006B04050066040500610405005CF5
:1019400004050057040500520405004D0405004835
:10195000040500430405003E0404003A0405003574
:10196000040500300404002C0405002704040023AF
:101970000405001E0404001A0404001604050011E6
:101980000404000D0404000904050004040400001C
:10199000040400FC030400F8030400F4030400F052
:1019A000030400EC030400E8030400E4030400E083
:1019B000030400DC030400D8030400D4030400D0B3
:1019C000030400CC030400C8030300C50303002480
:1019D000F404D9201BC40C5C0E9804C4095F026592
:1019E000077101F405F900FB04B30048048700C146
:1019F0000369005803550003034500BE023A008402
:101A000002310053022A002902250004022000E4CA
:101A1000011C00C8011900AF0117009801140084CF
:101A2000011300710110006101100051010E00430B
:101A3000010D0036010B002B010B0020010B0015DE
:101A40000109000C01090003010800FB000800F374
:101A5000000800EB000700E4000600DE000600D8E6
:101A6000000600D2000600CC000500C7000500C239
:101A7000000500BD000400B9000400B5000400B179
:101A8000000400AD000400A9000400A5000300A2AA
:101A90000003009F0004009B0003009800030095D2
:101AA00000020093000300900003008D0002008BF1
:101AB0000003008800020086000200840003008109
:101AC0000002007F0002007D0002007B000200791E
:101AD000000200770001007600020074000200722C
:101AE000000100710002006F0002006D0001006C37
:101AF0000002006A00010069000200670001006640
:101B00000001006500010064000200620001006144
:101B1000000100600001005F0002005D0001005C48
:101B20000001005B0001005A00010059000100584B
:101B3000000100570001005600010055000100544B
:101B40000001005300000053000100520001005149
:101B5000000100500001004F0001004E0000004E47
:101B60000001004D0001004C0001004B0000004B43
:101B70000001004A0001004900010048000000483F
:101B8000000100470001004600000046000100453A
:101B90000000004500010044000100430000004334
:101BA000000100420000004200010041000000412D
:101BB000000100400001003F0000003F0001003E26
:101BC0000000003E0001003D0000003D0001003C1F
:101BD0000000003C0000003C0001003B0000003B16
:101BE0000001003A0000003A00010039000000390D
:101BF0000001003800000038000000380001003704
:101C000000000037000100360000003600000036FA
:101C100000010035000000350000003500010034EF
:101C200000000034000000340001003300000033E5
:101C300000000033000100320000003200000032DA
:101C400000010031000000310000003100010030CF
:101C500000000030000000300001002F0000002FC5
:101C60000000002F0000002F0001002E0000002EB9
:101C70000000002E0001002D0000002D0000002DAE
:101C80000000002D0001002C0000002C0000002CA2
:101C90000000002C0001002B0000002B0000002B96
:101CA0000000002B0001002A0000002A0000002A8A
:101CB0000000002A0001002900000029000000297E
:101CC0000000002900000029000100280000002871
:101CD0000000002800000028000000280001002764
:101CE0000000002700000027000000270000002758
:101CF000000100260000002600000026000000264B
:101D0000000000260001002500000025000000253D
:101D1000000000250000002500000025000100242F
:101D20000000002400000024000000240000002423
:101D30000001002300000023000000230000002316
:101D40000000002300000023000000230001002207
:101D500000000022000000220000002200000022FB
:101D600000000022000100210000002100000021ED
:101D700000000021000000210000002100000021DF
:101D800000010020000000200000002000000020D2
:101D900000000020000000200000002000000020C3
:101DA0000001001F0000001F0000001F0000001FB6
:101DB0000000001F0000001F0000001F0001001EA7
:101DC0000000001E0000001E0000001E0000006554
:101DD00063686F3A002073656300206D696E0020B0
:101DE000686F75720020686F757273004F46460009
:101DF00054656D7065726174757265206865617493
:101E00006564206265642073776974636865642023
:101E10006F66662E204D415854454D5020747269AE
:101E2000676765726564202121003A2045787472E5
:101E300075646572207377697463686564206F6682
:101E4000662E204D494E54454D5020747269676787
:101E5000657265642021003A204578747275646566
:101E600072207377697463686564206F66662E20DC
:101E70004D415854454D50207472696767657265CD
:101E800064202100202D20496E76616C69642065F4
:101E900078747275646572206E756D62657220214A
:101EA00000504944204175746F74756E65206669F1
:101EB0006E697368656421205075742074686520AC
:101EC0004B702C204B6920616E64204B6420636F43
:101ED0006E7374616E747320696E746F20436F6EDD
:101EE00066696775726174696F6E2E680050494447
:101EF000204175746F74756E65206661696C6564E8
:101F0000212074696D656F75740020403A006F6B15
:101F100020543A006F6B20423A00504944204175EA
:101F2000746F74756E65206661696C6564212054F8
:101F3000656D706572617475726520746F6F20686D
:101F400069676800204B643A2000204B693A200002
:101F5000204B703A200020436C6173696320504924
:101F60004420002054753A2000204B753A20002070
:101F70006D61783A2000206D696E3A200020643A45
:101F8000200020626961733A20004572726F723AD4
:101F90000000000000300E0100C00E0A00500F14B7
:101FA00000D00F1E0060102800E010320070113CBD
:101FB00000F01146007012500000135A00801364A4
:101FC0000000146E00901478001015820090158C9B
:101FD00000101696009016A0001017AA009017B4D3
:101FE000001018BE009018C8001019D2009019DC1B
:101FF00000101AE600801AF000001BFA00801B0493
:1020000001F01B0E01701C1801F01C2201601D2C38
:1020100001E01D3601501E4001D01E4A01401F54F0
:1020200001B01F5E0130206801A020720110217CE8
:102030000190218601002290016026F401902A5827
:1020400002802EBC0250322003E03584035039E870
:1020500003803C4C0400000000740E0A00F50F23BE
:102060000050147E007C1596007017C8005E1A0997
:10207000014C1D3601141E59011027F40120616323
:1020800074697665002025005072696E74696E6708
:102090003A202000546F74616C204F6E3A2020006B
:1020A0006D0046696C616D656E743A202000555371
:1020B000455F41545F594F55525F4F574E5F5249EC
:1020C000534B21004D617920323820323031352098
:1020D00031373A34333A35330056657273696F6E6F
:1020E0002031342E30362E355F784B00554D1C2074
:1020F0002D204E65726420666F726B006D206F66D6
:1021000020006D002078004E657420737065656452
:102110003A2020004573743A20200054696D653AD6
:1021200020002062797465730046726565204D65F4
:102130006D3A2000250048554D49443A001E0041A3
:102140004D423A0076005053553A007600564343CC
:102150003A00555054494D453A2020202020002572
:102160000046616E3A20002500466C6F773A2000E9
:102170001E004265643A20001E0054656D703A20CE
:10218000006D6D202020001E2020007E001E2020DB
:10219000007E005052494E540046494C410053596C
:1021A0005354454D00737570706F727440756C7444
:1021B000696D616B65722E636F6D00436F6E746144
:1021C00063743A005361666574792063697263755C
:1021D00069740054656D702073656E736F72204270
:1021E00045440054656D702073656E736F720045D1
:1021F00052524F52202D2053544F50504544002FDF
:10220000400000000000000000000000008080800E
:10221000C0E0FEFF191E9898981818181818189EF4
:102220009F991E38F0E00000000000000000000050
:102230000000000000000000003CFEFFFF99F1E1FB
:10224000C3FFFF000063636360606060606063639E
:10225000630000FFFF7C3800000000000000000069
:10226000000080C060B0D8D81CFCFF3F0F8FCFC7E4
:10227000C7C7C6C6C6C6C6C6C6C6C6C6C6C6C6C6FC
:10228000C6C6C7C7C4CC0C1CF8F870C00000000E4E
:10229000FFF92A2B2B2828FCFFFF0000FFFFFFFF80
:1022A000FFFFFFBFB717B5BDB500B5B5F717FFBF47
:1022B000BFFFFFFFFF0000FFFFFCFF0700C0F0FFB4
:1022C000FFFDDD1D19193FFFFF0000FFFFFFFFFFAE
:1022D000FFFFFBF1FBFBEAEEC0EEEAFAF0FAFAFFD1
:1022E000FFFFFFFF0000FFFF0F1FF8E00003070FD5
:1022F0000F1B1819FBFEFFFFF0E0C0C1E1F1F1F187
:10230000F1F1F1F1F1F1F1F1F9F9F9F9F9F979797D
:1023100079F1F010181F0706030300000000000009
:102320000000F8FFEFDFBF7FFFFFFF404143437F27
:10233000212020217FFFFFFF3FB091D1DFD05058F7
:102340001F1FF0F00000000000000000000000006F
:1023500003070F1E3D7B77EED1DEDECF4B4B696965
:10236000686868603F3F37373735343010101818C9
:102370001A1B0F06000000000043414E43454C006D
:1023800011150A00001915120000300C43A8900224
:102390000572888860006000600000000000000096
:1023A0005F00000007000700147F147F14242A7FB9
:1023B0002A1223130864623649552250000503008F
:1023C00000001C2241000041221C00082A1C2A088F
:1023D00008083E08080050300000080808080800F7
:1023E0006060000020100804023E5149453E004252
:1023F0007F400042615149462141454B311814123A
:102400007F1027454545393C4A4949300171090546
:10241000033649494936064949291E003636000027
:1024200000563600000008142241141414141441FC
:10243000221408000201510906324979413E7E11F9
:1024400011117E7F494949363E414141227F414138
:10245000221C7F494949417F090901013E414151FF
:10246000327F0808087F00417F41002040413F0142
:102470007F081422417F404040407F0204027F7F5A
:102480000408107F3E4141413E7F090909063E4153
:1024900051215E7F09192946464949493101017F89
:1024A00001013F4040403F1F2040201F7F20182057
:1024B0007F6314081463030478040361514945439E
:1024C00000007F4141020408102041417F000004C8
:1024D0000201020440404040400001020400205438
:1024E0005454787F48444438384444442038444461
:1024F000487F3854545418087E0901020814545473
:102500003C7F0804047800447D40002040443D00A6
:10251000007F10284400417F40007C041804787C30
:102520000804047838444444387C1414140808140B
:1025300014187C7C080404084854545420043F4474
:1025400040203C4040207C1C2040201C3C4030402F
:102550003C44281028440C5050503C4464544C4493
:10256000000836410000007F0000004136080008E6
:10257000082A1C08081C2A0808473120462569201B
:102580005A25692058256920592569004732382085
:102590005A30205830205930006275696C64706C74
:1025A0006174652E006F662061646A757374696E6C
:1025B0006720796F7572007468726F756768207430
:1025C00068652070726F6365737300492077696C6A
:1025D0006C20677569646520796F7500434F4E54B0
:1025E000494E55450043414E43454C004732382043
:1025F0005A3000697320746869732072696768745F
:102600003F00504C41206173206D617465726961B7
:102610006C2C00596F7520686176652063686F7354
:10262000656E0031382F323100594553004E4F004E
:10263000746F207072696E742069742100616E6419
:102640002070726573732074686520627574746F8E
:102650006E006F6E207468652053442D6361726450
:102660000053656C6563742061207072696E74201C
:1026700066696C650032312F3231004C4554275366
:10268000205052494E540052656164696E67206360
:102690006172642E2E2E0032312F323100796F7527
:1026A0007220556C74696D616B6572322E2E2E002E
:1026B000746861742063616D652077697468005087
:1026C0006C6561736520696E736572742053442D67
:1026D000636172640032312F3231006D616B6520AD
:1026E00061203344205072696E74210049276D20A7
:1026F0007265616479206C657427730032302F3203
:10270000310041524520594F552052454144593FCF
:10271000006974206973207573696E672E006F6697
:10272000206D6174657269616C006B6E6F777320E8
:1027300077686174206B696E64004E6F7720796FE3
:10274000757220556C74696D616B65723200313938
:102750002F323100434F4E54494E55450069732086
:10276000746869732072696768743F00414253203E
:102770006173206D6174657269616C2C00596F75AD
:1027800020686176652063686F73656E0031382F4D
:10279000323100594553004E4F0031372F3231004E
:1027A000504C410041425300556C74696D616B653A
:1027B00072322E00696E73657274656420696E20D2
:1027C00074686520006D6174657269616C20796F51
:1027D000752068617665004E6578742C2073656C91
:1027E000656374207468650031362F3231005245BC
:1027F0004144590066726F6D206E6F7A7A6C652E57
:102800002E2E006D6174657269616C206578697443
:1028100073005075736820627574746F6E207768EA
:10282000656E0031352F323100434F4E54494E55BD
:1028300045004C6F6164696E67206D6174657269F3
:10284000616C2E2E2E0031342F32310061626F7692
:102850006520746865206172726F772E00796F75DC
:102860007220556C74696D616B6572322C006672F2
:102870006F6D207468652072656172206F66004913
:102880006E73657274206E6577206D617465726910
:10289000616C0031332F323100434F4E54494E5555
:1028A00045006D6174657269616C206C6F6164696B
:1028B0006E67007072696E74686561642068656136
:1028C00074696E6720666F7200506C656173652075
:1028D000776169742C0031322F3231004D38340069
:1028E0004731204631323030302058313130205994
:1028F000313000746F20696E73657274206D61747D
:10290000657269616C2E00746865206E657874204C
:102910007374657020697300746865206275696CF2
:1029200064706C617465004E6F7720746861742008
:102930007765206C6576656C65640031312F3231C6
:1029400000434F4E54494E554500746865207269E6
:1029500067687420636F726E65722E2E2E0052654A
:1029600070656174207468697320666F720031301D
:102970002F323100434F4E54494E554500444F4E7F
:102980004500746865206C65667420636F726E65BF
:10299000722E2E2E00526570656174207468697302
:1029A00020666F7200392F323100434F4E54494E2A
:1029B00055450062697420726573697374616E6352
:1029C000652E00756E74696C20796F75206665657B
:1029D0006C2061006275696C64706C617465206163
:1029E0006E64206E6F7A7A6C6500536C6964652042
:1029F00061207061706572206265747765656E0034
:102A0000382F323100434F4E54494E554500434F05
:102A10004E54494E554500473120462569205A30CD
:102A2000004731204625692058256920592569002D
:102A3000473120462569205A350074686520627543
:102A4000696C64706C617465206C6576656C2E00D1
:102A5000706170657220746F2066696E652D747583
:102A60006E65006E6F7720757365206120736865F1
:102A70006574206F660052657065617420746869C2
:102A80007320737465702C2062757400372F323197
:102A900000434F4E54494E55450066726F6D207489
:102AA0006865206275696C64706C6174652E00697C
:102AB000732061206D696C6C696D6574657220614D
:102AC0007761790073637265772074696C6C207428
:102AD0006865206E6F7A7A6C65005475726E20722C
:102AE00069676874206275696C64706C61746500F4
:102AF000362F323100434F4E54494E554500473131
:102B000020462569205A3000473120462569205843
:102B100025692059256900473120462569205A3505
:102B20000066726F6D20746865206275696C6470F0
:102B30006C6174652E0069732061206D696C6C692D
:102B40006D65746572206177617900736372657772
:102B50002074696C6C20746865206E6F7A7A6C657D
:102B6000005475726E206C656674206275696C64C1
:102B7000706C61746500352F323100434F4E5449FB
:102B80004E554500473120462569205A30004731CF
:102B9000204625692058256920592569004731209C
:102BA000462569205A350066726F6D20746865206D
:102BB0006275696C64706C6174652E0061206D696A
:102BC0006C6C696D65746572206177617900756EF2
:102BD00074696C20746865206E6F7A7A6C65206900
:102BE0007300526F74617465207468652062757437
:102BF000746F6E00342F323100434F4E54494E559E
:102C00004500434F4E54494E554500473120462517
:102C100069205A25692058256920592569004732BD
:102C20003820583020593000676F696E6720746F04
:102C300020646F2074686174206E6F772E00616469
:102C40006A7573746D656E74732C2077652061727C
:102C500065007765206E65656420746F20646F2061
:102C6000736F6D65004166746572207472616E7376
:102C7000706F72746174696F6E00332F323100436C
:102C80004F4E54494E554500473120462569205A3C
:102C9000256900473238205A300061206669727316
:102CA000742072756E2077697A6172642E00776184
:102CB0006C6B20796F75207468726F756768006639
:102CC000697273742073746172747570204920770F
:102CD000696C6C0042656361757365207468697323
:102CE0002069732074686500322F323100434F4EE3
:102CF00054494E554500627574746F6E20746F2090
:102D0000636F6E74696E756500556C74696D616B87
:102D10006572212050726573732074686500737446
:102D20006172747570206F6620796F7572005765D7
:102D30006C636F6D6520746F2074686520666972BE
:102D4000737400312F323100434F4E54494E554574
:102D5000001E007E00436C69636B20746F207265F7
:102D60007475726E004E6F7A7A6C652074656D7042
:102D7000657261747572653A003F3F3F0020476C91
:102D80006F77207768656E20646F6E6500204F6EE8
:102D9000207768696C65207072696E74696E67006F
:102DA00020416C77617973204F66660020416C7713
:102DB000617973204F6E004272696768746E657343
:102DC00073003C2052455455524E00250042726912
:102DD0006768746E657373004C45440025003F3F7F
:102DE0003F004D6178207370656564205A004D6125
:102DF000782073706565642059004D617820737088
:102E0000656564205800582F59204A65726B00414F
:102E10006363656C65726174696F6E003C20524536
:102E20005455524E006D6D2F73004D6178207370B4
:102E3000656564205A006D6D2F73004D61782073B5
:102E4000706565642059006D6D2F73004D617820A9
:102E500073706565642058006D6D2F7300582F598D
:102E6000204A65726B0030306D6D2F731C0041631A
:102E700063656C65726174696F6E004D4F54494FA4
:102E80004E006D6D2F73006D6D2F73006D6D2F7380
:102E9000006D6D2F73006D6D2F731C00746F2064B7
:102EA000656661756C743F005265736574206D6171
:102EB00074657269616C7300594553004E4F00741C
:102EC0006F2064656661756C743F0052657365744C
:102ED0002065766572797468696E6700594553009C
:102EE0004E4F006D003A005072696E74696E673A19
:102EF000003A004D616368696E65206F6E20666FF1
:102F0000723A0052657475726E0056657273696F1D
:102F10006E2031342E30362E355F784B004D61797E
:102F200020323820323031352031373A34333A3597
:102F3000350052657475726E001E007E00436C6928
:102F4000636B20746F2072657475726E00426564E5
:102F50002074656D7065726174757265001E007E07
:102F600000436C69636B20746F2072657475726EB8
:102F700000206D6D00436C69636B20746F20726577
:102F80007475726E00206D6D00746F2058206C692E
:102F90006D6974004D6F766520686561642077699E
:102FA0007468206B6E6F62004732382058302059A9
:102FB0003000436C69636B20746F207265747572A6
:102FC0006E00206D6D00746F2059206C696D6974FE
:102FD000004D6F76652068656164207769746820AC
:102FE0006B6E6F62004732382058302059300054E1
:102FF00075726E206F6E20636F6F6C696E672066EE
:10300000616E005475726E206F6E2063617365206F
:1030100066616E005475726E206F6E206865616423
:103020002066616E0041646A7573742059204D6199
:1030300078696D756D0041646A7573742058204D10
:103040006178696D756D003F3F3F0044697361624F
:103050006C65204D656E75207772617000456E61FC
:10306000626C65204D656E752077726170004164F9
:103070006A7573742069646C652074696D656F7519
:10308000740041646A757374205A204C6966740038
:103090005265736574204D6174657269616C73006B
:1030A000466163746F72792072657365740052753E
:1030B0006E74696D65207374617473005665727304
:1030C000696F6E004D6F74696F6E207365747469FB
:1030D0006E67730052657472616374696F6E2073FA
:1030E000657474696E6773004578747275646520E1
:1030F0006D6174657269616C20005261697365204D
:103100006275696C64706C617465004C6F77657290
:10311000206275696C64706C6174650052656C65E1
:10312000617365206D6F746F72730043656E7465B3
:1031300072206865616400486F6D65206865616430
:1031400000486561747570206275696C64706C61AB
:10315000746500486561747570206578747220002C
:103160004C45442073657474696E67730041646AEA
:103170007573742042656420486569676874003C13
:103180002052455455524E0047312046256920585B
:103190002569205925690047323820583020593098
:1031A00000473120462569205825692059256900A6
:1031B000473238205830205930006D6D0052657408
:1031C00072616374205A4C69667400206D696E7573
:1031D0007465730049646C652074696D656F7574FE
:1031E000004731205A363000473238205A300047E5
:1031F0003238205A3000473120583130302059328F
:103200003020463132303030004D383400473238CB
:103210002058302059300053595354454D006D6D9E
:10322000006D6D001E001E0073006D6D2F733D005C
:10323000204020006D6D00206D696E75746573000F
:103240004D617920323820323031352031373A34EF
:10325000333A3535002E2E2E2E2E7665726966692C
:10326000656420707265736574202320002E2E2EF5
:103270002E2E76657269666965642065787472754C
:103280006465722073657474696E6720232000433F
:103290006865636B696E672070726573657420235F
:1032A000200020657874727564657220736574748B
:1032B000696E67733A00207072657365747320617C
:1032C0006E642000436865636B696E6720003F3F52
:1032D0003F004D6174657269616C7320726573653E
:1032E0007400250046616E3A20001E001E00250075
:1032F000466C6F773A006D6D004D4154455249411F
:103300004C00636F6D6573206F7574207468652061
:103310006E6F7A7A6C6500576169742074696C6CA1
:10332000206D6174657269616C00524541445900B9
:1033300043414E43454C00466F7277617264696E3B
:1033400067206D6174657269616C0061626F76659A
:1033500020746865206172726F772E00796F7572C4
:10336000206D616368696E652C0066726F6D2074F4
:103370006865206261636B73696465206F660049EC
:103380006E73657274206E6577206D617465726905
:10339000616C0052454144590043414E43454C0045
:1033A000473120462569205825692059256900475D
:1033B00032382058302059300052656D6F766520C4
:1033C0006D6174657269616C0052454144590043F6
:1033D000414E43454C00526576657273696E6720B5
:1033E0006D6174657269616C004732382058302015
:1033F0005930001E00666F72206D617465726961DC
:103400006C2072656D6F76616C0048656174696EE1
:1034100067207072696E74686561640043757374C7
:103420006F6D697A65003C2052455455524E004DEF
:103430006F64696679207468652073657474696E59
:10344000677300250046616E3A20001E001E0025AD
:1034500000466C6F773A006D6D003F3F3F0053743C
:103460006F72652061732070726573657400466CBD
:103470006F7720250046616E004469616D65746553
:103480007200486561746564206275696C64706C73
:103490006174650054656D70657261747572650064
:1034A0003C2052455455524E00250025006D6D00BC
:1034B0001E001E00435553544F4D5F004E6577204C
:1034C000707265736574003C2052455455524E002D
:1034D000505245534554530025004D61746572693F
:1034E000616C20666C6F7700250046616E207370FA
:1034F000656564006D6D004D6174657269616C2075
:103500004469616D657465720043004275696C645D
:10351000706C6174652054656D702E0043005465B5
:103520006D7065726174757265004D415445524904
:10353000414C0053656C6563746564206D6174650E
:103540007269616C3A004F4B004D415445524941FC
:103550004C004348414E47450053455454494E475B
:10356000530052455455524E0047454E455249432B
:1035700020504C4100D70046006464006666364027
:1035800047454E455249432041425300EB005F00FE
:10359000006B006666364049433344204142530085
:1035A000000000E1005F00006B00666636404A459F
:1035B00054204142530000000000F0005F00006B07
:1035C00000CDCC3C4045434F464C455820504C41E3
:1035D00000EB004B00646E006666364054203631C6
:1035E00038204E594C4F4E00F5002D00647800668F
:1035F00066364054474C4153452F5045542B00E10B
:103600000046006478009A9939404E494E4A414636
:103610004C4558000000F5003700648700CDCC2CE5
:1036200040504F4C59434152420000000013016E7C
:1036300000646E00666636406563686F3A00473125
:10364000204631323030302058313030205935303A
:1036500000473238006D6D2F7300526574726163DC
:1036600074207370656564006D6D005265747261DD
:103670006374206C656E6774680052455452414310
:1036800054494F4E006D6D2F73006D6D003F3F3FED
:1036900000526574726163742073706565640052D2
:1036A000657472616374206C656E677468003C2099
:1036B00052455455524E0047312058313030205930
:1036C000323020463132303030006D6D005265743A
:1036D00072616374205A2D4C696674002500427231
:1036E000696768746E6573730025004D6174657257
:1036F00069616C20666C6F7700250046616E2073EF
:10370000706565640025005072696E742073706581
:1037100065640054554E450073006D6D2F733D0078
:10372000204020006D6D002500250025001E001E94
:103730000025004D6F74696F6E2073657474696E37
:1037400067730043656E7465722068656164002D5F
:103750002D43616E27742043656E746572003F3F90
:103760003F00457874727564652031306D6D002DB1
:103770002D43616E27742045787472756465004529
:103780006E61626C6520205A2D4C69667400446934
:103790007361626C65205A2D4C69667400456E61D8
:1037A000626C65202052657472616374696F6E008B
:1037B00044697361626C65205265747261637469F7
:1037C0006F6E004E756467652042656420446F77B4
:1037D0006E20302E316D6D004E7564676520426538
:1037E0006420557020302E316D6D00486F6D65205E
:1037F00048656164202620526573756D65002D2D26
:1038000043616E277420486F6D65004C454420422B
:1038100072696768746E657373005A2D4C696674BB
:103820000052657472616374696F6E004D617465F6
:103830007269616C20466C6F770046616E20537030
:10384000656564204F7665727269646500426564DF
:103850002054656D70657261747572650054656D94
:1038600070657261747572650053706565640050AF
:10387000617573696E672E2E2E776169742E2E2EF8
:1038800000526573756D65002D2D43616E277420A0
:103890005061757365005061757365003C20524539
:1038A0005455524E00596F752063616E2072656DDC
:1038B0006F7665005072696E742066696E69736810
:1038C0006564001E001E202020005072696E746521
:1038D0007220636F6F6C696E6720646F776E00454E
:1038E000737420776173202000446F6E6520696EC9
:1038F0002020004241434B20544F204D454E55005F
:1039000041626F727420746865207072696E743FD2
:1039100000594553004E4F0066726F6D2074686504
:1039200020736C696365722E0073657474696E67C9
:1039300020776974682073657474696E67006F76A8
:10394000657272696465206D616368696E650054B3
:103950006869732066696C652077696C6C00434FF9
:103960004E54494E55450043414E43454C00436F2C
:1039700064653A0053442D6361726421007265618D
:1039800064696E67004572726F72207768696C6552
:103990000052455455524E20544F204D41494E003F
:1039A0006D6D006D006D0048656174696E67206221
:1039B00075696C64706C6174650048656174696EEA
:1039C0006700746F20636F6E74696E756500507266
:1039D00065737320627574746F6E004255460046BD
:1039E000414E004F5652006D6D2F73006D6D1B2FB1
:1039F00073001E007E0054554E450041424F525404
:103A0000006D206F6620001E001E0048454154498D
:103A10004E472045585452554445520054554E4542
:103A20000041424F52540053442043415244003B12
:103A3000464C41564F523A556C746947436F646522
:103A4000003B464C41564F523A556C746947436FA0
:103A50006465004E6F2066696C657320666F756ED5
:103A60006421004F4B004F4B0052656164696E67E3
:103A700020636172642E2E2E00506C656173652088
:103A8000696E736572742063617264004E6F2053B7
:103A9000442D4341524421003B4D4154455249413C
:103AA0004C3A003B54494D453A003B4C61796572B4
:103AB00020636F756E743A20004E6F20696E666FDA
:103AC00020617661696C61626C65006D006D004D0E
:103AD0006174657269616C3A20003A003A00200016
:103AE0002F002F00546F74616C206C6179657273C4
:103AF0003A200054696D653A2000466F6C64657227
:103B0000003C204241434B003C2052455455524E0C
:103B1000004D3330302053383830205031353000AC
:103B20004D33303020533636302050313530004D53
:103B30003330302053343430205031303000484559
:103B4000524520574520474F21004D3330302053F8
:103B50003131302050323530004D33303020533445
:103B600034302050323530004D3330302053323233
:103B7000302050313530004D38340047323800475E
:103B800031204625692045300047393220452569D6
:103B90000000000A0B02090C0D0E080703040100C7
:103BA0000000000000000000000000000000000015
:103BB00000000000000000000000000000121110D2
:103BC00000000000000000000000000000000000F5
:103BD0000000000000000001021020200808102052
:103BE0004010204080020102010804020101020489
:103BF0000810204080804020100804020180040248
:103C0000018040201008040201080402010102049E
:103C1000081020408001020408102040800505059E
:103C200005070508080808020202020A0A08080433
:103C30000404040101010101010101030303030361
:103C4000030303040707070C0C0C0C0C0C0C0C02F0
:103C500002020206060606060606060B0B0B0B0BF7
:103C60000B0B0B000020002300260029002C002F46
:103C700000320000010000030106010901000022DA
:103C800000250028002B002E003100340002010026
:103C900000050108010B0100002100240027002A73
:103CA000002D003000330001010000040107010A6B
:103CB000014E414E494E495459494E46CDCCCC3D1A
:103CC0000AD7233C17B7D13877CC2B329595E62409
:103CD0001FB14F0A000020410000C84200401C46AE
:103CE00020BCBE4CCA1B0E5AAEC59D744139386209
:103CF000A19C91023C6211241FBECFEFD1E2DEBF36
:103D0000CDBF00E00CBF15E0A0E0B2E0E0E7FBE2D1
:103D100002E00BBF02C007900D92A439B107D9F79A
:103D20002FE1A4E9B5E001C01D92A83BB207E1F77D
:103D30001CE3C4EFDCE300E006C022970109FE01AA
:103D40000BBF0F94480ECC3ED10780E00807A9F7BF
:103D50000F94AA080D94A6150C940000FC0114827F
:103D600017821382128289EA94E0918380830895F6
:103D700029EA34E0FC01318320832781222319F0D2
:103D800004960C944D870895CF92DF92EF92FF92A4
:103D90000F931F93CF93DF93EC01C9960E94AE1E41
:103DA000CE01865A9F4F0E94AE1E7E0129E7E20E89
:103DB000F11C87016E0131E5C31A3EEFD30AC80139
:103DC0000E94AE1E015E1F4F0C151D05C1F7FE01BE
:103DD000EF54FE4F89E1818314823596178ACE0114
:103DE0008C529E4F0E94AE1E1AAA1BAA1CAA1DAA84
:103DF000FE01E950FE4F10821182128213821A8254
:103E00001B8218AE188219826E018DE0C81A8EEFDF
:103E1000D80AF6011082118212821382F8011082F0
:103E200086E391E0F7019C01119221503040E1F7C7
:103E3000FE01E550FE4F81E080831FAA1EAA0F9469
:103E40000F0668577C4E8F4F9F4FF601608371833A
:103E500082839383DF91CF911F910F91FF90EF9019
:103E6000DF90CF900895FC0120E03EE2DB014C9111
:103E7000403241F0283011F430833196DB014C910F
:103E8000408331962F5F6F5F7F4F2B3079F7108221
:103E900008953F924F925F926F927F928F929F927E
:103EA000AF92BF92CF92DF92EF92FF920F931F9348
:103EB000CF93DF93CDB7DEB7C558D1090FB6F894CD
:103EC000DEBF0FBECDBF8C016B017A01312C4C01DE
:103ED00082E1880E911CE4E0EE0EF11C3801F4E062
:103EE0006F1AFEEF7F0A580182E0A81A8EEFB80A17
:103EF00080E4482E512C4C0E5D1EE4E04E0E511C09
:103F0000A401BE016F5F7F4FC7010E94B2851816E2
:103F10000CF066C12C85322F3871303109F0A1C008
:103F2000F301808191810197029708F49AC0BE0144
:103F30006F5F7F4FCE0187589F4F0E94331FA0961F
:103F40001FAEA097F6018081811107C068ED72E075
:103F5000CE01815A9F4F0F943012B601CE01815A83
:103F60009F4F0F943012BE0167587F4FCE01815A88
:103F70009F4F0F94301268ED72E0CE01815A9F4F2F
:103F80000F943012CE01805C9F4F0E94AE1E21E044
:103F9000AE0147585F4FB701C2010E945689811197
:103FA00039C0F30180819181892BA1F5EDE0F8E022
:103FB0008491882341F09091C00095FFFCCF8093BD
:103FC000C6003196F5CFEAEDF2E08191882339F011
:103FD0009091C00095FFFCCF8093C600F6CF8091F2
:103FE000C00085FFFCCF8AE08093C600FE01E75841
:103FF000FF4F8191882339F09091C00095FFFCCF4D
:104000008093C600F6CF8091C00085FFFCCF8AE088
:104010008093C6008BE1FE01EC5BFF4FDE019596BD
:1040200001900D928A95E1F724968EAD9FAD24976D
:104030009CA38BA389EA94E09AA389A3AE014F5D68
:104040005F4FBE01615A7F4FC8010E94491FCE01D8
:1040500081960E94B81ECE01805C9F4F0E94B81EC0
:104060004FCF8981882309F4BBC0853E09F448CF2E
:104070008E3209F445CF8F3509F442CFF801828999
:10408000882331F08E3209F43BCF8F3509F438CFD5
:1040900023FD36CF81E0303109F080E0F80185A7BB
:1040A000811108C08985873409F02ACF8A858E3727
:1040B00009F426CFBE016F5F7F4FC80105960E94AD
:1040C000331F8F89988DF80197A786A7898D9A8DC0
:1040D00091AB80ABF30180819181009709F069C0B9
:1040E000E7E0F8E08491882341F09091C00095FFCB
:1040F000FCCF8093C6003196F5CFF60181918823DD
:1041000039F09091C00095FFFCCF8093C600F6CFA8
:10411000F4018191882339F09091C00095FFFCCF84
:104120008093C600F6CFEBE5F4E08191882339F067
:104130009091C00095FFFCCF8093C600F6CF4D8DC7
:104140005E8D6F8D78A12AE030E082E49AE00E94D3
:10415000C263EDEEF2E08191882339F09091C000C6
:1041600095FFFCCF8093C600F6CF698D7A8D4AE02B
:1041700050E082E49AE00E94D563E4EFF2E081919E
:10418000882339F09091C00095FFFCCF8093C60042
:10419000F6CF6F89788D4AE050E082E49AE00E9481
:1041A000D5638091C00085FFFCCF8AE08093C60074
:1041B000A7CE8130910539F4F50180819181019676
:1041C000918380839DCE029709F09ACE232D30E013
:1041D000F501808191812817390711F0339490CE31
:1041E000CB57DF4F0FB6F894DEBF0FBECDBFDF91C8
:1041F000CF911F910F91FF90EF90DF90CF90BF90E4
:10420000AF909F908F907F906F905F904F903F9076
:104210000895EF92FF920F931F93CF93DF93CDB743
:10422000DEB76F970FB6F894DEBF0FBECDBF8C011F
:10423000FC01E450FE4F118210827C018DE3E80EF8
:10424000F11C40E050E0BA01C7010E9467868BE193
:10425000F701DE01159601900D928A95E1F7F801BC
:1042600083AD94AD9C838B8389EA94E09A838983A0
:10427000AE014F5F5F4F6CE574E0C8010E94491FBB
:10428000CE0101960E94B81E6F960FB6F894DEBF5D
:104290000FBECDBFDF91CF911F910F91FF90EF9097
:1042A00008952BE1FB013496DC01149601900D92E8
:1042B0002A95E1F7FB0122813381FC0133832283BC
:1042C0000895EF92FF920F931F93CF93DF93EC012A
:1042D00018AEFC01E05CFF4F8081882321F0CE0105
:1042E000CD960E944D877E018FE4E81A8EEFF80A82
:1042F00045E360E0C7010E945C8181111FC0E7E0D7
:10430000F8E08491882341F09091C00095FFFCCFA4
:104310008093C6003196F5CFEAEFF7E084918823C9
:1043200041F09091C00095FFFCCF8093C60031967C
:10433000F5CF8091C00085FFFCCF76C08E010A5476
:104340001E4F41E0B701C8010E94738F811126C042
:1043500040E0B701C8010E94738F81111FC0EDE0DA
:10436000F8E08491882341F09091C00095FFFCCF44
:104370008093C6003196F5CFE7EEF7E0849188236D
:1043800041F09091C00095FFFCCF8093C60031961C
:10439000F5CF8091C00085FFFCCF46C0B801CE01AB
:1043A000CD960E94ED8381111FC0EDE0F8E084916D
:1043B000882341F09091C00095FFFCCF8093C60008
:1043C0003196F5CFE7EDF7E08491882341F09091A5
:1043D000C00095FFFCCF8093C6003196F5CF809149
:1043E000C00085FFFCCF20C081E088AFE7E0F8E0A7
:1043F0008491882341F09091C00095FFFCCF809379
:10440000C6003196F5CFECECF7E08491882341F0BB
:104410009091C00095FFFCCF8093C6003196F5CFF8
:104420008091C00085FFFCCF8AE08093C6008E019A
:10443000075C1F4FB801CE01865A9F4F0E94512141
:10444000C85ADF4F19830883DF91CF911F910F91D5
:10445000FF90EF90089522B322FB222720F931E04C
:104460002327FC013481E055FE4F321749F030819B
:10447000332319F0315030830895FC0124830895CB
:1044800088E280830895FC011282138210AE0895A1
:10449000FC0180AD882319F081E0828313820895A6
:1044A0002F923F924F925F926F927F928F929F9244
:1044B000AF92BF92CF92DF92EF92FF920F931F9332
:1044C000CF93DF93CDB7DEB7AD970FB6F894DEBFCD
:1044D0000FBECDBF7C016B014DA7FC0180AD8823D1
:1044E00009F4DEC14701F8E28F1AFEEF9F0AC4010A
:1044F0000E944D87F70112821382CE0101965C0162
:104500000E94AE1E170198E5290E311CC701C996FD
:10451000F10191838083F60180818F3209F081C09F
:104520006FE270E0C6010F943B128C010F5F1F4FCA
:104530000230110508F47BC06FE270E0C8010F94EF
:104540003B122C01009709F473C00817190708F0F3
:104550006FC03C01601A710AA301B801CE018096B8
:104560000F945B12E0E2F0E0EC0FFD1FE60DF71D8B
:104570001082FE01B0968191882339F09091C0009D
:1045800095FFFCCF8093C600F6CF8091C00085FFD9
:10459000FCCFFAE0F093C600F101608171816115F2
:1045A000710519F06C5F7F4F02C060E070E021E0A0
:1045B000AE01405E5F4FCE0105960E945689811183
:1045C0002BC0E8EBF7E08491882341F09091C00084
:1045D00095FFFCCF8093C6003196F5CFFE01B096D3
:1045E0008191882339F09091C00095FFFCCF809392
:1045F000C600F6CFE6EBF7E08491882341F0909176
:10460000C00095FFFCCF8093C6003196F5CF809116
:10461000C00085FFFCCF09C1F101B182A0828201F7
:1046200085CFC701865A9F4FF10191838083860110
:10463000FDA5FF2309F4B1C0F1016081718161150D
:10464000710519F06C5F7F4F02C060E070E021E0FF
:10465000A801C4010E945689882309F467C0F401A7
:1046600081899289A389B489F70182AB93ABA4AB0A
:10467000B5ABE7E0F8E08491882341F09091C00069
:1046800095FFFCCF8093C6003196F5CFE8EAF7E0BE
:104690008491882341F09091C00095FFFCCF8093D6
:1046A000C6003196F5CFF8018191882339F09091B9
:1046B000C00095FFFCCF8093C600F6CFE0EAF7E09C
:1046C0008491882341F09091C00095FFFCCF8093A6
:1046D000C6003196F5CFF70142A953A964A975A97F
:1046E0002AE030E082E49AE00E94C2638091C00038
:1046F00085FFFCCF8AE08093C600F701E950FE4FAA
:104700001082118212821382E2E9F7E084918823F9
:1047100041F09091C00095FFFCCF8093C600319688
:10472000F5CF8091C00085FFFCCFAFC0EDE0F8E091
:104730008491882341F09091C00095FFFCCF809335
:10474000C6003196F5CFEEE7F7E08491882341F07B
:104750009091C00095FFFCCF8093C6003196F5CFB5
:10476000F8018191882339F09091C00095FFFCCF2A
:104770008093C600F6CFECE7F7E08491882341F000
:104780009091C00095FFFCCF8093C6003196F5CF85
:104790008091C00085FFFCCF48C0F101608171812C
:1047A0006115710519F06C5F7F4F02C060E070E029
:1047B00026E5A801C4010E94568981113AC0EDE0A6
:1047C000F8E08491882341F09091C00095FFFCCFE0
:1047D0008093C6003196F5CFE8E6F7E08491882310
:1047E00041F09091C00095FFFCCF8093C6003196B8
:1047F000F5CFF8018191882339F09091C00095FFA1
:10480000FCCF8093C600F6CFE6E6F7E084918823DC
:1048100041F09091C00095FFFCCF8093C600319687
:10482000F5CF8091C00085FFFCCF8AE08093C60061
:1048300034C081E0F7018083E7E0F8E084918823C9
:1048400041F09091C00095FFFCCF8093C600319657
:10485000F5CFE4E5F7E08491882341F09091C00022
:1048600095FFFCCF8093C6003196F5CFF60181917C
:10487000882339F09091C00095FFFCCF8093C6004B
:10488000F6CF8091C00085FFFCCF8AE08093C60000
:10489000C8010E9432650E9417ADC5010E94B81E72
:1048A000AD960FB6F894DEBF0FBECDBFDF91CF91AE
:1048B0001F910F91FF90EF90DF90CF90BF90AF903E
:1048C0009F908F907F906F905F904F903F902F9030
:1048D000089521E0FC01218340E00C9450222F92A6
:1048E0003F924F925F926F927F928F929F92AF9280
:1048F000BF92CF92DF92EF92FF920F931F93CF93CD
:10490000DF93CDB7DEB7AC970FB6F894DEBF0FBE1E
:10491000CDBF7C015B01FC0180AD882309F43CC163
:10492000C70188529E4F0E944D87F7011282138261
:10493000CE0101966C010E94AE1E270198E5490E3A
:10494000511CC701C996F20191838083F5018081D2
:104950008F3209F0A3C06FE270E0C5010F943B12E3
:104960008C010F5F1F4F97E0292E98E0392E01151B
:10497000110509F499C06FE270E0C8010F943B1271
:104980004C01009709F491C00817190708F08DC071
:104990003C01601A710AA301B801CE0180960F9400
:1049A0005B12E0E2F0E0EC0FFD1FE60DF71D108258
:1049B000F1018491E7E0F8E0882349F09091C0008C
:1049C00095FFFCCF8093C60031968491F5CFFE0110
:1049D000B0968191882339F09091C00095FFFCCF6B
:1049E0008093C600F6CF8091C00085FFFCCFFAE02F
:1049F000F093C600F201608171816115710519F0B3
:104A00006C5F7F4F02C060E070E021E0AE01405E6D
:104A10005F4FCE0105960E945689811138C0EDE0A6
:104A2000F8E08491882341F09091C00095FFFCCF7D
:104A30008093C6003196F5CFE0E4F7E084918823B7
:104A400041F09091C00095FFFCCF8093C600319655
:104A5000F5CFFE01B0968191882339F09091C00086
:104A600095FFFCCF8093C600F6CFEEE3F7E084918C
:104A7000882341F09091C00095FFFCCF8093C60041
:104A80003196F5CF8091C00085FFFCCF7FC0F20149
:104A9000D182C08284010F5F1F4F69CFC701865A40
:104AA0009F4FF201918380838501F2018081918182
:104AB000009711F0049602C080E090E0B8010E94D7
:104AC000368A882369F1E7E0F8E08491882341F091
:104AD0009091C00095FFFCCF8093C6003196F5CF32
:104AE000E0E3F7E08491882341F09091C00095FFC6
:104AF000FCCF8093C6003196F5CFF80181918823D1
:104B000039F09091C00095FFFCCF8093C600F6CF9E
:104B1000F701E950FE4F108211821282138239C0D0
:104B2000EDE0F8E08491882341F09091C00095FF7A
:104B3000FCCF8093C6003196F5CFE8E1F7E0849191
:104B4000882341F09091C00095FFFCCF8093C60070
:104B50003196F5CFF8018191882339F09091C0000A
:104B600095FFFCCF8093C600F6CFE6E1F7E0849195
:104B7000882341F09091C00095FFFCCF8093C60040
:104B80003196F5CF8091C00085FFFCCF8AE08093FD
:104B9000C600C6010E94B81EAC960FB6F894DEBFE0
:104BA0000FBECDBFDF91CF911F910F91FF90EF907E
:104BB000DF90CF90BF90AF909F908F907F906F903D
:104BC0005F904F903F902F900895CF93DF93EC012B
:104BD00088AD882309F443C0E7E0F8E08491882396
:104BE00041F09091C00095FFFCCF8093C6003196B4
:104BF000F5CFE4E0F7E08491882341F09091C00084
:104C000095FFFCCF8093C6003196F5CFFE01E950A9
:104C1000FE4F40815181628173812AE030E082E45D
:104C20009AE00E94C263E2E0F7E08491882341F0B9
:104C30009091C00095FFFCCF8093C6003196F5CFD0
:104C40004AA95BA96CA97DA92AE030E082E49AE038
:104C50000E94C2638091C00085FFFCCF11C0E2EFCB
:104C6000F6E08491882341F09091C00095FFFCCF3D
:104C70008093C6003196F5CF8091C00085FFFCCFB0
:104C80008AE08093C600CE54DE4F8881882349F1A4
:104C9000EDE0F8E08491882341F09091C00095FF09
:104CA000FCCF8093C6003196F5CFE6EEF6E0849116
:104CB000882341F09091C00095FFFCCF8093C600FF
:104CC0003196F5CF688170E04AE050E082E49AE0E6
:104CD0000E9493638091C00085FFFCCF8AE080939F
:104CE000C600DF91CF910895AF92BF92CF92DF922D
:104CF000EF92FF920F931F93CF93DF935C01EB0131
:104D0000FB0101900020E9F78F0101501109061BFA
:104D1000170B6C01F8E2CF1AFEEFDF0AF6011082E2
:104D20006EE470E0CE010F943B127C01009729F4F1
:104D3000F8013197EC0FFD1F0DC060E270E00F9499
:104D40003B12EC0121966AE270E0C7010F943B121E
:104D5000FC0131978DE081838AE082831382BE015A
:104D6000C5018C529E4F0E94058CF60180818823DC
:104D700009F1EDE0F8E08491882341F09091C000C2
:104D800095FFFCCF8093C6003196F5CFE0EDF6E0BD
:104D90008491882341F09091C00095FFFCCF8093CF
:104DA000C6003196F5CF8091C00085FFFCCF8AE028
:104DB0008093C600DF91CF911F910F91FF90EF90EC
:104DC000DF90CF90BF90AF9008952F923F924F9277
:104DD0005F926F927F928F929F92AF92BF92CF928B
:104DE000DF92EF92FF920F931F93CF93DF93CDB794
:104DF000DEB7CC55D1090FB6F894DEBF0FBECDBFDC
:104E00008C0185509E4F5C01662339F0F5011082BC
:104E1000F80180AD81111EC015C0FC01808188237E
:104E200009F4B3C0F801ED50FE4FC080D180E2809C
:104E3000F3800F940F06C616D706E806F90608F4A5
:104E4000A4C0E4CFC8010E946121F80180AD88238D
:104E500009F49BC0F80187A98F9386A98F9387ECEB
:104E600096E09F938F937E01FFE3EF0EF11CFF927C
:104E7000EF920F948A120F900F900F900F900F9057
:104E80000F90B12CF70101900020E9F73197EE194E
:104E9000FF09BE1684F46701CB0CD11CB7FCDA9471
:104EA000F6018081992787FD90950F948F11F60167
:104EB0008083B394E7CF4801FDE38F0E911C40E05F
:104EC00050E0BA01C4010E946786512CCE010196C0
:104ED0006C0120EC622E26E0722E5E0191E2A90E9A
:104EE000B11C40E050E0B601C4010E94B285181622
:104EF000E4F5412CF60101900020E9F73197EC1917
:104F0000FD094E1674F41601240C311C47FC3A942A
:104F1000F101808190E00F948F11F101808343941F
:104F2000E9CF8A858E37E9F245E050E0B701C60146
:104F30000F944D12892BA9F6FF92EF927F926F92F8
:104F4000BF92AF920F948A1260E0C5010E947B2E3F
:104F50008CEB96E00E940B2F0F900F900F900F900C
:104F60000F900F9055245394BCCF511004C08FEF75
:104F70009FEFF80104C0F80186A997A9019697ABA5
:104F800086ABF801EE54FE4F1082C45ADF4F0FB6C5
:104F9000F894DEBF0FBECDBFDF91CF911F910F916F
:104FA000FF90EF90DF90CF90BF90AF909F908F9049
:104FB0007F906F905F904F903F902F9008950F9348
:104FC0001F93CF93DF93EC018C0108521E4FC80151
:104FD0000E940187C8010E944D8718821982DF91C3
:104FE000CF911F910F910895EF92FF920F931F930E
:104FF000CF93DF93CDB7DEB76F970FB6F894DEBFD0
:105000000FBECDBF8C017C0188E5E80EF11CC80104
:10501000865A9F4FF70191838083EC55FE4F22E023
:1050200030E031832083329670E07183608340E00A
:1050300050E0BA0104960E946786F7018081918151
:105040002BE1FC013496DE01159601900D922A9514
:10505000E1F7FC01828193819C838B8389EA94E050
:105060009A838983AE014F5F5F4F6CE574E0C8019E
:105070000E94491FCE0101960E94B81E6F960FB67E
:10508000F894DEBF0FBECDBFDF91CF911F910F917E
:10509000FF90EF900895CF92DF92EF92FF920F93DF
:1050A0001F93CF93DF93CDB7DEB76F970FB6F8940A
:1050B000DEBF0FBECDBF8C016C0128E5C20ED11C36
:1050C000865A9F4FF60191838083EC55FE4F21E075
:1050D00030E0318320837801F2E0EF1AFEEFFF0A1F
:1050E000F7011182108240E050E0BA0104960E945C
:1050F0006786F601808191812BE1FC013496DE0107
:10510000159601900D922A95E1F7FC018281938119
:105110009C838B8389EA94E09A838983AE014F5FF5
:105120005F4F6CE574E0C8010E94491FCE010196F3
:105130000E94B81EF701808191816F960FB6F89496
:10514000DEBF0FBECDBFDF91CF911F910F91FF90BA
:10515000EF90DF90CF9008954F925F926F927F9281
:105160008F929F92AF92BF92CF92DF92EF92FF9277
:105170000F931F93CF93DF93CDB7DEB76F970FB623
:10518000F894DEBF0FBECDBF8C017B01CE0101962E
:105190000E94AE1EF801EF59FF4F80816801811116
:1051A00004C089E3C80ED11C03C09AE5C90ED11C06
:1051B00021E0A701B6016C5F7F4FCE0105960E94EA
:1051C000568981112DC0E7E0F8E08491882341F0F1
:1051D0009091C00095FFFCCF8093C6003196F5CF2B
:1051E000E6EAF6E08491882341F09091C00095FFB3
:1051F000FCCF8093C6003196F5CFF70181918823CB
:1052000039F09091C00095FFFCCF8093C600F6CF97
:105210008091C00085FFFCCF8AE08093C6003BC030
:10522000F801E155FE4F80818A3068F58F5F8083F9
:10523000A82EB12C38019FE1899F600C711C1124AC
:10524000E12CF12C412C512C43018AE5880E911C54
:1052500099E7690E711CA414B50479F0B4016E0DC0
:105260007F1DC3018E0D9F1D0E9451218FEF481A93
:10527000580A9FE1E91AF108EECFB601C801875834
:105280009F4F0E945121BE016F5F7F4FC801865A18
:105290009F4F0E945121CE0101960E94B81E6F9629
:1052A0000FB6F894DEBF0FBECDBFDF91CF911F9137
:1052B0000F91FF90EF90DF90CF90BF90AF909F90B5
:1052C0008F907F906F905F904F900895EF92FF9234
:1052D0000F931F93CF93DF93EC018C0101551E4F69
:1052E000F8018081882359F181508083BE0167587D
:1052F0007F4FCE01865A9F4F0E945121F12C3FE1F2
:10530000E32EF8018081F816D0F42F2D30E0C9018A
:105310000196E89EB001E99E700D112467587F4FF9
:105320006C0F7D1FE29EC001E39E900D11248758F3
:105330009F4F8C0F9D1F0E945121F394E2CFDF916C
:10534000CF911F910F91FF90EF900895CF93DF932E
:10535000EC010E94E2970E945498CE0188529E4F21
:105360000E944D871A821B828AE996E0DF91CF91D5
:105370000C940B2FFC012491222341F03091C000AA
:1053800035FFFCCF2093C6000196F4CF2AE030E031
:1053900082E49AE00C94C26380919C0590919D05F3
:1053A000181619069CF48091A0059091A10501960C
:1053B00067E070E00F94C40D90939F0580939E0565
:1053C00081E090E090939D0580939C050895FF9265
:1053D0000F931F93CF93DF9382E49AE00E94AF6212
:1053E00080939B052091990530919A058A3061F050
:1053F0008D3051F08A3321F490919805992321F052
:105400002B3331050CF45BC12115310519F41092D1
:10541000980534C280919E0590919F054CE3F42E2F
:10542000F89E8001F99E100D1124F801E20FF31F80
:10543000E755FA4F10822091980521113BC1109237
:105440009805FC01EE55FA4F1082E801C755DA4F76
:105450006EE470E0CE010F943B120097E9F1909357
:105460006A07809369078C1B9D0B800F911F4AE090
:1054700050E060E070E086559A4F0F942C106093D6
:10548000BD077093BE078093BF079093C00700913C
:10549000B9071091BA072091BB073091BC070F5F85
:1054A0001F4F2F4F3F4FC0919E05D0919F05601712
:1054B00071078207930709F422C1FC9EC001FD9E7B
:1054C000900D11246FE579E087559A4F0F94F911EB
:1054D000892B09F014C1A5C16AE270E0CE010F94D6
:1054E0003B12892B09F440C0E8E8F9E08491882355
:1054F00041F09091C00095FFFCCF8093C60031969B
:10550000F5CFE9EBF8E08491882341F09091C00059
:1055100095FFFCCF8093C6003196F5CF4091B90737
:105520005091BA076091BB077091BC072AE030E048
:1055300082E49AE00E946C638091C00085FFFCCFFA
:105540008AE08093C600B6C08091BD079091BE07E7
:10555000A091BF07B091C0078093B9079093BA0795
:10556000A093BB07B093BC0780919E0590919F05C7
:105570002CE3289FE001299FD00D11248E010755AF
:105580001A4F67E470E0C8010F943B12009709F4CA
:105590004AC090936A0780936907801B910B8C0F18
:1055A0009D1F60E070E086559A4F0F94BB0E0F94DC
:1055B000780A64307105B8F58091FC07811119C033
:1055C0008091400881112FC0E6EBF8E08491882398
:1055D00041F09091C00095FFFCCF8093C6003196BA
:1055E000F5CF8091C00085FFFCCF8AE08093C60094
:1055F0001AC0E0E4F8E08491882341F09091C00063
:1056000095FFFCCF8093C6003196F5CF8091C00006
:1056100085FFFCCF8AE08093C6008BEF92E00E946A
:105620006F650E94DCC680919E0590919F052CE3DA
:10563000289FE001299FD00D11248E0107551A4F94
:105640006DE470E0C8010F943B1290936A07809359
:105650006907801B910B8C0F9D1F4AE050E060E0B2
:1056600070E086559A4F0F942C10693671058105AC
:10567000910551F00F940F066093941A7093951A48
:105680008093961A9093971A80919E0590919F050A
:10569000019667E070E00F94C40D90939F0580938E
:1056A0009E0580919C0590919D05019690939D0586
:1056B00080939C0510929A0510929905DFC08B3358
:1056C00019F491E090939805909198059111D6C0A6
:1056D00040919E0550919F05B9016F5F7F4F709378
:1056E0009A05609399059CE3949FF001959FF00DB6
:1056F0001124E20FF31FE755FA4F8083BFC08CE3FC
:105700008C9F80018D9F100D1124E801C755DA4F41
:105710006AE270E0CE010F943B12009791F5E8E841
:10572000F9E08491882341F09091C00095FFFCCF6F
:105730008093C6003196F5CFE3EEF8E0849188239C
:1057400041F09091C00095FFFCCF8093C600319648
:10575000F5CF4091B9075091BA076091BB0770919E
:10576000BC072AE030E082E49AE00E946C638091FA
:10577000C00085FFFCCF8AE08093C6000E94BE5F18
:1057800099CF20E0F12CF801E20FF11DE755FA4F17
:1057900030813A3219F02F5FF326F5CF90936A07E4
:1057A000809369078C1B9D0B800F911F60E070E058
:1057B00086559A4F0F94BB0E0F94780A2F2D30E028
:1057C0002617370709F4C0CEE8E8F9E0849188236A
:1057D00041F09091C00095FFFCCF8093C6003196B8
:1057E000F5CFEDE0F9E08491882341F09091C0007D
:1057F00095FFFCCF8093C6003196F5CF4091B90755
:105800005091BA076091BB077091BC072AE030E065
:1058100082E49AE00E946C638091C00085FFFCCF17
:10582000AACFE8E8F9E08491882341F09091C00084
:1058300095FFFCCF8093C6003196F5CFECE2F9E0FE
:105840008491882341F09091C00095FFFCCF809314
:10585000C6003196F5CF4091B9075091BA076091D3
:10586000BB077091BC072AE030E082E49AE00E9416
:105870006C638091C00085FFFCCF7DCFDF91CF911D
:105880001F910F91FF9008950F931F93CF93DF9374
:10589000CDB7DEB764970FB6F894DEBF0FBECDBFAD
:1058A000FE01319684E1DF011D928A95E9F780912E
:1058B000200A9091210AA091220AB091230A809394
:1058C000370A9093380AA093390AB0933A0A88E1CC
:1058D0009AE00E949B852091F209222309F444C09A
:1058E00080914408811109C080E498E00E9443221D
:1058F00010929A0510929905F8C01092F209109230
:105900009A051092990540919405509195056091E2
:105910009605709197058091720890917308A091F7
:105920007408B09175089250A109B10984179507C0
:10593000A607B70718F410924208D7C04093370A59
:105940005093380A6093390A70933A0A88E19AE0D2
:1059500064960FB6F894DEBF0FBECDBFDF91CF9136
:105960001F910F910C946786482F80939B058A3076
:10597000A1F08D3091F08A3321F4209198052223F3
:1059800061F02091990530919A052B3331052CF463
:105990008F3FBFEF9B0709F085C00091370A109138
:1059A000380A2091390A30913A0A40917208509190
:1059B000730860917408709175080417150726071D
:1059C000370708F08FC0019629F58CC09091C00070
:1059D00095FFFCCF8093C600319684918111F6CF5C
:1059E0008091C00085FFFCCF8AE08093C6000F94B1
:1059F0000F06609302087093030880930408909345
:105A0000050880E498E00E94A62961E080E498E01F
:105A10000E94E5262091990530919A0521153105BE
:105A200019F41092980561C080919E0590919F0590
:105A30004CE3489FF001499FF00D1124E20FF31F42
:105A4000E755FA4F1082FC01EE55FA4F21E0208312
:105A500020919C0530919D052F5F3F4F30939D0510
:105A600020939C05019667E070E00F94C40D90931D
:105A70009F0580939E051092980510929A051092AA
:105A800099058091370A9091380AA091390AB0910E
:105A90003A0A8093940590939505A0939605B09348
:105AA000970523C04B3319F441E04093980540918A
:105AB000980541111AC040919E0550919F05B9016A
:105AC0006F5F7F4F70939A05609399059CE3949F55
:105AD000F001959FF00D1124E20FF31FE755FA4FE7
