:100000000C947D1A0C94AA1A0C94AA1A0C94AA1A8D
:100010000C94AA1A0C94AA1A0C94AA1A0C94AA1A50
:100020000C94AA1A0C94AA1A0C94AA1A0C94AA1A40
:100030000C94AA1A0C94AA1A0C94AA1A0C94AA1A30
:100040000C94AA1A0C940B8F0C94AA1A0C94AA1A4A
:100050000C94AA1A0C94AA1A0C94E5970C94E2F248
:100060000C94AA1A0C9433390C94AA1A0C94AA1A58
:100070000C94AA1A0C94AA1A0C94AA1A0C94AA1AF0
:100080000C94AA1A0C94AA1A0C94AA1A0C94AA1AE0
:100090000C94AA1A0C94AA1A0C94AA1A0C9457AB92
:1000A0000C94AA1A0C94AA1A0C94AA1A0C94AA1AC0
:1000B0000C94AA1A0C94AA1A0C94AA1A0C94AA1AB0
:1000C0000C94AA1A0C94AA1A0C94AA1A0C94AA1AA0
:1000D0000C94AA1A0C94AA1A0C94AA1A0C94AA1A90
:1000E0000C94AA1A084AD73B3BCE016E84BCBFFDD4
:1000F000C12F3D6C74319ABD56833DDA3D00C77FF8
:1001000011BED9E4BB4C3E916BAAAABE0000008090
:100110003F05A84CCDB2D44EB93836A9020C50B91F
:10012000918688083CA6AAAA2ABE000000803F4DFE
:10013000383420582059205A2045006563686F3AAA
:100140000043616E6E6F7420656E74657220737506
:10015000626469723A20004D3234004D32332025FA
:1001600073006175746F25692E67004572726F7236
:100170003A006572726F722077726974696E6720D7
:10018000746F2066696C65004361726420657272E9
:100190006F723A004E6F74205344207072696E740F
:1001A000696E67002F005344207072696E74696E27
:1001B00067206279746520002E0044656C6574695F
:1001C0006F6E206661696C65642C2046696C653AC7
:1001D000200046696C652064656C657465643A004E
:1001E0002E006F70656E206661696C65642C204618
:1001F000696C653A200057726974696E6720746F84
:100200002066696C653A20002E006F70656E20666E
:1002100061696C65642C2046696C653A20002E008B
:100220006F70656E206661696C65642C2046696C30
:10023000653A200046696C652073656C656374657A
:1002400064002053697A653A200046696C65206F26
:1002500070656E65643A20002E006F70656E2066D2
:1002600061696C65642C2046696C653A20005344D2
:100270002063617264206F6B006F70656E526F6FE8
:1002800074206661696C656400766F6C756D652EAF
:10029000696E6974206661696C6564005344206905
:1002A0006E6974206661696C006563686F3A004826
:1002B000617264636F6465642044656661756C7423
:1002C0002053657474696E6773204C6F6164656454
:1002D0000053746F7265642073657474696E67731C
:1002E0002072657472696576656400204400204957
:1002F000002020204D3330312050005049442073DD
:10030000657474696E67733A00205A0020590020A2
:10031000204D323036205800486F6D65206F66667C
:1003200073657420286D6D293A00204500205A001D
:1003300020580020420020540020204D323035202B
:100340005300416476616E63656420766172696111
:10035000626C65733A20533D4D696E206665656435
:100360007261746520286D6D2F73292C20543D4DCA
:10037000696E2074726176656C2066656564726171
:10038000746520286D6D2F73292C20423D6D696E98
:10039000696D756D207365676D656E742074696D28
:1003A0006520286D73292C20583D6D6178696D7525
:1003B0006D205859206A65726B20286D6D2F732946
:1003C0002C20205A3D6D6178696D756D205A206A28
:1003D00065726B20286D6D2F73292C2020453D6D93
:1003E0006178696D756D2045206A65726B20286D96
:1003F0006D2F73290020540020204D3230342053BB
:1004000000416363656C65726174696F6E3A205375
:100410003D616363656C65726174696F6E2C205415
:100420003D7265747261637420616363656C6572AB
:100430006174696F6E00204500205A002059002029
:10044000204D3230312058004D6178696D756D2036
:10045000416363656C65726174696F6E20286D6DB0
:100460002F7332293A00204500205A0020590020DD
:10047000204D3230332058004D6178696D756D2004
:1004800066656564726174657320286D6D2F7329CC
:100490003A00204500205A0020590020204D3932D2
:1004A00020580053746570732070657220756E69F2
:1004B000743A0053657474696E67732053746F7275
:1004C0006564006563686F3A004572726F723A0046
:1004D0005072696E7465722073746F7070656420F9
:1004E00064756520746F206572726F72732E20467A
:1004F000697820746865206572726F7220616E641D
:1005000020757365204D39393920746F20726573F9
:10051000746172742E202854656D706572617475F3
:1005200072652069732072657365742E205365743B
:1005300020697420616674657220726573746172DB
:1005400074696E6729005072696E74657220686103
:100550006C7465642E206B696C6C28292063616C57
:100560006C656421006F6B00526573656E643A20A0
:10057000002200556E6B6E6F776E20636F6D6D613C
:100580006E643A20220020423A300020423A310084
:100590006F6B20523A002200556E6B6E6F776E20A3
:1005A000636F6D6D616E643A2022007A5F6D6178D1
:1005B0003A2000795F6D61783A2000785F6D696E4E
:1005C0003A20005A3A00593A0020436F756E742061
:1005D000583A2000453A005A3A00593A00583A0031
:1005E0004649524D574152455F4E414D453A4D6146
:1005F000726C696E20556C74696D616B6572323B0B
:1006000020537072696E7465722F6772626C206D10
:10061000617368757020666F722067656E3620465C
:1006200049524D574152455F55524C3A6874747067
:100630003A2F2F6669726D776172652E756C7469D9
:100640006D616B65722E636F6D2050524F544F4336
:100650004F4C5F56455253494F4E3A312E30204D44
:10066000414348494E455F545950453A556C746969
:100670006D616B65722045585452554445525F4335
:100680004F554E543A310A0020423A0020453A0074
:10069000543A0020573A0020453A00543A0020428C
:1006A000403A0020403A00202F0020423A00202FFC
:1006B000006F6B20543A004E65656420285029690C
:1006C0006E202320616E6420285329746174757331
:1006D00020746F207365742070696E210020746F20
:1006E00020005365742070696E20230043616E6E94
:1006F0006F74206368616E67652070696E20766133
:100700006C75652C20746861742070696E20697343
:1007100020696D706F7274616E7421002569206D9F
:10072000696E2C2025692073656300456E64206620
:10073000696C65206C69737400426567696E206638
:10074000696C65206C69737400434C49434B2054B9
:100750004F20434F4E54494E554521002073656349
:1007600000574149543A2000554E535550504F526E
:1007700054454420434F4D4D414E443A204D0020B6
:1007800073656300574149543A200000000000009F
:100790000066430000664300000000000000000007
:1007A000000000000066430000664300006643004E
:1007B00000664300006643000066430000E040001E
:1007C00000E0400000E040FF0101256920686F75EE
:1007D0007273202569206D696E7574657300446FAE
:1007E0006E65207072696E74696E672066696C65EB
:1007F000005072696E7465722073746F70706564F6
:100800002064756520746F206572726F72732E207C
:1008100046697820746865206572726F7220616E17
:100820006420757365204D39393920746F207265E5
:1008300073746172742E202854656D7065726174D2
:100840007572652069732072657365742E20536517
:1008500074206974206166746572207265737461B6
:100860007274696E6729006F6B004E6F204C696E61
:1008700065204E756D6265722077697468206368C3
:1008800065636B73756D2C204C617374204C696EBD
:10089000653A20004E6F20436865636B73756D2069
:1008A00077697468206C696E65206E756D6265721B
:1008B0002C204C617374204C696E653A200063688B
:1008C00065636B73756D206D69736D617463682CFE
:1008D000204C617374204C696E653A20004C696E3F
:1008E00065204E756D626572206973206E6F74208D
:1008F0004C617374204C696E65204E756D62657233
:100900002B312C204C617374204C696E653A2000A9
:100910004D31313000446F6E6520736176696E67CA
:100920002066696C652E006F6B004D323900202007
:10093000506C616E6E65724275666665724279745E
:1009400065733A20002046726565204D656D6F72B3
:10095000793A20004A756E2031332032303134002C
:10096000436F6D70696C65643A20005665727369F7
:100970006F6E2031342E30362E325F4500207C20C1
:10098000417574686F723A20004A756E20313320C9
:10099000323031342031373A34373A333500204C55
:1009A00061737420557064617465643A2000312E5F
:1009B000302E30004D61726C696E200020536F66DE
:1009C0007477617265205265736574002057617495
:1009D0006368646F67205265736574002042726FAC
:1009E000776E206F757420526573657400204578AA
:1009F0007465726E616C20526573657400506F7718
:100A000065725570007374617274002200656E71B6
:100A10007565696E6720220077616974696E672069
:100A2000746F20656E717565002200656E71756565
:100A3000696E6720220077616974696E6720746F40
:100A400020656E717565006563686F3A0020746F8C
:100A50006F206C6F6E6720657874727573696F6E46
:100A60002070726576656E7465640020636F6C64D7
:100A700020657874727573696F6E20707265766523
:100A80006E7465640000002110422063308440A52C
:100A900050C660E770088129914AA16BB18CC1AD45
:100AA000D1CEE1EFF13112100273325222B55294DD
:100AB00042F772D662399318837BB35AA3BDD39C95
:100AC000C3FFF3DEE36224433420040114E664C769
:100AD00074A44485546AA54BB528850995EEE5CFE5
:100AE000F5ACC58DD55336722611163006D776F67D
:100AF000669556B4465BB77AA719973887DFF7FE35
:100B0000E79DD7BCC7C448E5588668A77840086108
:100B10001802282338CCC9EDD98EE9AFF948896984
:100B2000990AA92BB9F55AD44AB77A966A711A501C
:100B30000A333A122AFDDBDCCBBFFB9EEB799B58D4
:100B40008B3BBB1AABA66C877CE44CC55C222C03A8
:100B50003C600C411CAEED8FFDECCDCDDD2AAD0B24
:100B6000BD688D499D977EB66ED55EF44E133E32BC
:100B70002E511E700E9FFFBEEFDDDFFCCF1BBF3A74
:100B8000AF599F788F8891A981CAB1EBA10CD12D63
:100B9000C14EF16FE18010A100C230E32004502566
:100BA0004046706760B9839893FBA3DAB33DC31CDA
:100BB000D37FE35EF3B1029012F322D232354214B6
:100BC0005277625672EAB5CBA5A89589856EF54F26
:100BD000E52CD50DC5E234C324A014810466744706
:100BE0006424540544DBA7FAB79987B8975FE77E7A
:100BF000F71DC73CD7D326F2369106B01657667656
:100C000076154634564CD96DC90EF92FE9C899E9C5
:100C1000898AB9ABA94458654806782768C018E1A5
:100C2000088238A3287DCB5CDB3FEB1EFBF98BD819
:100C30009BBBAB9ABB754A545A376A167AF10AD0F5
:100C40001AB32A923A2EFD0FED6CDD4DCDAABD8B65
:100C5000ADE89DC98D267C076C645C454CA23C8345
:100C60002CE01CC10C1FEF3EFF5DCF7CDF9BAFBAB9
:100C7000BFD98FF89F176E367E554E745E932EB295
:100C80003ED10EF01E7C3C3E5E2B3D3F2F5B5D3B1C
:100C90002C2A225C0045313A200045303A20005A87
:100CA0003A2000593A2000583A20004D53312C4D3B
:100CB00053322050696E730A0024F404D9201BC4F7
:100CC0000C5C0E9804C4095F0265077101F405F914
:100CD00000FB04B30048048700C1036900580355B2
:100CE0000003034500BE023A008402310053022A89
:100CF000002902250004022000E4011C00C801199B
:100D000000AF011700980114008401130071011055
:100D1000006101100051010E0043010D0036010B6E
:100D2000002B010B0020010B00150109000C01092B
:100D30000003010800FB000800F3000800EB0007B7
:100D400000E4000600DE000600D8000600D200061F
:100D500000CC000500C7000500C2000500BD00046E
:100D600000B9000400B5000400B1000400AD0004A7
:100D700000A9000400A5000300A20003009F0004D6
:100D8000009B0003009800030095000200930003FD
:100D900000900003008D0002008B00030088000219
:100DA000008600020084000300810002007F000230
:100DB000007D0002007B0002007900020077000144
:100DC000007600020074000200720001007100024F
:100DD000006F0002006D0001006C0002006A00015B
:100DE0000069000200670001006600010065000163
:100DF0000064000200620001006100010060000167
:100E0000005F0002005D0001005C0001005B00016A
:100E1000005A00010059000100580001005700016C
:100E2000005600010055000100540001005300006D
:100E30000053000100520001005100010050000168
:100E4000004F0001004E0000004E0001004D000167
:100E5000004C0001004B0000004B0001004A000163
:100E6000004900010048000000480001004700015F
:100E7000004600000046000100450000004500015A
:100E80000044000100430000004300010042000054
:100E9000004200010041000000410001004000014B
:100EA000003F0000003F0001003E0000003E000146
:100EB000003D0000003D0001003C0000003C00003F
:100EC000003C0001003B0000003B0001003A000034
:100ED000003A00010039000000390001003800002C
:100EE0000038000000380001003700000037000122
:100EF000003600000036000000360001003500001A
:100F0000003500000035000100340000003400000E
:100F10000034000100330000003300000033000102
:100F200000320000003200000032000100310000F9
:100F300000310000003100010030000000300000EE
:100F400000300001002F0000002F0000002F0000E3
:100F5000002F0001002E0000002E0000002E0001D6
:100F6000002D0000002D0000002D0000002D0001CC
:100F7000002C0000002C0000002C0000002C0001C0
:100F8000002B0000002B0000002B0000002B0001B4
:100F9000002A0000002A0000002A0000002A0001A8
:100FA000002900000029000000290000002900009D
:100FB000002900010028000000280000002800008F
:100FC0000028000000280001002700000027000082
:100FD0000027000000270000002700010026000075
:100FE0000026000000260000002600000026000168
:100FF000002500000025000000250000002500005D
:10100000002500000025000100240000002400004D
:101010000024000000240000002400010023000040
:101020000023000000230000002300000023000034
:101030000023000000230001002200000022000025
:101040000022000000220000002200000022000117
:10105000002100000021000000210000002100000C
:1010600000210000002100000021000100200000FC
:1010700000200000002000000020000000200000F0
:10108000002000000020000000200001001F0000E0
:10109000001F0000001F0000001F0000001F0000D4
:1010A000001F0000001F0001001E0000001E0000C5
:1010B000001E0000001E00000024F4D43050C38E37
:1010C00020C2A24017828B7011127A910D816CD9C7
:1010D0000AA861E108C7586607615143061E4B5DC7
:1010E00005C145A7041A411104093D98037139311E
:1010F000034036DB0265339102D4305402802E1D4A
:1011000002632CEE01752AC501B028A001102781C9
:10111000018F2564012B244B01E0223401AC211FF7
:10112000018D200D01801FFC00841EED00971DDF46
:1011300000B81CD200E61BC600201BBC00641AB21B
:1011400000B219A8000A19A0006A189900D11791D5
:101150000040178B00B516840031167E00B3157958
:10116000003A157300C7146F0058146A00EE136636
:10117000008813630025135E00C7125B006C1257D2
:101180000015125400C111510070114F0021114B74
:1011900000D61049008D104700461044000210424E
:1011A00000C00F4000800F3E00420F3C00060F3B86
:1011B00000CB0E3800930E37005C0E3500270E343E
:1011C00000F30D3200C10D3100900D3000600D2E86
:1011D00000320D2D00050D2C00D90C2B00AE0C2972
:1011E00000850C29005C0C2700350C27000E0C260E
:1011F00000E80B2400C40B2400A00B23007D0B236C
:10120000005A0B2100390B2100180B2000F80A1F8F
:1012100000D90A1E00BB0A1E009D0A1D00800A1D7F
:1012200000630A1C00470A1B002C0A1B00110A1A43
:1012300000F7091A00DD091900C4091900AB0919E2
:1012400000920917007B091800630917004C091662
:101250000036091600200916000A091500F50815C0
:1012600000E0081400CC081400B8081400A4081406
:1012700000900813007D0812006B08130058081234
:10128000004608120034081100230811001208114A
:101290000001081100F0071000E0071000D007104F
:1012A00000C0071000B0070F00A107100091070E43
:1012B0000083070F0074070F0065070E0057070E25
:1012C0000049070E003B070D002E070E0020070DFA
:1012D0000013070D0006070D00F9060C00ED060DC2
:1012E00000E0060C00D4060C00C8060C00BC060C7E
:1012F00000B0060C00A4060B0099060C008D060B2E
:101300000082060B0077060B006C060B0061060AD4
:101310000057060B004C060A0042060A0038060A6F
:10132000002E060A0024060A001A060A0010060902
:101330000007060A00FD050900F4050900EB050990
:1013400000E2050900D9050900D0050900C7050913
:1013500000BE050900B5050800AD050800A5050992
:10136000009C050800940508008C05080084050809
:10137000007C050800740508006C05070065050879
:10138000005D050700560508004E050700470507E4
:10139000004005080038050700310507002A050749
:1013A00000230507001C050600160507000F0507AA
:1013B000000805060002050700FB040600F5040707
:1013C00000EE040600E8040600E2040700DB040661
:1013D00000D5040600CF040600C9040600C30406B5
:1013E00000BD040600B7040600B1040500AC040605
:1013F00000A6040600A00405009B04060095040551
:1014000000900406008A0405008504050080040697
:10141000007A04050075040500700405006B0405DE
:101420000066040500610405005C0405005704051E
:1014300000520405004D040500480405004304055E
:10144000003E0404003A040500350405003004049D
:10145000002C04050027040400230405001E0404D6
:10146000001A04040016040500110404000D04040D
:1014700000090405000404040000040400FC030443
:1014800000F8030400F4030400F0030400EC030478
:1014900000E8030400E4030400E0030400DC0304A8
:1014A00000D8030400D4030400D0030400CC0304D8
:1014B00000C8030300C50303006563686F3A00209A
:1014C0005A3A0020593A0020583A00656E64737405
:1014D0006F7073206869743A20004572726F723AB7
:1014E0000054656D70657261747572652068656120
:1014F00074656420626564207377697463686564E9
:10150000206F66662E204D415854454D5020747210
:1015100069676765726564202121003A2045787407
:101520007275646572207377697463686564206F8F
:1015300066662E204D494E54454D502074726967A1
:1015400067657265642021003A204578747275647D
:101550006572207377697463686564206F66662EB0
:10156000204D415854454D5020747269676765722B
:101570006564202100202D20496E76616C6964200D
:101580006578747275646572206E756D626572201F
:10159000210000000000300E0100C00E0A00500FB4
:1015A0001400D00F1E0060102800E01032007011EF
:1015B0003C00F01146007012500000135A008013D6
:1015C000640000146E0090147800101582009015CD
:1015D0008C00101696009016A0001017AA00901705
:1015E000B4001018BE009018C8001019D20090194D
:1015F000DC00101AE600801AF000001BFA00801BC5
:101600000401F01B0E01701C1801F01C2201601D6A
:101610002C01E01D3601501E4001D01E4A01401F22
:101620005401B01F5E0130206801A020720110211A
:101630007C0190218601002290016026F401902A0D
:101640005802802EBC0250322003E035840350390A
:10165000E803803C4C04504944204175746F747514
:101660006E652066696E69736865642120507574C3
:1016700020746865204B702C204B6920616E6420BB
:101680004B6420636F6E7374616E747320696E7443
:101690006F20436F6E66696775726174696F6E2E35
:1016A0006800504944204175746F74756E652066FA
:1016B00061696C6564212074696D656F75740020C3
:1016C000403A006F6B20543A006F6B20423A005052
:1016D0004944204175746F74756E65206661696C4C
:1016E0006564212054656D70657261747572652042
:1016F000746F6F206869676800204B643A2000208F
:101700004B693A2000204B703A200020436C6173F3
:1017100069632050494420002054753A2000204B32
:10172000753A2000206D61783A2000206D696E3A8C
:10173000200020643A200020626961733A2000652D
:1017400063686F3A004C43443A20004C43443A20CB
:10175000004D41494E54454E414E4345004D415484
:10176000455249414C005052494E54005072696EE6
:1017700074696E672077697468205553422E2E2E47
:1017800000737570706F727440756C74696D616B05
:1017900065722E636F6D00436F6E746163743A00FF
:1017A0005361666574792063697263756974005466
:1017B000656D702073656E736F72204245440054EE
:1017C000656D702073656E736F72004552524F5293
:1017D000202D2053544F5050454400496E76616C83
:1017E0006964206D6174657269616C2073657474DD
:1017F000696E677320666F756E642C207265736501
:101800007474696E6720746F2064656661756C74AA
:101810007300801506060606FEFEFEFEFC000000B4
:1018200000000000FCFEFEFEFC0000000EFEFEFEBE
:10183000FE0000E0FCFEFEFCE0E0000000CECECEAC
:10184000000000C0C0C0C0C0C08000000000000098
:1018500080C0C0800000000000008080C0C0C0C008
:10186000C0C0C080800000000006FEFEFEFE00003A
:10187000000080C0C0C00000000000008080C0C028
:10188000C080808000000000C0C0C0C00080C0C018
:10189000C0C08000000000007FFFFFFFFF8000004D
:1018A00000000080FFFFFFFFFF00000000FFFFFFC0
:1018B000FF000000FFFFFFFF0000000000FFFFFF30
:1018C00000000081F1FFFF3F0F3FFFFCF0F0FCFF45
:1018D0003F0F3FFFFEF880000000C1E1F1F17131E0
:1018E000010183FFFFFFFC000000FFFFFFFF000C72
:1018F0003EFFFFF7C301000000FCFEFF870311312C
:1019000031333F3F3F1E000001FFFFFFFF07030190
:10191000010101000000000000010307070F0F0F85
:101920000F0F0F0F0707070F0F06000000070F0F1D
:1019300007000000070F0F0700000000000F0F0F47
:101940000000060F0F070100000001070F0F07013D
:1019500000000001070F0F06000003070F0F0E0E17
:10196000060703070F0F07000000070F0F0700000F
:101970000000030F0F0F060000000307070F0E0EF5
:101980000E0E0E0E06000000000F0F0F0F000000DD
:10199000000000008015090909F90101010103FE99
:1019A0000000000000FE0301010103FE001FF10121
:1019B000010101FFF01E030101031E10F000FF31C1
:1019C0003131FF00E020202020202060C080000076
:1019D00080C060202060C000000000C04060202067
:1019E00020202020206040C080000FF9010101016B
:1019F000FF0080C060202020E000000080C0406028
:101A0000202020604040C08000E020202020E060B6
:101A10002020202060C0000000FF80000000007F28
:101A2000C0808080C07F0000000000FF0000FF0039
:101A3000000000FF01FF00000000FF010100FF00A7
:101A40000000FF00C37A0E0000C070C000030E0E3D
:101A50000300C070C00001077CC000E3321A0A0A0C
:101A60008ACAFAC67C00000003FE00FF00000000E6
:101A7000FF73C10000083CE68300FE03010078FC10
:101A8000EE4A4E4C404040613F03FE00000000F82B
:101A90000C06020202030000000003060C081810E6
:101AA0001010101010101808181010190F000F182F
:101AB0001010180F000F181010180F0000001F1042
:101AC00010101F0F191010180E0300030E1810101D
:101AD000180E0300030E181010190F070C18101021
:101AE000111119080C181010180F000F18101018E9
:101AF0000F0001071C101010190F01070C08181017
:101B0000111111111111190F00001F101010101FC9
:101B10000000000000002F40000000000000000056
:101B200000000000808080C0E0FEFF191E98989899
:101B30001818181818189E9F991E38F0E000000019
:101B40000000000000000000000000000000000095
:101B50003CFEFFFF99F1E1C3FFFF00006363636098
:101B600060606060606363630000FFFF7C380000BA
:101B700000000000000000000080C060B0D8D81C49
:101B8000FCFF3F0F8FCFC7C7C7C6C6C6C6C6C6C6EF
:101B9000C6C6C6C6C6C6C6C6C6C7C7C4CC0C1CF811
:101BA000F870C00000000EFFF92A2B2B2828FCFF3C
:101BB000FF0000FFFFFFFFFFFFFFBFB717B5BDB579
:101BC00000B5B5F717FFBFBFFFFFFFFF0000FFFF26
:101BD000FCFF0700C0F0FFFFFDDD1D19193FFFFFEF
:101BE0000000FFFFFFFFFFFFFFFBF1FBFBEAEEC082
:101BF000EEEAFAF0FAFAFFFFFFFFFF0000FFFF0F27
:101C00001FF8E00003070F0F1B1819FBFEFFFFF082
:101C1000E0C0C1E1F1F1F1F1F1F1F1F1F1F1F1F92E
:101C2000F9F9F9F9F9797979F1F010181F07060334
:101C3000030000000000000000F8FFEFDFBF7FFF9F
:101C4000FFFF404143437F212020217FFFFFFF3FD3
:101C5000B091D1DFD050581F1FF0F00000000000FD
:101C60000000000000000003070F1E3D7B77EED14F
:101C7000DEDECF4B4B6969686868603F3F373737B6
:101C8000353430101018181A1B0F06000000000021
:101C9000100FFC0E0FCFCFCFCECCCCCCCCCCCCDC2D
:101CA000C0C007707E7F7F7F7F7F7F7F7F7F7F7F4A
:101CB0000F017120FFFFFFFFFFFFFFFFFFFFFCE0B1
:101CC00000000000000000000000E0FCFFFFFFFF3C
:101CD000FFFFFFFFFFFF000000000000000000000A
:101CE00000000000000000000000000000000000F4
:101CF000FFFFFFFFFFFFFF000000000000000000EB
:101D000000000000000000000000000000000000D3
:101D100000000000000000000000000000000000C3
:101D20000000000000FFFFFFFFFFFFFF7FFFFFFF3E
:101D3000FFFFF8800000000080F0FFFFFFFFFF3F83
:101D4000FFFFFFFFFFFFFF00000030F8F8FCFC7E04
:101D50007E7E3E3E3E3E7E7EFEFEFCFCF8E0800047
:101D600000FFFFFFFFFFFFFF000080C0E0F0F8FC76
:101D7000FEFE7E3E1E0E06C0E0F0F8FCFCFE7E3E3F
:101D80003E3E3E3E7EFEFCFCF8F0C0800000FEFEC3
:101D9000FEFEFEFEFEFEFFFFFFFFFFFFFF00031F34
:101DA000FFFFFFFFFFFCE0E0FCFFFFFFFFFF1F0165
:101DB00000FFFFFFFFFFFFFF0000C0E0F0F0F8F8BA
:101DC000FC7C7C3C3C3E1E1E1EFFFFFFFFFFFFFF16
:101DD0000000FFFFFFFFFFFFFFFEFFFFFFFFFFFF12
:101DE000FFF1C080000000FFFFFFFFFFFFFF3C3C52
:101DF0003C3C3C3C3C3C3C3F3F3F3F3F3F000000C5
:101E000000000000000000FFFFFFFFFFFFFF0000D9
:101E10000000073FFFFFFFFFFFFFFFFF3F0700003E
:101E20000000FFFFFFFFFFFFFF00003F7FFFFFFFFE
:101E3000FFFCFCF8F8F87C7C3C3EFFFFFFFFFFFF57
:101E4000FF0000FFFFFFFFFFFFFF0301000003078C
:101E50001F7FFFFFFFFEFCF0E38F1F3F3F7F7FFEF2
:101E6000FCF8F8F0F0F0F8F8FCFC7E7E3C30000066
:101E7000FEFEFEFEFEFEFEFE43414E43454C0020AC
:101E800073656300206D696E0020686F75720020B5
:101E9000686F7572730011150A00001915120000A1
:101EA000300C43A8900205728888000000000000F2
:101EB000005F00000007000700147F147F14242A2D
:101EC0007F2A122313086462364955225000050305
:101ED0000000001C2241000041221C00082A1C2A8C
:101EE0000808083E080800503000000808080808E4
:101EF000006060000020100804023E5149453E0089
:101F0000427F400042615149462141454B311814FE
:101F1000127F1027454545393C4A4949300171092E
:101F200005033649494936064949291E0036360017
:101F30000000563600000008142241141414141432
:101F400041221408000201510906324979413E7EBE
:101F50001111117E7F494949363E414141227F415D
:101F600041221C7F494949417F090901013E414104
:101F700051327F0808087F00417F41002040413FE7
:101F8000017F081422417F404040407F0204027FCD
:101F90007F0408107F3E4141413E7F090909063E0A
:101FA0004151215E7F0919294646494949310101BC
:101FB0007F01013F4040403F1F2040201F7F2018ED
:101FC000207F6314081463030478040361514945B6
:101FD0004300007F4141020408102041417F00007E
:101FE000040201020440404040400001020400207D
:101FF000545454787F484444383844444420384446
:1020000044487F3854545418087E09010208145477
:10201000543C7F0804047800447D40002040443D47
:1020200000007F10284400417F40007C04180478A1
:102030007C0804047838444444387C141414080898
:102040001414187C7C080404084854545420043F99
:102050004440203C4040207C1C2040201C3C403020
:10206000403C44281028440C5050503C4464544C8C
:1020700044000836410000007F000000413608009F
:1020800008082A1C08081C2A08086275696C647014
:102090006C6174652E006F662061646A7573746983
:1020A0006E6720796F7572007468726F756768204B
:1020B0007468652070726F63657373004920776977
:1020C0006C6C20677569646520796F750043414EBB
:1020D00043454C00434F4E54494E5545004731202F
:1020E000462569205A256920582569205925690007
:1020F000473238205A302058302059300066726FED
:102100006D20746865206275696C64706C617465BB
:102110002E0061206D696C6C696D6574657220615B
:1021200077617900756E74696C20746865206E6FD4
:102130007A7A6C6520697300526F746174652074DB
:10214000686520627574746F6E00342F32310043FD
:102150004F4E54494E554500434F4E54494E5545F8
:1021600000473120462569205A3000473120462556
:10217000692058256920592569004731204625697D
:10218000205A350066726F6D20746865206275692B
:102190006C64706C6174652E0069732061206D69D8
:1021A0006C6C696D65746572206177617900736329
:1021B0007265772074696C6C20746865206E6F7A24
:1021C0007A6C65005475726E206C65667420627559
:1021D000696C64706C61746500352F323100434F57
:1021E0004E54494E554500473120462569205A3006
:1021F0000047312046256920582569205925690066
:10220000473120462569205A350066726F6D20746B
:102210006865206275696C64706C6174652E006914
:10222000732061206D696C6C696D657465722061E5
:102230007761790073637265772074696C6C2074C0
:102240006865206E6F7A7A6C65005475726E2072C4
:1022500069676874206275696C64706C617465008C
:10226000362F323100434F4E54494E554500746865
:1022700065206275696C64706C617465206C65764C
:10228000656C2E00706170657220746F2066696ED7
:10229000652D74756E65006E6F77207573652061AE
:1022A000207368656574206F66005265706561749F
:1022B000207468697320737465702C2062757400D3
:1022C000372F323100434F4E54494E554500473168
:1022D00020462569205A300047312046256920587C
:1022E00025692059256900473120462569205A353E
:1022F0000062697420726573697374616E63652E20
:1023000000756E74696C20796F75206665656C2048
:1023100061006275696C64706C61746520616E64E3
:10232000206E6F7A7A6C6500536C69646520612059
:102330007061706572206265747765656E00382F14
:10234000323100434F4E54494E554500434F4E5491
:10235000494E554500746865206C65667420636F4E
:10236000726E65722E2E2E00526570656174207437
:1023700068697320666F7200392F323100434F4E07
:1023800054494E5545007468652072696768742029
:10239000636F726E65722E2E2E00526570656174C9
:1023A000207468697320666F720031302F323100FB
:1023B000434F4E54494E554500444F4E4500746FAF
:1023C00020696E73657274206D6174657269616CE9
:1023D0002E00746865206E657874207374657020B3
:1023E000697300746865206275696C64706C6174EF
:1023F00065004E6F772074686174207765206C6586
:1024000076656C65640031312F323100434F4E5494
:10241000494E5545004D3834004731204631323061
:102420003030205831313020593130006D617465C1
:102430007269616C206C6F6164696E6700707269AB
:102440006E74686561642068656174696E67206692
:102450006F7200506C6561736520776169742C0040
:1024600031322F32310061626F76652074686520E9
:102470006172726F772E00796F757220556C746976
:102480006D616B6572322C0066726F6D20746865C9
:102490002072656172206F6600496E7365727420E8
:1024A0006E6577206D6174657269616C0031332FE0
:1024B000323100434F4E54494E5545004C6F6164D4
:1024C000696E67206D6174657269616C2E2E2E00D5
:1024D00031342F32310066726F6D206E6F7A7A6CF4
:1024E000652E2E2E006D6174657269616C206578B1
:1024F000697473005075736820627574746F6E2010
:102500007768656E0031352F323100434F4E5449A4
:102510004E554500556C74696D616B6572322E00C5
:10252000696E73657274656420696E2074686520D5
:10253000006D6174657269616C20796F75206861E6
:102540007665004E6578742C2073656C6563742025
:102550007468650031362F323100524541445900CC
:1025600031372F32310041425300504C41006973E2
:1025700020746869732072696768743F0041425330
:10258000206173206D6174657269616C2C00596FF4
:102590007520686176652063686F73656E003138F9
:1025A0002F3231004E4F0059455300697420697332
:1025B000207573696E672E006F66206D6174657299
:1025C00069616C006B6E6F77732077686174206B44
:1025D000696E64004E6F7720796F757220556C7448
:1025E000696D616B6572320031392F323100434FB2
:1025F0004E54494E5545006D616B65206120334452
:10260000205072696E74210049276D2072656164E3
:1026100079206C657427730032302F3231004152BB
:102620004520594F552052454144593F00746F2071
:102630007072696E742069742100616E642070721A
:102640006573732074686520627574746F6E006FB3
:102650006E207468652053442D6361726400536575
:102660006C6563742061207072696E742066696C99
:10267000650032312F3231004C45542753205052DF
:10268000494E540052656164696E672063617264EB
:102690002E2E2E0032312F323100796F7572205577
:1026A0006C74696D616B6572322E2E2E00746861D8
:1026B000742063616D65207769746800506C656192
:1026C000736520696E736572742053442D63617263
:1026D000640032312F3231006973207468697320CD
:1026E00072696768743F00504C41206173206D61CE
:1026F00074657269616C2C00596F7520686176652C
:102700002063686F73656E0031382F3231004E4F91
:102710000059455300473238205A300062757474AE
:102720006F6E20746F20636F6E74696E75650055EF
:102730006C74696D616B65722120507265737320D2
:102740007468650073746172747570206F662079A7
:102750006F75720057656C636F6D6520746F2074C0
:10276000686520666972737400312F323100434FFF
:102770004E54494E5545006120666972737420724B
:10278000756E2077697A6172642E0077616C6B20B8
:10279000796F75207468726F756768006669727307
:1027A00074207374617274757020492077696C6C41
:1027B000004265636175736520746869732069738D
:1027C0002074686500322F323100434F4E54494E19
:1027D000554500473120462569205A256900473272
:1027E00038205A3000676F696E6720746F20646FFD
:1027F0002074686174206E6F772E0061646A75734F
:10280000746D656E74732C20776520617265007736
:1028100065206E65656420746F20646F20736F6D32
:1028200065004166746572207472616E73706F72B8
:10283000746174696F6E00332F323100434F4E5410
:10284000494E554500473120462569205A256920C3
:1028500058256920592569004732382058302059B9
:1028600030001F007E00436C69636B20746F207220
:10287000657475726E004275696C64706C61746524
:102880002074656D702E3A0052455455524E0041E9
:102890004456414E434544004255494C442D7C50DA
:1028A0004C415445004731205A34300047323820DB
:1028B0005A3000473238205A3000473238205830DA
:1028C00020593000414456414E43454400746F2026
:1028D00064656661756C743F005265736574206D44
:1028E0006174657269616C73004E4F005945530005
:1028F000746F2064656661756C743F005265736522
:10290000742065766572797468696E67004E4F0051
:10291000594553006D003A005072696E74696E67D4
:102920003A003A004D616368696E65206F6E2066FB
:102930006F723A0052657475726E005665727369F3
:102940006F6E2031342E30362E325F45004A756E60
:1029500020313320323031342031373A34373A3471
:10296000330052657475726E006D6D2F73004D618A
:1029700078207370656564205A006D6D2F73004D6B
:1029800061782073706565642059006D6D2F730048
:102990004D61782073706565642058006D6D2F73EC
:1029A00000582F59204A65726B0030306D6D2F73BF
:1029B0001D00416363656C65726174696F6E004DE3
:1029C0004F54494F4E006D6D2F73006D6D2F730086
:1029D0006D6D2F73006D6D2F73006D6D2F731D0066
:1029E0003F3F3F004D6178207370656564205A0059
:1029F0004D61782073706565642059004D617820C1
:102A00007370656564205800582F59204A65726BB1
:102A100000416363656C65726174696F6E003C2090
:102A200052455455524E006D6D2F730052657472AD
:102A3000616374207370656564006D6D0052657428
:102A400072616374206C656E6774680052455452FD
:102A5000414354494F4E006D6D2F73006D6D003F23
:102A60003F3F0052657472616374207370656564E2
:102A70000052657472616374206C656E67746800DF
:102A80003C2052455455524E001F007E00436C6955
:102A9000636B20746F2072657475726E00526F7470
:102AA00061746520746F2065787472756465004E7A
:102AB0006F7A7A6C652074656D7065726174757279
:102AC000653A001F007E00436C69636B20746F20C1
:102AD00072657475726E004E6F7A7A6C65207465DB
:102AE0006D70657261747572653A00250042726995
:102AF0006768746E657373004C45440025003F3F62
:102B00003F0020476C6F77207768656E20646F6E9A
:102B10006500204F6E207768696C65207072696E61
:102B200074696E670020416C77617973204F666627
:102B30000020416C77617973204F6E0042726967A3
:102B400068746E657373003C2052455455524E00B4
:102B50003F3F3F005265736574204D617465726933
:102B6000616C7300466163746F727920726573657E
:102B7000740052756E74696D6520737461747300AE
:102B800056657273696F6E004D6F74696F6E207356
:102B9000657474696E6773005265747261637469F9
:102BA0006F6E2073657474696E6773004D6F766520
:102BB000206D6174657269616C0052616973652092
:102BC0006275696C64706C617465004C6F776572D6
:102BD000206275696C64706C61746500486F6D6526
:102BE000206865616400486561747570206275696C
:102BF0006C64706C61746500486561747570206EFA
:102C00006F7A7A6C65004C45442073657474696E04
:102C10006773003C2052455455524E006563686FFF
:102C20003A002E2E2E2E2E4F4B207769746820707E
:102C3000726573657420232000436865636B696E59
:102C4000672070726573657420232000466F756E6F
:102C50006420707265736574733A200047454E4571
:102C600052494320504C4100D2003C00646400664D
:102C700066364047454E455249432041425300FA8B
:102C8000006900326B006666364049433344204198
:102C9000425300000000EB006900326B00666636AC
:102CA000404A4554204142530000000000FA0069A8
:102CB00000326B00CDCC3C4045434F464C4558203C
:102CC000504C4100EB004B00646E00666636405489
:102CD00020363138204E594C4F4E00F5002D0064FF
:102CE0006E006666364054474C4153452F5045545C
:102CF0002B00E1004600645A009A9939404D6174F6
:102D0000657269616C732072657365740052455415
:102D100055524E0053455454494E47530043484181
:102D20004E4745004D4154455249414C0053656C56
:102D30006563746564206D6174657269616C3A00E5
:102D40004F4B0025004D6174657269616C20666CA3
:102D50006F7700250046616E207370656564006DB5
:102D60006D004D6174657269616C204469616D65C7
:102D70007465720043004275696C64706C617465BF
:102D80002054656D702E00430054656D706572614E
:102D900074757265004D4154455249414C00505282
:102DA0004553455453004E657720707265736574C2
:102DB000003C2052455455524E00250025006D6DB3
:102DC000001F001F003F3F3F0053746F726520617A
:102DD000732070726573657400466C6F77202500F0
:102DE00046616E004469616D657465720048656195
:102DF000746564206275696C64706C6174650054FC
:102E0000656D7065726174757265003C2052455441
:102E100055524E004D6F6469667920746865207361
:102E2000657474696E677300250046616E3A200010
:102E30001F001F002500466C6F773A006D6D004340
:102E40007573746F6D697A65003C20524554555214
:102E50004E00666F72206D6174657269616C2072DC
:102E6000656D6F76616C0048656174696E6720708E
:102E700072696E746865616400473238205830208A
:102E8000593000526576657273696E67206D6174A2
:102E9000657269616C0052656D6F7665206D617455
:102EA000657269616C0043414E43454C0052454197
:102EB0004459004731204625692058256920592565
:102EC00069004732382058302059300061626F76EF
:102ED0006520746865206172726F772E00796F7556
:102EE00072206D616368696E652C0066726F6D207B
:102EF000746865206261636B73696465206F660046
:102F0000496E73657274206E6577206D61746572A9
:102F100069616C0043414E43454C00524541445960
:102F200000466F7277617264696E67206D617465C7
:102F30007269616C00636F6D6573206F75742074C6
:102F40006865206E6F7A7A6C6500576169742074C9
:102F5000696C6C206D6174657269616C0043414EEF
:102F600043454C005245414459004D415445524956
:102F7000414C00250046616E3A20001F001F0025CD
:102F800000466C6F773A006D6D001F007E00436C49
:102F900069636B20746F2072657475726E004E6F7A
:102FA0007A7A6C652074656D70657261747572658E
:102FB0003A005344204341524400473120463132C5
:102FC0003030302058352059313000473238003BFE
:102FD000464C41564F523A556C746947436F64658D
:102FE000003B464C41564F523A556C746947436F0B
:102FF0006465004E6F2066696C657320666F756E40
:103000006421004F4B004F4B0052656164696E674D
:1030100020636172642E2E2E00506C6561736520F2
:10302000696E736572742063617264004E6F205321
:10303000442D4341524421003C204241434B003C3B
:103040002052455455524E0066726F6D207468656B
:1030500020736C696365722E0073657474696E67A2
:1030600020776974682073657474696E67006F7681
:10307000657272696465206D616368696E6500548C
:103080006869732066696C652077696C6C004341E0
:103090004E43454C00434F4E54494E55450048451C
:1030A000524520574520474F21004D3834004732C4
:1030B0003800473120462569204530004739322005
:1030C00045256900436F64653A0053442D6361727E
:1030D00064210072656164696E67004572726F7287
:1030E000207768696C650052455455524E20544F04
:1030F000204D41494E00596F752063616E20726505
:103100006D6F7665005072696E742066696E6973C2
:10311000686564001F001F202020005072696E74D3
:10312000657220636F6F6C696E6720646F776E00E5
:10313000446F6E6520696E20004241434B20544F1E
:10314000204D454E550054696D65206C65667400D0
:1031500054696D65206C65667420756E6B6E6F7753
:103160006E001F0048656174696E67206275696C46
:1031700064706C617465001F0048656174696E67F6
:1031800000746F20636F6E74696E756500507265B0
:10319000737320627574746F6E006D6D2F73006DA4
:1031A0006D1C2F73001F2020007E0041424F52549F
:1031B0000054554E450041626F727420746865205A
:1031C0007072696E743F004E4F00594553002500E0
:1031D0004272696768746E6573730025004D61748F
:1031E000657269616C20666C6F7700250046616EC0
:1031F0002073706565640025005072696E742073D9
:1032000070656564004D36303120583130205932B8
:1032100030205A30204C3330004D36303120583178
:103220003020593230205A32204C3330004D363065
:10323000312058313020593230205A3230204C332E
:10324000300054554E45006D6D2F730052657472F9
:10325000616374207370656564006D6D0052657400
:1032600072616374206C656E6774680052455452D5
:10327000414354494F4E006D6D2F73006D6D003FFB
:103280003F3F0052657472616374207370656564BA
:103290000052657472616374206C656E67746800B7
:1032A0003C2052455455524E002500250025001F54
:1032B000001F0025004C4544204272696768746E07
:1032C0006573730052657472616374696F6E004D4B
:1032D0006174657269616C20666C6F770046616E1F
:1032E000207370656564004275696C64706C61740C
:1032F000652074656D702E0054656D706572617423
:103300007572650053706565640050617573696E10
:10331000672E2E2E00526573756D650043616E2019
:103320006E6F742070617573650050617573650010
:103330003C2052455455524E001F001F0048656105
:1033400074696E672075702E2E2E0041424F5254C4
:103350000054554E45004E6F20696E666F206176B1
:1033600061696C61626C65006D006D004D61746532
:103370007269616C3A200054696D653A20003B4DDA
:103380004154455249414C3A003B54494D453A005D
:10339000466F6C6465720000002100240027002A3B
:1033A000002D003000330001010000040107010A74
:1033B0000100002200250028002B002E00310034DF
:1033C0000002010000050108010B0100002000239C
:1033D00000260029002C002F00320000010000030D
:1033E0000106010901050505050705080808080289
:1033F0000202020A0A08080404040401010101018E
:103400000101010303030303030303040707070C7C
:103410000C0C0C0C0C0C0C02020202060606060632
:103420000606060B0B0B0B0B0B0B0B0102102020DF
:103430000808102040102040800201020108040208
:10344000010102040810204080804020100804027E
:1034500001800402018040201008040201080402D7
:1034600001010204081020408001020408102040DD
:10347000800000090A02080B0C0D07060304010076
:10348000000000000000000000000000000000003C
:103490000000000000000000000000000011100FFC
:1034A000000000000000000000000000000000001C
:1034B00000000000000000494E46494E4954594E54
:1034C000414ECDCCCC3D0AD7233C17B7D13877CC71
:1034D0002B329595E6241FB14F0A000020410000D1
:1034E000C84200401C4620BCBE4CCA1B0E5AAEC58A
:1034F0009D74C739BF3C4FF2B83C11241FBECFEFBB
:10350000D1E2DEBFCDBF00E00CBF15E0A0E0B2E02D
:10351000ECEFF6EF01E00BBF02C007900D92AA346A
:10352000B107D9F71BBE1FE1AAE4B5E001C01D92A7
:10353000A434B107E1F714E3C8EFD4E304C0229741
:10354000FE010E9423FBC23FD107C9F70E94C8F5C4
:103550000C9471FB0C940000A0E0B0E0E2EBFAE107
:103560000C9440FBEC015B016115710519F0FB0146
:1035700091838083F9908F2D90E00E9427FB892B07
:10358000C9F7FDE2FF1621F4F990EE24E39405C09B
:103590002BE2F21609F4F990EE248E01015010404E
:1035A000C80167EB74E343E050E00E948F1D892B54
:1035B00001F58E010E5F1F4FC8016AEB74E345E011
:1035C00050E00E948F1D892B19F48E01095F1F4F57
:1035D000A114B10419F0F50111830083E0FC04C0CB
:1035E00070E090E080E814C070E090E080E86FEF59
:1035F00008C1C8016FEB74E343E050E00E948F1DE7
:10360000892B69F4A114B10429F470E090E080ECF6
:103610006FE7F7C02296F501D183C083F6CF8824E7
:10362000992440E050E060E070E0EF2DE053EA3094
:10363000A0F5F2E0EF2A8E2D90E09C01287030700A
:10364000E2FE06C0232B79F50894811C911C2BC047
:10365000232B19F0089481089108DB01CA0112E0BC
:10366000880F991FAA1FBB1F1A95D1F7480F591F22
:103670006A1F7B1F440F551F661F771F4E0F511D7A
:10368000611D711D483929E9520729E9620729E1BD
:10369000720748F084E0E82A06C0EE3F31F4E3FC0C
:1036A00039C098E0E92AF990C0CFE53311F0E5314F
:1036B00089F529912D3219F4E0E1EE2A05C02B326B
:1036C00019F081E090E003C0299182E090E0E22FC0
:1036D000E053EA3018F0C81BD90B1CC020E030E0E2
:1036E000FCE020383F075CF4C901880F991F880F60
:1036F000991F280F391F220F331F2E0F311DE991FB
:10370000E053EA3068F3E4FE03C0309521953F4F63
:10371000820E931ECE2CDD24E1FE07C0A114B1045D
:1037200021F02197F501D183C083CB01BA010E941A
:103730007CF77B018C01F3E0CF22DD2423E0C2166D
:10374000D10421F417FB109517F910955701680162
:10375000C801B70120E030E040E050E00E94DCF614
:10376000882309F44AC097FE0DC026EDE22E24E31B
:10377000F22E9094819491089394C0E2D0E000E0FE
:1037800010E012C09EEEE92E94E3F92EF6CFF70179
:103790002591359145915491C601B5010E94BCF91E
:1037A0005B016C018C1A9D0A8C169D0684F7D595D9
:1037B000C7950F5F1F4F0630110529F08CEF9FEF63
:1037C000E80EF91EF1CFC501D6017C018D018C2DCB
:1037D000880F8D2D881F8F3F51F0C601B50120E065
:1037E00030E040E050E00E94DCF6882331F482E2D1
:1037F00090E09093431F8093421F7E2D9F2D802F3A
:10380000612F272F392F482F562FB901CA01CDB765
:10381000DEB7ECE00C945CFB2F923F925F926F92CC
:103820007F928F929F92AF92BF92CF92DF92EF9250
:10383000FF920F931F93CF93DF938C011B01EA013B
:103840006115710519F0FB0191838083209749F080
:10385000CE010297839728F020E030E040E050E06E
:10386000F6C0F801A1908F018A2D90E00E9427FBFD
:10387000892BB9F7FDE2AF1631F4F801A1908F0161
:103880005524539407C0FBE2AF1619F4F801A19038
:103890008F015524209719F0C031D105C1F4F0E310
:1038A000AF1679F4F8018081883711F0883549F432
:1038B000F801A1800E5F1F4FF2E05F2AC0E1D0E067
:1038C00006C0209721F480E3A816E9F427C0C83089
:1038D000D10531F1C930D10524F4C230D10531F51B
:1038E0000CC0CA30D10589F0C031D105F9F4C12C22
:1038F000D12CE12CB8E0FB2E28C0C12CD12CE12C1E
:10390000A0E4FA2E22C0CAE0D0E0FCECCF2EFCEC02
:10391000DF2EFCECEF2EFCE0FF2E17C0C8E0D0E05D
:10392000C12CD12CE12CE0E1FE2E0FC09E014427DA
:1039300037FD4095542F60E070E080E090E80E94F1
:10394000D0FAC901DA016C017D0120E030E040E0ED
:1039500050E060E03E01882477FC8094982C70ED64
:10396000B72EBA0CE9E0EB1570F48A2D81548A3138
:1039700018F499ECB92E06C08A2D81568A3150F57B
:1039800089EAB82EBA0C8B2D90E08C179D0714F5A0
:103990006F3FE1F0C216D306E406F506B0F0CA01A7
:1039A000B901A40193010E9492FA9B01AC012B0D75
:1039B000311D411D511D2130F0E03F07F0E04F0760
:1039C000F0E85F0710F461E001C06FEFF801A1902B
:1039D0008F01C5CF2114310481F0662331F00150ED
:1039E0001040F1011183008308C051FE1AC002503B
:1039F0001040F1011183008314C067FF12C050FC16
:103A000005C02FEF3FEF4FEF5FE704C020E030E04D
:103A100040E050E882E290E09093431F8093421F81
:103A200016C050FE08C050954095309521953F4FE7
:103A30004F4F5F4F0CC057FF0AC082E290E0909357
:103A4000431F8093421F2FEF3FEF4FEF5FE7B90116
:103A5000CA01DF91CF911F910F91FF90EF90DF90FE
:103A6000CF90BF90AF909F908F907F906F905F901E
:103A70003F902F9008951F93FC0199278827BC0140
:103A8000E89411911032E9F3193010F01E30C8F3A8
:103A90001B3251F01D3249F4689406C00E94391E51
:103AA000610F711D811D911D119110531A30B0F3DA
:103AB0003EF490958095709561957F4F8F4F9F4F05
:103AC0001F910895FB01DC0102C005900D92415049
:103AD0005040D8F70895FC010590061621F000200B
:103AE000D9F7C00108953197CF010895FB01DC019A
:103AF0008D91059080190110D9F3990B0895FB0160
:103B0000DC0105900D920020E1F70895FC0105907D
:103B10000020E9F7809590958E0F9F1F0895FB0177
:103B2000DC014150504088F08D9181341CF08B3580
:103B30000CF4805E659161341CF06B350CF4605EB2
:103B4000861B611171F3990B0895881BFCCFFB0153
:103B5000DC014150504030F08D910590801919F4EE
:103B60000020B9F7881B990B0895FB01DC01415037
:103B7000504048F005900D920020C9F701C01D92F9
:103B800041505040E0F70895FB0155915523A9F0AD
:103B9000BF01DC014D9145174111E1F759F4CD0109
:103BA0000590002049F04D9140154111C9F3FB01EA
:103BB0004111EFCF81E090E001970895FB01DC0116
:103BC00004C08D910190801921F441505040C8F7F4
:103BD000881B990B0895FB01DC0102C001900D9236
:103BE00041505040D8F70895FB01DC010D900020B2
:103BF000E9F7119701900D920020E1F70895FC017B
:103C00008191861721F08823D9F799270895319754
:103C1000CF010895FB01DC0101900D920020E1F736
:103C20000895FB01DC014150504030F08D9101902E
:103C3000801919F40020B9F7881B990B0895FB012E
:103C4000DC014150504048F001900D920020C9F72E
:103C500001C01D9241505040E0F70895FC0181E001
:103C600090E00190061609F4CF010020D1F70197EA
:103C70000895592F482F372F262F660F771F881F3B
:103C8000991F660F771F881F991F620F731F841F6C
:103C9000951F660F771F881F991F0895AEE0B0E04B
:103CA000E4E5FEE10C9448FB0E891F898EE08C83CD
:103CB0001A8309838FEF9FE79E838D839E01265E83
:103CC0003F4FCE010196688D798DA9010E94721E29
:103CD0002F813885020F131FF80110822E96E4E021
:103CE0000C9464FBABE0B0E0E8E7FEE10C943AFB37
:103CF0003C012B015A01FC0117821682838181FD50
:103D000003C06FEF7FEFC6C19AE0892E1E010894B1
:103D1000211C311CF3012381F20123FD859123FF36
:103D200081912F01882309F4B2C1853239F423FD32
:103D3000859123FF81912F01853229F490E0B30111
:103D40000E946520E7CF982FFF24EE249924FFE1FD
:103D5000FF15D0F09B3269F09C3228F4903259F074
:103D6000933291F40EC09D3249F0903369F441E0F2
:103D700024C052E0F52A84E0F82A28C098E0F92A05
:103D800025C0E0E1FE2A22C0F7FC29C0892F80531C
:103D90008A3070F4F6FE05C0989C902C1124980E81
:103DA00015C0E89CE02C1124E80EF0E2FF2A0EC0BA
:103DB0009E3229F4F6FC6BC140E4F42A07C09C361D
:103DC00019F450E8F52A02C0983649F4F20123FDAF
:103DD000959123FF91912F01992309F0B8CF892F55
:103DE0008554833018F08052833038F444E050E03A
:103DF000A40EB51E5FE359830FC0933631F093379D
:103E000079F0933509F056C020C0F501808189838F
:103E100042E050E0A40EB51E610101E010E012C0C6
:103E2000F501C080D180F6FC03C06FEF7FEF02C0C8
:103E3000692D70E042E050E0A40EB51EC6010E945C
:103E40005A208C015FE7F52214C0F501C080D180B3
:103E5000F6FC03C06FEF7FEF02C0692D70E042E017
:103E600050E0A40EB51EC6010E944F208C0150E800
:103E7000F52AF3FE07C01AC080E290E0B3010E9469
:103E80006520EA948E2D90E008171907A8F30EC05C
:103E9000F601F7FC8591F7FE81916F0190E0B30187
:103EA0000E946520E110EA940150104001151105AF
:103EB00079F7EAC0943611F0993669F5F7FE08C033
:103EC000F501208131814281538184E090E00AC074
:103ED000F501808191819C01442737FD4095542F45
:103EE00082E090E0A80EB91E9FE6F92257FF09C0B4
:103EF00050954095309521953F4F4F4F5F4FE0E8EB
:103F0000FE2ACA01B901A1012AE030E00E949120F5
:103F1000D82ED21840C0953729F41F2D1F7E2AE0D5
:103F200030E01DC01F2D197F9F3661F0903720F4BF
:103F3000983509F0ACC00FC0903739F0983709F0C8
:103F4000A6C004C028E030E00AC0106114FD14606F
:103F500020E130E004C014FD166020E132E017FFDC
:103F600008C0F501608171818281938144E050E055
:103F700008C0F50180819181BC0180E090E042E0C1
:103F800050E0A40EB51EA1010E949120D82ED21897
:103F90008FE7F82EF122F6FE0BC05EEFF522D91462
:103FA00038F4F4FE07C0F2FC05C08FEEF82202C020
:103FB0001D2D01C0192DF4FE0DC0FE01ED0DF11DEA
:103FC0008081803319F499EEF92208C01F5FF2FE58
:103FD00005C003C08F2D867809F01F5F0F2DF3FCFD
:103FE00014C0F0FE0FC01E1510F09D2C0BC09D2CB0
:103FF0009E0C911A1E2D06C080E290E0B3010E9433
:1040000065201F5F1E15C0F304C01E1510F4E11AD1
:1040100001C0EE2404FF0FC080E390E0B3010E94D2
:10402000652002FF1DC001FD03C088E790E00EC0BF
:1040300088E590E00BC0802F867891F001FF02C0E8
:104040008BE201C080E2F7FC8DE290E0B3010E94B8
:10405000652006C080E390E0B3010E9465209A9439
:10406000D914C0F3DA94F101ED0DF11D808190E0D7
:10407000B3010E946520DD20A9F706C080E290E030
:10408000B3010E946520EA94EE20C1F743CEF3010C
:1040900066817781CB012B96E2E10C9456FBFC0103
:1040A0000590615070400110D8F7809590958E0F63
:1040B0009F1F0895FC016150704001900110D8F7D6
:1040C000809590958E0F9F1F08950F931F93CF9308
:1040D000DF938C01EB018B8181FF1BC082FF0DC040
:1040E0002E813F818C819D812817390764F4E881F6
:1040F000F9810193F983E88306C0E885F985802F6B
:104100001995892B31F48E819F8101969F838E832F
:1041100002C00FEF1FEFC801DF91CF911F910F91E8
:104120000895FA01AA27283051F1203181F1E8944D
:104130006F936E7F6E5F7F4F8F4F9F4FAF4FB1E09A
:104140003ED0B4E03CD0670F781F891F9A1FA11D95
:10415000680F791F8A1F911DA11D6A0F711D811D96
:10416000911DA11D20D009F468943F912AE0269F5B
:1041700011243019305D3193DEF6CF010895462FBA
:104180004770405D4193B3E00FD0C9F7F6CF462F9B
:104190004F70405D4A3318F0495D31FD4052419304
:1041A00002D0A9F7EACFB4E0A695979587957795C1
:1041B0006795BA95C9F700976105710508959B0148
:1041C000AC010A2E06945795479537952795BA95D1
:1041D000C9F7620F731F841F951FA01D0895FC016E
:1041E0001282138210AA0895FC0180A9882319F075
:1041F00081E0828313820895CF93DF93EC01FC0169
:10420000E955FE4F8081882309F461C08150808385
:10421000DE01AA5ABF4FFE01EB58FF4F8BE1019020
:104220000D928150E1F7FE01EC5AFF4FCD58DF4F60
:1042300088819981C357D0409183808330E0BE014B
:1042400069557E4F3FC0832F90E0AC014F5F5F4FB9
:10425000DC01E5E0AA0FBB1FEA95E1F7A81BB90B4B
:10426000AC0FBD1FFA0125E0EE0FFF1F2A95E1F705
:10427000E41BF50BEC0FFD1FAB58BF4FEB58FF4F86
:104280002BE101900D922150E1F7FC0125E0EE0FAA
:10429000FF1F2A95E1F7E81BF90BEC0FFD1FED5806
:1042A000FF4FDA0185E0AA0FBB1F8A95E1F7A41B37
:1042B000B50BAC0FBD1FAD58BF4F8D919C91918335
:1042C00080833F5FFB018081381708F4BCCFDF910A
:1042D000CF910895FC0183E395E0918380838781EA
:1042E000882321F0CF0104960E94448008950F9303
:1042F0001F938C010E94F48E0E94EB8DC8018053A5
:104300009E4F0E944480F801128213828FE291E056
:104310000E9452411F910F910895CF92DF92EF9228
:10432000FF920F931F93DF93CF93CDB7DEB76F97B5
:104330000FB6F894DEBF0FBECDBF8C016B01075ADC
:104340001F4FD8018C9109551040882321F481E337
:10435000E82EF12C03C0B2E5EB2EF12CE00EF11E9D
:1043600083E395E09A8389831C821B8218861D82D1
:10437000B7016C5F7F4FCE010596A60121E00E9438
:104380009E87882391F5EBE3F1E0949108C080913A
:10439000C00085FFFCCF9093C6003196949199237D
:1043A000B1F7E1E4F1E0949108C08091C00085FF8D
:1043B000FCCF9093C600319694919923B1F709C030
:1043C0008091C00085FFFCCF0894C11CD11C909344
:1043D000C600F6019081992399F78091C00085FF6E
:1043E000FCCF8AE08093C60056C0F801E955FE4F25
:1043F00080818A3008F03EC08F5F8083282F30E0B4
:10440000C9010197FC01A5E0EE0FFF1FAA95E1F796
:10441000E81BF90BEB58FF4FE00FF11F2150304024
:10442000AF01415E5F4FBF018BE1DB010D90BD012C
:10443000DA010D92AD018150C1F7929182913296CD
:10444000968F858F7F972115310541F7D801AB589D
:10445000BF4FF70134968BE101900D928150E1F747
:104460000D581F4FF70182819381D8018D939C9342
:1044700003571040D801AA5ABF4FFE0135968BE171
:1044800001900D928150E1F70C5A1F4F8B819C8156
:10449000F80191838083CE0101960E946A216F9674
:1044A0000FB6F894DEBF0FBECDBFCF91DF911F9145
:1044B0000F91FF90EF90DF90CF900895EF92FF92D1
:1044C0000F931F938C0190EDE92E91E0F92EE00EF1
:1044D000F11EC7010E94F67FC7010E944480F801C7
:1044E000108211821F910F91FF90EF900895CF924B
:1044F000DF92EF92FF920F931F93CF93DF937C0194
:104500006B01DB010D900020E9F78D010150104097
:10451000061B170BE0EDF1E0EE0EFF1ED7011C921B
:10452000E0E3FEEFEE0EFF1ECB016EE470E00E94B2
:10453000FF1DEC01009731F4F8013197EC0DFD1DE2
:1045400086010EC060E270E00E94FF1D8C010F5FCB
:104550001F4FCE016AE270E00E94FF1DFC013197FF
:104560008DE081838AE082831382C70184539E4F4A
:10457000B8010E94A08880ED91E0E80EF91ED701F5
:104580008C91882319F1EBE6F1E0949108C08091B9
:10459000C00085FFFCCF9093C6003196949199237B
:1045A000B1F7E2E7F1E0949108C08091C00085FF87
:1045B000FCCF9093C600319694919923B1F78091E6
:1045C000C00085FFFCCF8AE08093C600DF91CF91C9
:1045D0001F910F91FF90EF90DF90CF900895CF93B0
:1045E000DF93EC0188A9882309F43DC0E6EAF1E0F5
:1045F000949108C08091C00085FFFCCF9093C600C5
:10460000319694919923B1F7CD50DE4F488159816D
:104610006A817B81C35FD1408BEF95E02AE030E077
:104620000E94623AE4EAF1E0949108C08091C000EF
:1046300085FFFCCF9093C600319694919923B1F7F2
:10464000C551DE4F488159816A817B81CB5ED14063
:104650008BEF95E02AE030E00E94623A8091C00042
:1046600085FFFCCF12C0E4E9F1E0949108C080918D
:10467000C00085FFFCCF9093C6003196949199239A
:10468000B1F78091C00085FFFCCF8AE08093C6001F
:10469000C655DE4F68816623E1F0E8E8F1E09491C9
:1046A00008C08091C00085FFFCCF9093C600319672
:1046B00094919923B1F78BEF95E070E04AE050E0D8
:1046C0000E94B63A8091C00085FFFCCF8AE08093BB
:1046D000C600DF91CF9108952F923F924F925F9243
:1046E0006F927F928F929F92AF92BF92CF92DF9202
:1046F000EF92FF920F931F93DF93CF93CDB7DEB767
:10470000AC970FB6F894DEBF0FBECDBF5C014B0176
:10471000FC0180A9882309F439C1C50180539E4F4B
:104720000E944480F501128213821A8A1D8A198A16
:10473000188A83E395E09F878E8730E5C32ED12CBE
:10474000CA0CDB1C21E330E0A20EB31EF601B182DD
:10475000A0822FEC3FEFA20EB31EF40180818F32B6
:1047600009F090C0C4016FE270E00E94FF1D7C015F
:104770000894E11CF11C3E010894611C711C260187
:1047800022E1222E312C2C0E3D1E77C0C7016FE294
:1047900070E00E94FF1D6C01009709F481C0E816CB
:1047A000F90608F07DC08C010E191F09C301B7017D
:1047B000A8010E941F1E060D171DF8011082F301AB
:1047C00007C08091C00085FFFCCF31969093C60052
:1047D00090819923B1F78091C00085FFFCCFFAE06A
:1047E000F093C600F201608171816115710519F4C1
:1047F00060E070E002C06C5F7F4FC101A30121E067
:104800000E949E87882371F5E2EEF1E0949108C042
:104810008091C00085FFFCCF9093C60031969491A3
:104820009923B1F7FE01319607C08091C00085FF42
:10483000FCCF31969093C60090819923B1F7E0EEBA
:10484000F1E0949108C08091C00085FFFCCF909367
:10485000C600319694919923B1F78091C00085FFED
:10486000FCCF8DC02EE030E02C0F3D1FF2013183D4
:10487000208376010894E11CF11CE114F10409F095
:1048800085CF0BC082E590E0A80EB91EF601B1827B
:10489000A0822EEA3FEFA20EB31ED82C092D02C033
:1048A000DE2C0F2D80E590E0A80EB91EF501808169
:1048B000918120EB3FEFA20EB31E009719F480E028
:1048C00090E001C004966D2D702F0E94708888239F
:1048D00039F1E2EDF1E0949108C08091C00085FFCC
:1048E000FCCF9093C600319694919923B1F78D2D0A
:1048F000902F9C01F90107C08091C00085FFFCCF7B
:1049000031969093C60090819923B1F783EF91E09F
:10491000A80EB91EF501108211821282138232C0D4
:10492000EAEBF1E0949108C08091C00085FFFCCFD4
:104930009093C600319694919923B1F78D2D902FC5
:104940009C01F90107C08091C00085FFFCCF319622
:104950009093C60090819923B1F7E8EBF1E0949130
:1049600008C08091C00085FFFCCF9093C6003196AF
:1049700094919923B1F78091C00085FFFCCF8AE024
:104980008093C600CE010E960E946A21AC960FB6A7
:10499000F894DEBF0FBECDBFCF91DF911F910F9175
:1049A000FF90EF90DF90CF90BF90AF909F908F904F
:1049B0007F906F905F904F903F902F9008952F922F
:1049C0003F924F925F926F927F928F929F92AF929F
:1049D000BF92CF92DF92EF92FF920F931F93DF93DC
:1049E000CF93CDB7DEB7AD970FB6F894DEBF0FBE4D
:1049F000CDBF5C014B014DA7FC0180A9882309F4C0
:104A0000EBC150ED452E51E0552E4A0C5B1CC20106
:104A10000E944480F501128213821A8A1D8A198A23
:104A2000188A83E395E09F878E8740E5C42ED12CBA
:104A3000CA0CDB1C81E390E0A80EB91EF601B1821E
:104A4000A0828FEC9FEFA80EB91EF40180818F32F7
:104A500009F08DC0C4016FE270E00E94FF1D7C016F
:104A60000894E11CF11C3E010894611C711C1601A4
:104A700078C0C7016FE270E00E94FF1D6C010097D3
:104A800009F483C0E816F90608F07FC08C010E19FE
:104A90001F09C301B701A8010E941F1E060D171DA3
:104AA000F8011082F30107C08091C00085FFFCCFA0
:104AB00031969093C60090819923B1F78091C00000
:104AC00085FFFCCFFAE0F093C600F10160817181AF
:104AD0006115710519F460E070E002C06C5F7F4FF2
:104AE000CE014296A30121E00E949E87882371F5A2
:104AF000EAE5F2E0949108C08091C00085FFFCCF08
:104B00009093C600319694919923B1F7FE013196A6
:104B100007C08091C00085FFFCCF31969093C600FE
:104B200090819923B1F7E8E5F2E0949108C0809173
:104B3000C00085FFFCCF9093C600319694919923D5
:104B4000B1F78091C00085FFFCCF16C18EE090E0E8
:104B50008C0F9D1FF1019183808376010894E11CE5
:104B6000F11C92E0E916F10408F083CF0BC0E2E5F6
:104B7000F0E0AE0EBF1EF601B182A0828EEA9FEF7A
:104B8000A80EB91E082DF92C01C00E2DF501E05B11
:104B9000FF4F9DA5992309F4ADC060817181611516
:104BA000710519F460E070E002C06C5F7F4FC201D4
:104BB000402F5F2D21E00E949E87882309F46AC060
:104BC000E1EEF1E0AE0EBF1EF50140815181628140
:104BD00073818AE090E0A80EB91EF50140835183ED
:104BE0006283738385E19EEFA80EB91EEAE4F2E0CA
:104BF000949108C08091C00085FFFCCF9093C600BF
:104C0000319694919923B1F7802F9F2D9C01F90142
:104C100007C08091C00085FFFCCF31969093C600FD
:104C200090819923B1F7E2E4F2E0949108C0809179
:104C3000C00085FFFCCF9093C600319694919923D4
:104C4000B1F78BEF95E02AE030E00E94623A809164
:104C5000C00085FFFCCF8AE08093C600E3EFF1E05F
:104C6000AE0EBF1EF5011082118212821382E4E3A0
:104C7000F2E0949108C08091C00085FFFCCF909332
:104C8000C600319694919923B1F78091C00085FFB9
:104C9000FCCF97C0E0E2F2E0949108C08091C000A0
:104CA00085FFFCCF9093C600319694919923B1F77C
:104CB000802F9F2D9C01F90107C08091C00085FFC6
:104CC000FCCF31969093C60090819923B1F7EEE125
:104CD000F2E0949108C08091C00085FFFCCF9093D2
:104CE000C600319694919923B1F78091C00085FF59
:104CF000FCCF42C0608171816115710519F460E0DB
:104D000070E002C06C5F7F4FC201402F5F2D26E52F
:104D10000E949E87882309F033C0EAE0F2E0949174
:104D200008C08091C00085FFFCCF9093C6003196EB
:104D300094919923B1F7802F9F2D9C01F90107C011
:104D40008091C00085FFFCCF31969093C600908182
:104D50009923B1F7E8E0F2E0949108C08091C00097
:104D600085FFFCCF9093C600319694919923B1F7BB
:104D70008091C00085FFFCCF8AE08093C60028C0E8
:104D800081E0F5018083E6EFF1E0949108C0809125
:104D9000C00085FFFCCF9093C60031969491992373
:104DA000B1F7F40107C08091C00085FFFCCF3196B8
:104DB0009093C60090819923B1F78091C00085FF40
:104DC000FCCF8AE08093C600802F9F2D0E94C2A155
:104DD000CE010E960E946A21AD960FB6F894DEBF02
:104DE0000FBECDBFCF91DF911F910F91FF90EF903C
:104DF000DF90CF90BF90AF909F908F907F906F90FB
:104E00005F904F903F902F900895FC0181E0818347
:104E1000CF0140E00E94DF240895EF92FF920F93AC
:104E20001F93CF93DF938C01FC0110AA80AD8823E0
:104E300021F0C801C5960E94448069EAE62E61E02F
:104E4000F62EE00EF11EC70160E045E30E940B7EE6
:104E5000882309F5EBE3F1E0949108C08091C0004C
:104E600085FFFCCF9093C600319694919923B1F7BA
:104E7000ECE9F2E0949108C08091C00085FFFCCF7E
:104E80009093C600319694919923B1F78091C00018
:104E900085FFFCCF7DC0E801C255DE4FCE01B701D2
:104EA00041E00E944189882341F5CE01B70140E0ED
:104EB0000E944189882309F5EBE6F1E0949108C04E
:104EC0008091C00085FFFCCF9093C60031969491ED
:104ED0009923B1F7E9E8F2E0949108C08091C0000D
:104EE00085FFFCCF9093C600319694919923B1F73A
:104EF0008091C00085FFFCCF4BC0C801C596BE01A4
:104F00000E942883882309F5EBE6F1E0949108C01C
:104F10008091C00085FFFCCF9093C600319694919C
:104F20009923B1F7E9E7F2E0949108C08091C000BD
:104F300085FFFCCF9093C600319694919923B1F7E9
:104F40008091C00085FFFCCF23C081E0F80180ABD9
:104F5000EBE3F1E0949108C08091C00085FFFCCFA5
:104F60009093C600319694919923B1F7EEE6F2E062
:104F7000949108C08091C00085FFFCCF9093C6003B
:104F8000319694919923B1F78091C00085FFFCCFB1
:104F90008AE08093C600D801AA5ABF4FF801F5965F
:104FA0008BE101900D928150E1F7F80183A994A95A
:104FB0000C5A1F4FF8019183808304551040C8019B
:104FC000C196005B1F4FF80191838083DF91CF91E1
:104FD0001F910F91FF90EF9008952F923F924F9263
:104FE0005F926F927F929F92AF92BF92CF92DF9229
:104FF000EF92FF920F931F93DF93CF93CDB7DEB75E
:10500000CC55D0400FB6F894DEBF0FBECDBF6C01BB
:10501000662311F527EF31E0C20ED31ED6018C9125
:10502000E9E0FEEFCE0EDF1E882309F4EAC02FEE82
:1050300031E0C20ED31ED601ED90FD900D911C9172
:10504000E1E1FEEFCE0EDF1E0E942AF3E616F70620
:105050000807190708F4D5C027EF31E0C20ED31EA8
:10506000D6011C92E9E0FEEFCE0EDF1ED601D096EF
:105070008C91882341F4C6010E940D27F60180A976
:10508000882309F4BEC000D000D0EDB7FEB731963A
:105090007E010894E11CF11CADB7BEB71296FC92DC
:1050A000EE92119782E691E093838283D6019E96D9
:1050B0008D919C919F97958384830E944E1E8701BA
:1050C000EDB7FEB736960FB6F894FEBF0FBEEDBF34
:1050D00057010AC0D8018C91992787FD90950E94AD
:1050E0002FFBF80181938F01F50101900020E9F772
:1050F0003197EA19FB09802F8E198E175CF3A5E30F
:10510000AA2EB12CAC0CBD1CC50140E050E060E003
:1051100070E00E942C7F9924FDE3EF2EF12CEC0E21
:10512000FD1E2E010894411C511CEFE16E2E712CC6
:105130006C0E7D1E7BE5272E71E0372E42C0D80114
:105140008C9190E00E942FFBF80181938F01D70191
:105150000D900020E9F71197AE19BF09802F8E1925
:105160008A176CF327968FAD27978E3751F1C701B9
:10517000B20145E050E00E94111E009711F500D0E9
:1051800000D0EDB7FEB73196ADB7BEB712967C92A0
:105190006E92119733822282558244820E944E1E63
:1051A000EDB7FEB736960FB6F894FEBF0FBEEDBF53
:1051B000C3010E94AA6587E591E00E9452419924AB
:1051C0009394C501B70140E050E00E944482181654
:1051D00014F48701BCCF992041F48FEF9FEFD601E3
:1051E0009F969C938E939E9706C0F60186A597A5E1
:1051F000019697A786A72AEA31E0C20ED31ED601F0
:105200001C92C45ADF4F0FB6F894DEBF0FBECDBF5D
:10521000CF91DF911F910F91FF90EF90DF90CF9092
:10522000BF90AF909F907F906F905F904F903F9016
:105230002F9008952F923F924F925F926F927F929C
:105240008F929F92AF92BF92CF92DF92EF92FF9296
:105250000F931F93DF93CF93CDB7DEB7CF58D040D6
:105260000FB6F894DEBF0FBECDBF8C013B016A01C3
:1052700084E090E0C80ED91EF8017296C757DF4F40
:10528000F983E883C958D040C8010596CA57DF4F53
:1052900099838883C658D040C857DF4F1882C858B2
:1052A000D04036E6E32EF12CEC0EFD1EF7013B96C6
:1052B000C557DF4FF983E883CB58D04028EF822EC3
:1052C00021E0922E800E911E9AEFA92E91E0B92E28
:1052D000A00EB11E8EE0282E312C2C0E3D1EB7E400
:1052E0004B2E512C4C0E5D1EC2010496C357DF4F4E
:1052F00099838883CD58D040EBE3F1E09491C15776
:10530000DF4F9883CF58D0404FC1F7018385482F96
:1053100050E0BA01687170706031710509F052C1D6
:10532000F401208131812130310509F44BC1223053
:10533000310509F447C1F701DE01119690819032E1
:1053400039F08E2F8E19883011F48EE28D939D9353
:105350003196C557DF4F88819981CB58D040E817E7
:10536000F90761F71C921E86F3018081882329F4D6
:10537000C10160E072E00E94F41DC101B3010E940E
:10538000F41DC101BE016F5F7F4F0E94F41DC1017A
:1053900060E072E00E94F41D1CA61FA61BA61AA6C0
:1053A00083E395E099A788A7CE018C96B601AE015C
:1053B0004F5F5F4F21E00E949E87882309F03FC026
:1053C000F40180819181892BD1F5C157DF4F9881FC
:1053D000CF58D040EBE3F1E008C08091C00085FFDA
:1053E000FCCF9093C600319694919923B1F7E2E0F7
:1053F000F2E007C08091C00085FFFCCF319690930A
:10540000C60090819923B1F78091C00085FFFCCF41
:10541000FAE0F093C600FE01319607C08091C0000B
:1054200085FFFCCF31969093C60090819923B1F708
:105430008091C00085FFFCCF8AE08093C600C357EF
:10544000DF4FA881B981CD58D040FE01BC968BE1D9
:1054500001900D928150E1F78AA59BA5F2019383FB
:10546000828383E395E091838083C801B101A20127
:105470000E941A29C2010E946A21CE0188960E94C8
:105480006A2192C0953E09F48FC09E3209F48CC007
:105490009F3509F489C0F8019289992331F09E3231
:1054A00009F482C09F3509F47FC043FD7DC080E0D0
:1054B0006031710509F481E0F80185A7882349F47A
:1054C000F7018085873409F06FC081858E3709F434
:1054D0006BC0CA57DF4FA881B981C658D040F701C9
:1054E0008081803241F08E2F8E19883011F48EE247
:1054F0008D9380818D933196C557DF4F8881998137
:10550000CB58D040E817F90759F71C92F401808175
:105510009181009729F5F30107C08091C00085FFB4
:10552000FCCF31969093C60090819923B1F7CA576A
:10553000DF4FE881F981C658D04007C08091C00094
:1055400085FFFCCF31969093C60090819923B1F7E7
:105550008091C00085FFFCCFFAE0F093C60024C024
:105560008130910539F4F501808191810196918313
:1055700080831AC00297C1F4C857DF4FF881C8581A
:10558000D0402F2F30E0F501808191812817390715
:10559000F1F0C857DF4FF881C858D040FF5FC857B7
:1055A000DF4FF883C858D040C601B701C757DF4F57
:1055B00048815981C958D0400E94448218160CF481
:1055C000A4CE05C0F7019081992309F05BCFC157A4
:1055D000DF4F0FB6F894DEBF0FBECDBFCF91DF9186
:1055E0001F910F91FF90EF90DF90CF90BF90AF9001
:1055F0009F908F907F906F905F904F903F902F90F3
:105600000895EF92FF920F931F93DF93CF93CDB73F
:10561000DEB76F970FB6F894DEBF0FBECDBF7C012B
:105620008C01005B1F4F8E5A9F4FF801918380833E
:1056300028EF31E0E20EF31E21E030E0F701219384
:1056400031937F011182108226E03EEFE20EF31EBD
:10565000049640E050E060E070E00E942C7FF8018A
:1056600020813181DE011596F90134968BE101909C
:105670000D928150E1F7F901828193819C838B83A4
:1056800083E395E09A838983C70165E172E08E0127
:105690000F5F1F4FA8010E941A29C8010E946A21AA
:1056A000F701E650FE4F808191816F960FB6F89416
:1056B000DEBF0FBECDBFCF91DF911F910F91FF9045
:1056C000EF900895EF92FF920F931F93DF93CF9384
:1056D000CDB7DEB76F970FB6F894DEBF0FBECDBF64
:1056E0007C018C01005B1F4F8E5A9F4FF801918304
:1056F000808328EF31E0E20EF31E22E030E0F70174
:105700003183208328E03EEFE20EF31EF701E650DE
:10571000FE4F60831182049640E050E060E070E04C
:105720000E942C7FF80120813181DE011596F9015C
:1057300034968BE101900D928150E1F7F90182815D
:1057400093819C838B8383E395E09A838983C7014C
:1057500065E172E08E010F5F1F4FA8010E941A29B8
:10576000C8010E946A216F960FB6F894DEBF0FBE83
:10577000CDBFCF91DF911F910F91FF90EF900895D2
:10578000EF92FF920F931F93DF93CF93CDB7DEB7C6
:105790006F970FB6F894DEBF0FBECDBF7C0188EFC8
:1057A00091E0E80EF91EF7011182108288E09EEF69
:1057B000E80EF91E87010B5C1F4FC80140E050E066
:1057C00060E070E00E942C7FDE011596F8018BE10D
:1057D00001900D928150E1F7F70183A994A99C8370
:1057E0008B8383E395E09A838983C70165E172E047
:1057F0008E010F5F1F4FA8010E941A29C8010E9445
:105800006A216F960FB6F894DEBF0FBECDBFCF9161
:10581000DF911F910F91FF90EF9008950F931F93C9
:10582000CF93DF93DC01D5961C92D597D8961C9226
:10583000D897D4961C921E92D39783E395E0D29684
:105840009C938E93D197AA5ABF4F1C9213961C9289
:10585000A955B040FD01EE5AFF4FAC5ABF4F11960B
:105860001C921E92A455B04091838083ED01CF58C5
:10587000DF4FFE0120E030E0482F148217821382B0
:10588000128240839183215E3F4F7F9681E02633D1
:10589000380799F7A655BE4F89E18C9313961C9251
:1058A00058961C921B961C9213961C92A35DB140B5
:1058B000FD01E453FE4FA253BE4F11961C921E925F
:1058C000408391835D961D921D921D921C921397A9
:1058D00018961D921D921D921C921397A35FB140C2
:1058E00012961C92129713961C921397D0961C92A4
:1058F000D0971C9211961C9211978D0101511E4F49
:10590000F8011082118212821382A955BE4F1C9297
:10591000FE01C90111920197E9F7A05BBF4F81E039
:105920008C93A75FB1409F961C921E929E970E94F7
:105930002AF368577C4E8F4F9F4FF8016083718325
:1059400082839383DF91CF911F910F910895DF930D
:10595000CF93CDB7DEB764970FB6F894DEBF0FBE16
:10596000CDBF8091160290911702A0911802B091BC
:1059700019028D879E87AF87B88BFE013D9624E67E
:1059800030E08081F999FECF1FBA32BD21BD80BDC4
:105990000FB6F894FA9AF99A0FBE2F5F3F4F283648
:1059A000310511F03196EDCFE1EEF9E08081F99902
:1059B000FECF1FBA32BD21BD80BD0FB6F894FA9A52
:1059C000F99A0FBE2F5F3F4F2837310511F03196FE
:1059D000EDCFE1EDF9E08081F999FECF1FBA32BD3C
:1059E00021BD80BD0FB6F894FA9AF99A0FBE2F5FC9
:1059F0003F4F2838310511F03196EDCFE5EFF9E052
:105A00008081F999FECF1FBA32BD21BD80BD0FB68E
:105A1000F894FA9AF99A0FBE2F5F3F4F2839310553
:105A200011F03196EDCFE9E0FAE08081F999FECFEF
:105A30001FBA32BD21BD80BD0FB6F894FA9AF99A0B
:105A40000FBE2F5F3F4F2C39310511F03196EDCF4E
:105A5000EDE0FAE08081F999FECF1FBA32BD21BD99
:105A600080BD0FB6F894FA9AF99A0FBE2F5F3F4F98
:105A7000203A310511F03196EDCFE5E0FAE0808172
:105A8000F999FECF1FBA32BD21BD80BD0FB6F89483
:105A9000FA9AF99A0FBE2F5F3F4F243A310511F061
:105AA0003196EDCFEDE1FAE08081F999FECF1FBA92
:105AB00032BD21BD80BD0FB6F894FA9AF99A0FBE97
:105AC0002F5F3F4F283A310511F03196EDCFEDECC5
:105AD000F9E08081F999FECF1FBA32BD21BD80BDAA
